:100000000C9436010C9455010C9455010C94550137
:100010000C9455010C9455010C9455010C94550108
:100020000C9455010C9455010C9455010C945501F8
:100030000C9455010C949F040C9455010C9455019B
:100040000C9455010C9455010C9455010C945501D8
:100050000C9455010C9455010C9455010C945501C8
:100060000C9455010C9455010C9455010C945501B8
:100070000C9455010C9455010C9455010C945501A8
:100080000C9455010C9455010C945501000000008E
:100090000000005F00000007000700147F147F14B9
:1000A000242A7F2A122313086462364955225000FD
:1000B00005030000001C2241000041221C0014081E
:1000C0003E081408083E08080050300000080808E0
:1000D0000808006060000020100804023E514945F5
:1000E0003E00427F400042615149462141454B312B
:1000F0001814127F1027454545393C4A49493001BB
:10010000710905033649494936064949291E003611
:100110003600000056360000081422410014141462
:100120001414004122140802015109063249794190
:100130003E7E1111117E7F494949363E414141229F
:100140007F4141221C7F494949417F090909013EFC
:100150004149497A7F0808087F00417F41002040DB
:10016000413F017F081422417F404040407F020C04
:10017000027F7F0408107F3E4141413E7F0909090B
:10018000063E4151215E7F091929464649494931B8
:1001900001017F01013F4040403F1F2040201F3FA1
:1001A0004038403F63140814630708700807615122
:1001B000494543007F4141000204081020004141AD
:1001C0007F0004020102044040404040000102045C
:1001D0000020545454787F484444383844444420E0
:1001E000384444487F3854545418087E0901020C9E
:1001F0005252523E7F0804047800447D4000204063
:10020000443D007F1028440000417F40007C0418DA
:1002100004787C0804047838444444387C1414146A
:1002200008081414187C7C0804040848545454200A
:10023000043F4440203C4040207C1C2040201C3C8B
:100240004030403C44281028440C5050503C4464FA
:10025000544C44000836410000007F000000413645
:1002600008001008081008000000000011241FBE3C
:10027000CFEFD0E4DEBFCDBF11E0A0E0B1E0E2EB14
:10028000FDE100E00BBF02C007900D92A439B10759
:10029000D9F724E0A4E9B1E001C01D92A332B2076E
:1002A000E1F70E9475070C94C00E0C940000482FD3
:1002B000592F30E020E002C02F5F3F4F2417350751
:1002C0004CF490E080E0873063E09607ACF70000E4
:1002D0000196F9CF08959BB19F7B9BB988B98BB1EB
:1002E00080688BB900008BB18F778BB982E090E08A
:1002F0000E945701089581E00E946B0108958131A9
:1003000020F481580E946B01089581550E946B0171
:10031000089584E690E00E94570188E30E946B01F3
:1003200086E00E946B018FE00E946B0181E00E94D9
:100330006B018AE090E00E94570108959BB19064A0
:100340009BB988B98BB180688BB900008BB18F776E
:100350008BB981E090E00E94570108950F931F939D
:10036000CF93DF93182FC62FD72F0E947B01888150
:10037000882351F001E0010F812F0E947F018991B4
:100380000E949E01102FF3CFDF91CF911F910F910B
:1003900008951F93CF93DF93C62FD72F988199236A
:1003A00049F011E0180F0E947F0189910E949E017F
:1003B000812FF4CFDF91CF911F910895CF93C82F54
:1003C0008A3051F09091C00095FFFCCFC093C600D9
:1003D00090E080E0CF9108958DE00E94DE01F2CFA1
:1003E000E8EFF3E010829CE4918388E78283138234
:1003F000EEEAF3E022E0208342E541833EE13283EE
:100400001382EAE0F4E024E0208341833283138204
:10041000E2ECF3E026E02083918382831382E7ED10
:10042000F3E028E020839183828321E02383EDE1C0
:10043000F4E05AE05083418332832383E2EBF3E01C
:100440003CE03083918382832383EBEDF3E0809162
:10045000F8039091F903A091FA03B091FB03808314
:100460009183A283B3838091AE039091AF03A09157
:10047000B003B091B10384839583A683B783809141
:100480000A0490910B04A0910C04B0910D04808794
:100490009187A287B3878091C2039091C303A091F3
:1004A000C403B091C50384879587A687B7878091D9
:1004B000D7039091D803A091D903B091DA03808B30
:1004C000918BA28BB38B80911D0490911E04A091FF
:1004D0001F04B0912004848B958BA68BB78B8091E1
:1004E000B2039091B303A091B403B091B503808F90
:1004F000918FA28FB38F0895CF938091040187309D
:1005000088F4E82FF0E0EE53F14F0C94C80B1092F2
:100510009C0190919B01993038F0815080930401A7
:1005200010929B01CF9108959F5F90939B01FACF0A
:1005300080919B018930C0F48F5F80939B01F2CF43
:10054000EC2FF0E0EB5CFE4F40816C2F80E00E94CE
:100550002509CF5FC830A0F38091040181508093BA
:10056000040110929B01DECFC0E0F4CF80919B018B
:100570008930C0F48F5F80939B01D4CFEC2FF0E0E3
:10058000E35DFE4F40816C2F80E00E942509CF5F24
:10059000C830A0F38091040181508093040110922F
:1005A0009B01C0CFC0E0F4CF80919B018930C0F4A3
:1005B0008F5F80939B01B6CFEC2FF0E0EB5DFE4F99
:1005C00040816C2F80E00E942509CF5FC830A0F3E6
:1005D0008091040181508093040110929B01A2CF6D
:1005E000C0E0F4CF80919B018930C0F48F5F80938D
:1005F0009B0198CFEC2FF0E0E35EFE4F40816C2F23
:1006000080E00E942509CF5FC830A0F380910401EB
:1006100081508093040110929B0184CFC0E0F4CFFD
:1006200080919B018930A8F48F5F80939B017ACFE2
:10063000EC2FF0E0EB5EFE4F40816C2F80E00E94DB
:100640002509CF5FC830A0F31092040110929B01DE
:1006500069CFC0E0F7CF80919B01893020F081E025
:1006600080939C015FCF8F5F80939B015BCFCF9383
:1006700080E00E94C80981E00E94C8090E94F00140
:10068000C0E00BC048E16C2F80E00E94250948E1E2
:100690006C2F81E00E942509CF5FC83098F3C0E03D
:1006A0000CC0880F991F880F991FFC01E552FC4F61
:1006B000428180E00E942509CF5FC730C8F48C2FAB
:1006C00090E0FC01EE0FFF1FEE0FFF1FE552FC4F05
:1006D0006081683030F3880F991F880F991FFC01E3
:1006E000E552FC4F6850428181E00E942509E4CF29
:1006F00040914101486166E081E00E942509CF9167
:100700000895CF93C0E00BC048E16C2F80E00E94B9
:10071000250948E16C2F81E00E942509CF5FC83090
:1007200098F3C0E00CC0880F991F880F991FFC0137
:10073000E552FC4F428180E00E942509CF5FC7301F
:10074000C8F48C2F90E0FC01EE0FFF1FEE0FFF1F8F
:10075000E552FC4F6081683030F3880F991F880F95
:10076000991FFC01E552FC4F6850428181E00E94D4
:100770002509E4CF81E00E948E0940914101482B78
:1007800066E081E00E942509CF910895CF93C0E0F3
:100790000AC0EC2FF0E0E35FFE4F40816C2F80E059
:1007A0000E942509CF5FC830A0F3CF910895CF9361
:1007B000C0E00AC0EC2FF0E0EB5FFE4F40816C2FF1
:1007C00080E00E942509CF5FC830A0F3CF91089543
:1007D000CF93DF93C82FD92FC230D10501F1C33099
:1007E000D105A1F0CD2B59F00E947C0280919C0193
:1007F000813031F181E090E0DF91CF91089580E088
:100800000E94C80981E00E94C809EECF80919E0134
:10081000811120C00E94C6038C2F9D2FEDCF8091A7
:100820000E04813021F080919D01813071F481E0CE
:100830000E94C80980E00E94C80983E090E0DCCFF4
:100840000E94370382E090E0D7CF0E9481038C2F73
:100850009D2FD2CF0E94D7038C2F9D2FCDCF0F93EA
:100860001F93CF93DF9300D000D000D0CDB7DEB779
:1008700029833A834B835C8309811A812B812E83E0
:100880003C813D8329813A814B815C810E94A60B8A
:1008900069837A838B839C83602F712F8E819D81E6
:1008A00029813A814B815C81232B242B252B21F735
:1008B00026960FB6F894DEBF0FBECDBFDF91CF9165
:1008C0001F910F910895609300017093010180932F
:1008D00002019093030160939601709397018093B6
:1008E00098019093990108958BE0809381008DE7A2
:1008F00090E0909389008093880082E080936F005D
:100900001092850010928400809100019091010165
:10091000A0910201B09103018093960190939701F9
:10092000A0939801B09399018FB780688FBF089505
:1009300010928100089581E080939A0108951F929A
:100940000F920FB60F9211240BB60F922F933F9375
:100950004F935F936F937F938F939F93AF93BF93C7
:10096000EF93FF938091960190919701A091980148
:10097000B09199010197A109B109809396019093D3
:100980009701A0939801B0939901892B8A2B8B2B07
:1009900099F0FF91EF91BF91AF919F918F917F91CE
:1009A0006F915F914F913F912F910F900BBE0F90E0
:1009B0000FBE0F901F9018950E949B04809100011C
:1009C00090910101A0910201B091030180939601E1
:1009D00090939701A0939801B0939901DACF90E09A
:1009E00001C09F5F9730B8F4292F30E0F901EE0F76
:1009F000FF1FEE0FFF1FE552FC4F80818F5F80834A
:100A00008F3079F7220F331F220F331FF901E55280
:100A1000FC4F1082E6CF089580910904813029F0BF
:100A20009091C603923061F008959091C6039111A0
:100A3000F7CF82E08093410182E58093B603089569
:100A40008111F2CF80E4809341018CE48093B6035E
:100A5000EBCF80E011C0220F331F220F331FF901AB
:100A6000E552FC4F21819091B603291313C081E018
:100A700080930E0408958F5F873098F4282F30E01C
:100A8000F901EE0FFF1FEE0FFF1FE552FC4F9081A3
:100A90009E3009F390919D01913069F790930E0477
:100AA000EACF089520B130E02095309523703327A8
:100AB0008330910581F10CF58130910511F182307F
:100AC0009105B1F41092C8032130310539F022307C
:100AD0003105B1F440910E04413091F0822F8170C4
:100AE0008093090422702093C60383E090E0089568
:100AF000009731F481E090E008958430910581F011
:100B0000089510920E041092AD038CE48093B60306
:100B100082E090E00895232B99F784E090E0089517
:100B20000E940C050E9429050E94EF040E942905DD
:100B300080910E04813051F080919D01813019F037
:100B400082E090E0DDCF85E090E0089585E090E0E0
:100B5000089580910E04811104C080919C01813020
:100B600039F0609195018091F703681738F4089582
:100B7000809195018F5F80939501F3CF6093F70388
:100B800081E080939E0181E090E00E94AE0EEFCF65
:100B90001F93CF93DF93CDB7DEB7A0970FB6F8942E
:100BA000DEBF0FBECDBF162F8A3008F43FC01F92A4
:100BB0008F938CE591E09F938F93CE0101969F9345
:100BC0008F930E94D10B0F900F900F900F900F906A
:100BD0000F90BE016F5F7F4F81E00E94AE0181E107
:100BE0000E947F011A30A8F11F921F938FE591E0B8
:100BF0009F938F93CE0141969F938F930E94D10B29
:100C00000F900F900F900F900F900F90BE016F5E9E
:100C10007F4F81E10E94C901A0960FB6F894DEBF14
:100C20000FBECDBFDF91CF911F9108951F928F937B
:100C30008CE591E09F938F93CE0101969F938F93C4
:100C40000E94D10B0F900F900F900F900F900F906C
:100C5000C0CF1F921F938FE591E09F938F93CE019A
:100C600041969F938F930E94D10B0F900F900F90FE
:100C70000F900F900F90CACF81E090E00E94A60ED7
:100C80008F3F19F08093F70308951092F7030895AA
:100C9000CF93DF93C82FD92F80B180958370C23056
:100CA000D10591F15CF0C330D105C1F1C430D1055B
:100CB00099F4833009F448C08C2F51C0209709F46F
:100CC0004CC0C130D10531F480910401833031F042
:100CD0008C2F45C08C2F43C08C2F41C00E943C06F6
:100CE0006091F703662349F0609195018091F703C5
:100CF0000E94C80582E090E032C081E090E00E944E
:100D0000AE0E1092F703F0CF8150823010F08C2F8E
:100D100026C00E94A90583E090E021C0882359F0F5
:100D200080910E048130F1F080919D018130E9F0D5
:100D30008C2F9D2F14C0609195018091F7030E9424
:100D4000C805C2E0D0E0ECCF609195018091F70337
:100D50000E94C8058C2F9D2F02C081E090E0DF919A
:100D6000CF91089584E090E0FACF84E090E0F7CF4F
:100D70000F931F93CF93DF9300D000D00F92CDB786
:100D8000DEB71A821982FE01339683E0DF011D92DD
:100D90008A95E9F70E949F0A65E081E00E947C0B3A
:100DA00061E08AE691E00E946A0B8091CB031F927A
:100DB0008F9386E691E09F938F938E010F5F1F4F75
:100DC0001F930F930E94D10B6FE08DE00E947C0B6C
:100DD00064E0C8010E946A0B0E94810B0F900F9083
:100DE0000F900F900F900F900F900F900F900F900B
:100DF0000F90DF91CF911F910F91089520B1209511
:100E0000237082309105F1F024F08330910509F1CF
:100E10000895009709F455C08130910591F420910F
:100E200004012130A9F720910E042111F1CF8AE0AD
:100E30008093CB03109294010E94B80682E090E068
:100E4000089508952111E4CF209104012223E1F1B6
:100E50000895211120C020910E0421111CC0209161
:100E60009401263020F02091CB0321110AC020915B
:100E7000CB0321111BC081E080939D0184E090E0B1
:100E800015C021502093CB030E94B8061092940104
:100E900082E090E0ECCF8091CB0381110DC081E026
:100EA00080939D011092940184E090E02091940140
:100EB0002F5F2093940108951092940182E090E0B6
:100EC000F5CF81E090E0089583E090E0A1CF0E940B
:100ED0009F0A62E083E00E947C0B63E089E791E077
:100EE0000E946A0B0E94810B0895CDB7DEB7289748
:100EF0000FB6F894DEBF0FBECDBF11B88FEF82B929
:100F00008AB91BB887B918B884B915B80E94DA092C
:100F10000E9489010E94470A64E670E080E090E048
:100F20000E9463040E94740488E0E0E5F1E0DE01C1
:100F3000119601900D928A95E1F7EFE0F4E01082AE
:100F400084E690E0A0E0B0E081839283A383B48341
:100F500085839683A783B08728EE33E03287218785
:100F6000ECECF3E0108281839283A383B4838583C6
:100F70009683A783B08722E535E032872187E7EBA8
:100F8000F3E0108281839283A383B4838583968365
:100F9000A783B08728E436E032872187EEEFF3E0BD
:100FA000108281839283A383B48385839683A783EE
:100FB000B0878EEF96E09287818746C0F8018581E1
:100FC0009681A781B0858C599F4FAF4FBF4F8583C6
:100FD0009683A783B087F394F3E0FF1578F1EF2DA4
:100FE000F0E0EE0FFF1F81E090E08C0F9D1FE80FF7
:100FF000F91F00811181D80115964D915D916D9178
:101000007C91189711968D919D910D90BC91A02D7A
:10101000481759076A077B0788F2D8011996ED919E
:10102000FC911A978C91082E000C990B0995F801E8
:1010300080831582168217821086C0CF80919A0114
:101040008823E1F310929A01F12CC6CF98E007C0F3
:101050002BB12B7F2BB92BB128602BB99150992341
:10106000E9F0292F2150330BB90141E050E002C0D3
:10107000440F551F2A95E2F7282F30E0242335230B
:1010800002C0359527956A95E2F73BB1377F3BB9AA
:101090002223F1F22BB124602BB9DDCF08950F93F9
:1010A0001F93CF93DF93D82F062F142F823028F071
:1010B000DF91CF911F910F9108958BB18F7E8BB9E6
:1010C000CD2F07C080E00E94260880E00E942608FD
:1010D000CF5FCC23B9F3802F0E942608812F0E9476
:1010E0002608C0E0CD1720F08BB180618BB9E0CF2E
:1010F00080E00E94260880E00E942608CF5FF2CFA1
:10110000623008F00895462F6CE00E944F08FACF35
:10111000603108F00895462F6AE00E944F08FACF28
:10112000623008F00895462F6FE00E944F08FACF12
:10113000683008F00895462F6BE00E944F08FACF00
:10114000462F69E00E944F080895462FE82FF0E0EF
:10115000EE0FFF1FEE0FFF1FEE0FFF1FE156FE4FBA
:10116000608361E00E944F080895462FE82FF0E069
:10117000EE0FFF1FEE0FFF1FEE0FFF1FE156FE4F9A
:10118000618362E00E944F080895462FE82FF0E047
:10119000EE0FFF1FEE0FFF1FEE0FFF1FE156FE4F7A
:1011A000628363E00E944F080895462FE82FF0E025
:1011B000EE0FFF1FEE0FFF1FEE0FFF1FE156FE4F5A
:1011C000638364E00E944F080895462FE82FF0E003
:1011D000EE0FFF1FEE0FFF1FEE0FFF1FE156FE4F3A
:1011E000648365E00E944F080895462FE82FF0E0E1
:1011F000EE0FFF1FEE0FFF1FEE0FFF1FE156FE4F1A
:10120000658366E00E944F080895462FE82FF0E0BE
:10121000EE0FFF1FEE0FFF1FEE0FFF1FE156FE4FF9
:10122000668367E00E944F080895462FE82FF0E09C
:10123000EE0FFF1FEE0FFF1FEE0FFF1FE156FE4FD9
:10124000678368E00E944F080895E62F642FE83016
:10125000E0F4F0E0E753F14F0C94C80B0E94A508AE
:1012600008950E94B50808950E94C50808950E9437
:10127000D50808950E94E50808950E94F50808958C
:101280000E94050908950E9415090895E82FF0E0CD
:10129000EE0FFF1FEE0FFF1FEE0FFF1FE156FE4F79
:1012A00080810895E82FF0E0EE0FFF1FEE0FFF1F83
:1012B000EE0FFF1FE156FE4F81810895E82FF0E009
:1012C000EE0FFF1FEE0FFF1FEE0FFF1FE156FE4F49
:1012D00082810895E82FF0E0EE0FFF1FEE0FFF1F51
:1012E000EE0FFF1FE156FE4F83810895E82FF0E0D7
:1012F000EE0FFF1FEE0FFF1FEE0FFF1FE156FE4F19
:1013000084810895E82FF0E0EE0FFF1FEE0FFF1F1E
:10131000EE0FFF1FE156FE4F85810895E82FF0E0A4
:10132000EE0FFF1FEE0FFF1FEE0FFF1FE156FE4FE8
:1013300086810895E82FF0E0EE0FFF1FEE0FFF1FEC
:10134000EE0FFF1FE156FE4F878108956830F0F4DD
:10135000E62FF0E0EF52F14F0C94C80B0E944609C3
:1013600008950E94520908950E945E0908950E94FE
:101370006A0908950E94760908950E9482090895D5
:101380000E948E0908950E949A09089580E00895A8
:10139000CF93DF93D82F823050F4C0E006C040E0F6
:1013A0006C2F8D2F0E942509CF5FC830C0F3DF91CD
:1013B000CF910895CF938AB184608AB98AB1886049
:1013C0008AB98AB180618AB98BB18B7F8BB98BB1B5
:1013D000877F8BB98BB18F7E8BB9C0E004C08C2F17
:1013E0000E94C809CF5FC230D0F3C0E015C061E0F1
:1013F0008C2F0E94800860E08C2F0E94900860E093
:101400008C2F0E94A00862E08C2F0E94880867E061
:101410008C2F0E949808CF5FC23048F3CF91089577
:1014200095B19D7F95B9662329F095B1986095B9DE
:1014300090E00EC095B1977F95B9FACF25B12F7E78
:1014400025B925B1206225B925B12F7D25B99F5F2A
:10145000983088F447E050E0491B5109282F30E0CC
:1014600002C0359527954A95E2F720FFE7CF25B1D1
:10147000206125B9E6CF85B1826085B9089560E025
:101480000E94100A089561E00E94100A0895CF9307
:10149000DF9384B1826084B984B1846084B984B1FB
:1014A000886084B984B1806184B984B1806284B970
:1014B00085B1846085B985B1826085B983EC99E096
:1014C0000197F1F700C0000085B18B7F85B98BE5EE
:1014D00094E40197F1F700C0000085B1846085B9FC
:1014E00085B18D7F85B981E20E943F0A83E10E9428
:1014F0003F0A86E00E943F0A82EC0E943F0A80E297
:101500000E943F0A89E00E943F0A80E80E943F0A49
:1015100080E40E943F0AD0E0C0E0C83F91E0D907D4
:1015200028F480E00E94430A2196F7CF88E00E94C9
:101530003F0A8CE00E943F0ADF91CF91089580E836
:101540000E943F0A80E40E943F0A1092A703109273
:10155000A80390E080E0883F21E0920730F4FC018E
:10156000E155FE4F10820196F6CF0895882321F0B1
:1015700080E20E943F0A089584E2FBCF262F269541
:101580002695269590E034E5239F800D911D11242A
:10159000442379F0677021E030E002C0220F331F4E
:1015A0006A95E2F7FC01E155FE4F8081822B808332
:1015B0000895677021E030E002C0220F331F6A9562
:1015C000E2F7FC01E155FE4F20958081282320831E
:1015D0000895EF92FF920F931F93CF93DF93E82E1E
:1015E000F62E00E041C06091A8038091A703610F2F
:1015F00040E0800F0E94BE0A1F5FCE01880F991F36
:10160000880F991F880F991F8C1B9D0B181719069F
:1016100054F5EE2D0E2C000CFF0BB097802F6F2D84
:101620000E949A0B9F01220F331F220F331FE20FDC
:10163000F31FE80FF11DE457FF4FE491F0E0812F15
:101640000E949A0B02C0F595E7958A95E2F7E0FFB4
:10165000CACF6091A8038091A703610F41E0800F7A
:101660000E94BE0AC9CF0F5FCF2DD0E0CE01880FF8
:10167000991F880F991F8C0F9D1F0817190614F4C6
:1016800010E0BBCFE7EAF3E08F2D880F880F8F0DB6
:101690009081890F8F5F8083843568F01092A70353
:1016A000E8EAF3E08F2D880F880F880F8F1990815B
:1016B000890F8F5F80838091A803803320F0109280
:1016C000A7031092A803DF91CF911F910F91FF9074
:1016D000EF9008951F93CF93DF93C82FD92F162F24
:1016E0008881882329F02196612F0E94E90AF8CF8A
:1016F000DF91CF911F9108958093A7036093A80372
:101700000895CF93DF9380E80E943F0A80E40E940F
:101710003F0AD0E0C0E0C83F81E0D80740F4FE01B6
:10172000E155FE4F80810E94430A2196F4CFDF915C
:10173000CF910895991B79E004C0991F961708F07E
:10174000961B881F7A95C9F780950895A1E21A2EF5
:10175000AA1BBB1BFD010DC0AA1FBB1FEE1FFF1F55
:10176000A217B307E407F50720F0A21BB30BE40BA5
:10177000F50B661F771F881F991F1A9469F76095EC
:101780007095809590959B01AC01BD01CF010895A6
:10179000EE0FFF1F0024001C0BBE0790F691E02DFA
:1017A00009940F931F93CF93DF93CDB7DEB72E9796
:1017B0000FB6F894DEBF0FBECDBF0D891E8986E03F
:1017C0008C831A8309838FEF9FE79E838D83AE01FD
:1017D000475E5F4F6F89788DCE0101960E94010CA4
:1017E0002F813885020F131FF80110822E960FB635
:1017F000F894DEBF0FBECDBFDF91CF911F910F9147
:1018000008952F923F924F925F926F927F928F92A4
:101810009F92AF92BF92CF92DF92EF92FF920F937F
:101820001F93CF93DF93CDB7DEB72F970FB6F89402
:10183000DEBF0FBECDBF7C013B018A01DC011796E4
:101840001C921E92169713968C9181FFD8C19AE034
:10185000292EFE0131964F01D70113969C91F30179
:1018600093FD859193FF81913F01882309F448C13D
:10187000853239F493FD859193FF81913F01853243
:1018800029F4B70190E00E94180EE6CFB12C412C4C
:10189000512CBFE1B51538F08B3209F188F4803254
:1018A00001F1833221F157FC3AC020ED280F2A3094
:1018B00040F556FE1FC0B29C200D1124B22E06C06A
:1018C0008D3291F0803379F7689450F8F30193FDED
:1018D000859193FF81913F018111DBCF20C06894F6
:1018E00051F8689452F8F2CF689453F8EFCF6894A7
:1018F00054F8ECCF429C200D1124422E689455F8E8
:10190000E5CF8E3229F456FCFBC0689456F8DECF42
:101910008C3619F4689457F8D9CF8836B9F2982FD5
:101920009F7D95549330C0F08336A1F18337C1F188
:10193000833509F05BC0D801CD90DD908D016B2D12
:1019400070E056FC02C06FEF7FEFC6010E94020EEE
:101950005C01689457F80AC00C5F1F4FEFE3E983FE
:10196000AA24A394B12C6401E89457F853FC04C052
:101970004A141B0409F018F5342CA114B10431F5F4
:10198000332009F469CFB70180E290E00E94180E7D
:101990003A94F6CFD8018C9189830E5F1F4FE0CF28
:1019A000F801C190D1908F016B2D70E056FC02C000
:1019B0006FEF7FEFC6010E940D0E5C01D5CFB7011E
:1019C00080E290E00E94180E4A94D2CFF60157FCB4
:1019D000859157FE81916F01B70190E00E94180E2A
:1019E00031103A94B1E0AB1AB108C7CF843619F080
:1019F000893609F074C0F80157FE6AC0619171918F
:101A0000819191918F01E52DEF76DE2E97FF09C030
:101A100090958095709561957F4F8F4F9F4F6894FB
:101A2000D7F82AE030E0A4010E94480EC82EC8185A
:101A3000AC2C5D2CD6FE0CC0E89450F8CB1440F4CE
:101A4000D4FE05C0D2FC03C05D2D5E7E552EAB2CAE
:101A500054FEADC0FE01EC0DF11D8081803309F014
:101A60009FC0652D697E562E752D7870372E53FCDC
:101A7000ADC050FEA7C0BC2CA41418F44C0CB42C60
:101A8000BA1854FEA9C0B70180E390E00E94180E76
:101A900052FE09C088E790E051FE02C088E590E060
:101AA000B7010E94180ECB1408F4A2C0CA94D12C1E
:101AB0008FEFC81AD80AC80CD91CD6018E916D01B7
:101AC000B70190E00E94180E8C149D04B1F758CF16
:101AD00061917191072E000C880B990B93CFD52C37
:101AE000E894D4F82AE030E08537E1F1F52DF97F6C
:101AF000DF2E803751F100F5883551F18F3681F1B5
:101B0000F701868197812F960FB6F894DEBF0FBE3E
:101B1000CDBFDF91CF911F910F91FF90EF90DF909C
:101B2000CF90BF90AF909F908F907F906F905F907D
:101B30004F903F902F900895883711F7D4FE02C040
:101B40006894D2F820E130E00DC06894D4F8F6CF64
:101B500054FE03C02F2F2660D22E20E132E002C0B7
:101B600028E030E0F801D7FE15C041915191619114
:101B700071914C875D876E877F878F01A4016C858B
:101B80007D858E859F850E94480EC82EC818E894D2
:101B9000D7F84ECF81919191AC0170E060E0E9CF30
:101BA00052FC02C0A39460CFA394A3945DCF852D73
:101BB000867809F459CFF6CFB70180E290E00E9411
:101BC000180EA394A414C0F3312C5BCF342C3A1814
:101BD000A41408F456CFF8CF852D867809F463CF86
:101BE0008BE251FE80E257FC8DE2B70190E059CFC5
:101BF000B70180E390E00E94180EBA9454CF8FEFA3
:101C00009FEF81CFFC010590615070400110D8F723
:101C1000809590958E0F9F1F0895FC016150704034
:101C200001900110D8F7809590958E0F9F1F089511
:101C30000F931F93CF93DF93182F092FEB018B8105
:101C400081FD09C01FEF0FEF812F902FDF91CF9102
:101C50001F910F91089582FF14C02E813F818C81C6
:101C60009D81281739073CF4E881F981CF0101965D
:101C70009983888310838E819F8101969F838E83B1
:101C8000E3CFE885F985812F0995892BA1F3DACF78
:101C9000FA01AA27283051F1203181F1E8946F939D
:101CA0006E7F6E5F7F4F8F4F9F4FAF4FB1E03ED043
:101CB000B4E03CD0670F781F891F9A1FA11D680FE1
:101CC000791F8A1F911DA11D6A0F711D811D911D14
:101CD000A11D20D009F468943F912AE0269F112489
:101CE0003019305D3193DEF6CF010895462F4770ED
:101CF000405D4193B3E00FD0C9F7F6CF462F4F7048
:101D0000405D4A3318F0495D31FD4052419302D0A5
:101D1000A9F7EACFB4E0A69597958795779567954B
:101D2000BA95C9F700976105710508959B01AC014B
:101D30000A2E06945795479537952795BA95C9F772
:101D4000620F731F841F951FA01D0895F999FECF80
:101D500092BD81BDF89A992780B50895262FF999EB
:101D6000FECF92BD81BDF89A019700B4021639F0FA
:101D70001FBA20BD0FB6F894FA9AF99A0FBE0895CB
:101D8000F894FFCF2B031003F202D402B60298029C
:101D900087022E093109340937093A093D094009FA
:101DA0004309AE09B109B409B709BA09BD09C009A7
:021DB000C30965
:101DB20001000000063C42A581A599423C3C42A597
:101DC2008199A5423C001818381818187E003C6604
:101DD200060C30607E003C66061C0C663C000C1C47
:101DE2002C4C7E0C0C007C607E0606663C18781E2D
:101DF20000400000000200000000DE0100000000C0
:101E02000F04CC03B703FE03181E78183E4869205E
:101E120053636F72653A2025640054494D45205240
:101E2200454D41494E494E47005052455353205269
:101E320045535441525420544F2054525920414743
:041E420041494E00C4
:00000001FF
