:100000000C9446000C9465000C9465000C946500FB
:100010000C9465000C9465000C9465000C946500CC
:100020000C9465000C9465000C9465000C946500BC
:100030000C9465000C9407030C9465000C94650007
:100040000C9465000C9465000C9465000C9465009C
:100050000C9465000C9465000C9465000C9465008C
:100060000C9465000C9465000C9465000C9465007C
:100070000C9465000C9465000C9465000C9465006C
:100080000C9465000C9465000C94650011241FBE4F
:10009000CFEFD0E4DEBFCDBF11E0A0E0B1E0E8E7F4
:1000A000FDE000E00BBF02C007900D92AC34B10739
:1000B000D9F721E0ACE4B1E001C01D92A13CB20748
:1000C000E1F70E9406040C94A3060C940000CF9361
:1000D000C82F8A3051F09091C00095FFFCCFC0939B
:1000E000C60090E080E0CF9108958DE00E94670007
:1000F000F2CFE5EAF1E010829CE4918388E7828305
:100100001382E8E6F1E022E0208342E541833EE10C
:1001100032831382ECEAF1E024E0208341833283CE
:100120001382E1E7F1E026E020839183828313824A
:10013000E5E8F1E028E020839183828321E02383B6
:10014000EDEBF1E05AE05083418332832383ECE608
:10015000F1E03CE03083918382832383E9E8F1E09E
:100160008091A5019091A601A091A701B091A8014D
:1001700080839183A283B383809168019091690108
:10018000A0916A01B0916B0184839583A683B783A4
:100190008091AC019091AD01A091AE01B091AF0101
:1001A00080879187A287B3878091710190917201B6
:1001B000A0917301B091740184879587A687B78752
:1001C0008091850190918601A0918701B09188016D
:1001D000808B918BA28BB38B8091BD019091BE01DE
:1001E000A091BF01B091C001848B958BA68BB78B7A
:1001F00080916C0190916D01A0916E01B0916F01A1
:10020000808F918FA28FB38F0895CF938091040137
:10021000873088F4E82FF0E0EB55F94F0C949A06FC
:100220001092520190915101963038F08150809394
:10023000040110925101CF9108959F5F9093510155
:10024000FACF809151018630C0F48F5F80935101C5
:10025000F2CFEC2FF0E0E35DFE4F40816C2F80E0A9
:100260000E948D05CF5FC830A0F3809104018150BA
:100270008093040110925101DECFC0E0F4CF809151
:1002800051018630C0F48F5F80935101D4CFEC2FA1
:10029000F0E0EB5DFE4F40816C2F80E00E948D0509
:1002A000CF5FC830A0F38091040181508093040196
:1002B00010925101C0CFC0E0F4CF8091510186303F
:1002C000C0F48F5F80935101B6CFEC2FF0E0E35E76
:1002D000FE4F40816C2F80E00E948D05CF5FC830BB
:1002E000A0F3809104018150809304011092510188
:1002F000A2CFC0E0F4CF809151018630C0F48F5F6F
:100300008093510198CFEC2FF0E0EB5EFE4F4081DF
:100310006C2F80E00E948D05CF5FC830A0F38091E4
:1003200004018150809304011092510184CFC0E0F8
:10033000F4CF809151018630A8F48F5F80935101F2
:100340007ACFEC2FF0E0E35FFE4F40816C2F80E02E
:100350000E948D05CF5FC830A0F310920401109267
:10036000510169CFC0E0F7CF80915101863020F074
:1003700081E0809352015FCF8F5F809351015BCF0B
:10038000CF9380E00E94300681E00E9430060E94F8
:100390007900C0E00BC048E16C2F80E00E948D0521
:1003A00048E16C2F81E00E948D05CF5FC83098F343
:1003B000C0E00CC0880F991F880F991FFC01E757F8
:1003C000FE4F428180E00E948D05CF5FC730C8F4A8
:1003D0008C2F90E0FC01EE0FFF1FEE0FFF1FE75781
:1003E000FE4F6081683030F3880F991F880F991F86
:1003F000FC01E757FE4F6850428181E00E948D0565
:10040000E4CF40913901486166E081E00E948D05AA
:10041000CF910895CF93C0E00BC048E16C2F80E0EE
:100420000E948D0548E16C2F81E00E948D05CF5F11
:10043000C83098F3C0E00CC0880F991F880F991F2F
:10044000FC01E757FE4F428180E00E948D05CF5F9F
:10045000C730C8F48C2F90E0FC01EE0FFF1FEE0FA9
:10046000FF1FE757FE4F6081683030F3880F991FF8
:10047000880F991FFC01E757FE4F6850428181E0C9
:100480000E948D05E4CF81E00E94F605409139017C
:10049000482B66E081E00E948D05CF910895CF93AF
:1004A000C0E00AC0EC2FF0E0EB5FFE4F40816C2F04
:1004B00080E00E948D05CF5FC830A0F3CF910895F2
:1004C000CF93DF93C82FD92FC230D105B9F0C330F5
:1004D000D10519F1CD2B59F00E94050180915201EF
:1004E000813001F181E090E0DF91CF91089580E0CB
:1004F0000E94300681E00E943006EECF8091B0016C
:10050000813029F00E940A028C2F9D2FEDCF81E0CF
:100510000E94300680E00E9430060E944F0283E075
:1005200090E0E2CF0E94C00182E090E0DDCF0F9327
:100530001F93CF93DF9300D000D000D0CDB7DEB7AC
:1005400029833A834B835C8309811A812B812E8313
:100550003C813D8329813A814B815C810E947806F0
:1005600069837A838B839C83602F712F8E819D8119
:1005700029813A814B815C81232B242B252B21F768
:1005800026960FB6F894DEBF0FBECDBFDF91CF9198
:100590001F910F9108956093000170930101809362
:1005A00002019093030160934C0170934D0180937D
:1005B0004E0190934F0108958BE0809381008DE769
:1005C00090E0909389008093880082E080936F0090
:1005D0001092850010928400809100019091010199
:1005E000A0910201B091030180934C0190934D01C1
:1005F000A0934E01B0934F018FB780688FBF0895CD
:1006000010928100089581E08093500108951F9217
:100610000F920FB60F9211240BB60F922F933F93A8
:100620004F935F936F937F938F939F93AF93BF93FA
:10063000EF93FF9380914C0190914D01A0914E0159
:10064000B0914F010197A109B10980934C0190939A
:100650004D01A0934E01B0934F01892B8A2B8B2B18
:1006600099F0FF91EF91BF91AF919F918F917F9101
:100670006F915F914F913F912F910F900BBE0F9013
:100680000FBE0F901F9018950E94030380910001E8
:1006900090910101A0910201B091030180934C015E
:1006A00090934D01A0934E01B0934F01DACF90E0AB
:1006B00001C09F5F9730B8F4292F30E0F901EE0FA9
:1006C000FF1FEE0FFF1FE757FE4F80818F5F808374
:1006D0008F3079F7220F331F220F331FF901E757AD
:1006E000FE4F1082E6CF08958091AB01813029F052
:1006F00090917501923061F008959091750191117A
:10070000F7CF82E08093390182E5809370010895EC
:100710008111F2CF80E4809339018CE480937001E1
:10072000EBCF80E001C08F5F8730E0F4282F30E00E
:10073000F901EE0FFF1FEE0FFF1FE757FE4F9081ED
:100740009E3089F7220F331F220F331FF901E7571D
:10075000FE4F2181909170012913E5CF91E0909394
:10076000B001E1CF0895282F392F80B190E0809516
:100770009095837099272230310541F18CF0233018
:100780003105C9F124303105F1F40E9474030E944F
:1007900091030E9457030E94910382E090E0089524
:1007A0002115310569F12130310551F41092B00164
:1007B000109267018CE48093700182E090E00895CC
:1007C000822F932F0895822F932F089510927701EF
:1007D000AC01415051094230510518F0822F932F3E
:1007E0000895982F91709093AB018270809375015A
:1007F00083E090E00895892B31F484E090E008953F
:1008000081E090E00895822F932F089500D000D0CA
:10081000CDB7DEB711B88FEF82B98AB91BB80E9485
:10082000420668EC70E080E090E00E94CB020E94FB
:10083000DC02A1EBB1E0BA83A983EAE7F1E0FC8333
:10084000EB831C9248EC50E060E070E011964D9311
:100850005D936D937C93149715964D935D936D9373
:100860007C93189780E692E01A969C938E93199742
:1008700010824183528363837483458356836783E5
:10088000708783EB93E09287818746C0F80185816A
:100890009681A781B08588539F4FAF4FBF4F858307
:1008A0009683A783B087F394F1E0FF1578F1EF2DDD
:1008B000F0E0EE0FFF1F81E090E08C0F9D1FE80F2E
:1008C000F91F00811181D80115964D915D916D91AF
:1008D0007C91189711968D919D910D90BC91A02DB2
:1008E000481759076A077B0788F2D8011996ED91D6
:1008F000FC911A978C91082E000C990B0995F80120
:1009000080831582168217821086C0CF8091500195
:100910008823E1F310925001F12CC6CF98E007C074
:100920002BB12B7F2BB92BB128602BB99150992378
:10093000E9F0292F2150330BB90141E050E002C00A
:10094000440F551F2A95E2F7282F30E02423352342
:1009500002C0359527956A95E2F73BB1377F3BB9E1
:100960002223F1F22BB124602BB9DDCF08950F9330
:100970001F93CF93DF93D82F062F142F823028F0A8
:10098000DF91CF911F910F9108958BB18F7E8BB91D
:10099000CD2F07C080E00E948E0480E00E948E046C
:1009A000CF5FCC23B9F3802F0E948E04812F0E9449
:1009B0008E04C0E0CD1720F08BB180618BB9E0CF01
:1009C00080E00E948E0480E00E948E04CF5FF2CF10
:1009D000623008F00895462F6CE00E94B704FACF09
:1009E000603108F00895462F6AE00E94B704FACFFC
:1009F000623008F00895462F6FE00E94B704FACFE6
:100A0000683008F00895462F6BE00E94B704FACFD3
:100A1000462F69E00E94B7040895462FE82FF0E0C2
:100A2000EE0FFF1FEE0FFF1FEE0FFF1FED5AFE4FE1
:100A3000608361E00E94B7040895462FE82FF0E03C
:100A4000EE0FFF1FEE0FFF1FEE0FFF1FED5AFE4FC1
:100A5000618362E00E94B7040895462FE82FF0E01A
:100A6000EE0FFF1FEE0FFF1FEE0FFF1FED5AFE4FA1
:100A7000628363E00E94B7040895462FE82FF0E0F8
:100A8000EE0FFF1FEE0FFF1FEE0FFF1FED5AFE4F81
:100A9000638364E00E94B7040895462FE82FF0E0D6
:100AA000EE0FFF1FEE0FFF1FEE0FFF1FED5AFE4F61
:100AB000648365E00E94B7040895462FE82FF0E0B4
:100AC000EE0FFF1FEE0FFF1FEE0FFF1FED5AFE4F41
:100AD000658366E00E94B7040895462FE82FF0E092
:100AE000EE0FFF1FEE0FFF1FEE0FFF1FED5AFE4F21
:100AF000668367E00E94B7040895462FE82FF0E070
:100B0000EE0FFF1FEE0FFF1FEE0FFF1FED5AFE4F00
:100B1000678368E00E94B7040895E62F642FE830E9
:100B2000E0F4F0E0E455F94F0C949A060E940D05AC
:100B300008950E941D0508950E942D0508950E94A4
:100B40003D0508950E944D0508950E945D05089594
:100B50000E946D0508950E947D050895E82FF0E03C
:100B6000EE0FFF1FEE0FFF1FEE0FFF1FED5AFE4FA0
:100B700080810895E82FF0E0EE0FFF1FEE0FFF1FBA
:100B8000EE0FFF1FED5AFE4F81810895E82FF0E030
:100B9000EE0FFF1FEE0FFF1FEE0FFF1FED5AFE4F70
:100BA00082810895E82FF0E0EE0FFF1FEE0FFF1F88
:100BB000EE0FFF1FED5AFE4F83810895E82FF0E0FE
:100BC000EE0FFF1FEE0FFF1FEE0FFF1FED5AFE4F40
:100BD00084810895E82FF0E0EE0FFF1FEE0FFF1F56
:100BE000EE0FFF1FED5AFE4F85810895E82FF0E0CC
:100BF000EE0FFF1FEE0FFF1FEE0FFF1FED5AFE4F10
:100C000086810895E82FF0E0EE0FFF1FEE0FFF1F23
:100C1000EE0FFF1FED5AFE4F878108956830F0F404
:100C2000E62FF0E0EC54F94F0C949A060E94AE05C2
:100C300008950E94BA0508950E94C60508950E946D
:100C4000D20508950E94DE0508950E94EA050895E0
:100C50000E94F60508950E940206089580E0089516
:100C6000CF93DF93D82F823050F4C0E006C040E02D
:100C70006C2F8D2F0E948D05CF5FC830C0F3DF91A0
:100C8000CF910895CF938AB184608AB98AB1886080
:100C90008AB98AB180618AB98BB18B7F8BB98BB1EC
:100CA000877F8BB98BB18F7E8BB9C0E004C08C2F4E
:100CB0000E943006CF5FC230D0F3C0E015C061E0C3
:100CC0008C2F0E94E80460E08C2F0E94F80460E002
:100CD0008C2F0E94080562E08C2F0E94F00467E0D0
:100CE0008C2F0E940005CF5FC23048F3CF9108954A
:100CF000A1E21A2EAA1BBB1BFD010DC0AA1FBB1F20
:100D0000EE1FFF1FA217B307E407F50720F0A21B91
:100D1000B30BE40BF50B661F771F881F991F1A94FE
:100D200069F760957095809590959B01AC01BD0128
:100D3000CF010895EE0FFF1F0024001C0BBE07908B
:100D4000F691E02D0994F894FFCFB40199017B014D
:100D50005D013F0121011001960599059C059F0544
:100D6000A205A505A805AB05160619061C061F0653
:080D70002206250628062B06C9
:100D780001000000063C42A58199A5423C001818D4
:100D8800381818187E003C66060C30607E003C66F9
:100D9800061C0C663C000C1C2C4C7E0C0C007C6069
:100DA8007E0606663C18781E00400000000200001F
:0C0DB8000000670000000000181E781802
:00000001FF
