:100000000C9436010C9455010C9455010C94550137
:100010000C9455010C9455010C9455010C94550108
:100020000C9455010C9455010C9455010C945501F8
:100030000C9455010C9439050C9455010C94550100
:100040000C9455010C9455010C9455010C945501D8
:100050000C9455010C9455010C9455010C945501C8
:100060000C9455010C9455010C9455010C945501B8
:100070000C9455010C9455010C9455010C945501A8
:100080000C9455010C9455010C945501000000008E
:100090000000005F00000007000700147F147F14B9
:1000A000242A7F2A122313086462364955225000FD
:1000B00005030000001C2241000041221C0014081E
:1000C0003E081408083E08080050300000080808E0
:1000D0000808006060000020100804023E514945F5
:1000E0003E00427F400042615149462141454B312B
:1000F0001814127F1027454545393C4A49493001BB
:10010000710905033649494936064949291E003611
:100110003600000056360000081422410014141462
:100120001414004122140802015109063249794190
:100130003E7E1111117E7F494949363E414141229F
:100140007F4141221C7F494949417F090909013EFC
:100150004149497A7F0808087F00417F41002040DB
:10016000413F017F081422417F404040407F020C04
:10017000027F7F0408107F3E4141413E7F0909090B
:10018000063E4151215E7F091929464649494931B8
:1001900001017F01013F4040403F1F2040201F3FA1
:1001A0004038403F63140814630708700807615122
:1001B000494543007F4141000204081020004141AD
:1001C0007F0004020102044040404040000102045C
:1001D0000020545454787F484444383844444420E0
:1001E000384444487F3854545418087E0901020C9E
:1001F0005252523E7F0804047800447D4000204063
:10020000443D007F1028440000417F40007C0418DA
:1002100004787C0804047838444444387C1414146A
:1002200008081414187C7C0804040848545454200A
:10023000043F4440203C4040207C1C2040201C3C8B
:100240004030403C44281028440C5050503C4464FA
:10025000544C44000836410000007F000000413645
:1002600008001008081008000000000011241FBE3C
:10027000CFEFD0E4DEBFCDBF12E0A0E0B1E0E0E917
:10028000F1E200E00BBF02C007900D92AC31B10764
:10029000D9F724E0ACE1B2E001C01D92AB3BB2075C
:1002A000E1F70E9455090C94AF100C940000482F00
:1002B000592F30E020E002C02F5F3F4F2417350751
:1002C0004CF490E080E0873063E09607ACF70000E4
:1002D0000196F9CF08959BB19F7B9BB988B98BB1EB
:1002E00080688BB900008BB18F778BB982E090E08A
:1002F0000E945701089581E00E946B0108958131A9
:1003000020F481580E946B01089581550E946B0171
:10031000089584E690E00E94570188E30E946B01F3
:1003200086E00E946B018FE00E946B0181E00E94D9
:100330006B018AE090E00E94570108959BB19064A0
:100340009BB988B98BB180688BB900008BB18F776E
:100350008BB981E090E00E94570108950F931F939D
:10036000CF93DF93182FC62FD72F0E947B01888150
:10037000882351F001E0010F812F0E947F018991B4
:100380000E949E01102FF3CFDF91CF911F910F910B
:1003900008951F93CF93DF93C62FD72F988199236A
:1003A00049F011E0180F0E947F0189910E949E017F
:1003B000812FF4CFDF91CF911F910895CF93C82F54
:1003C0008A3051F09091C00095FFFCCFC093C600D9
:1003D00090E080E0CF9108958DE00E94DE01F2CFA1
:1003E00020B1209527708230910569F17CF4009747
:1003F000E9F18130910549F42430A1F030915404A1
:10040000313081F01092B20408950895833091053F
:1004100041F4243069F581E08093540481E090E058
:1004200008950895243039F020915404213019F0B2
:100430001092B204089581E08093B20410925404A3
:1004400082E090E008952091A604211104C030912B
:100450002602332369F0213021F020912602213039
:1004600039F41092B20483E090E0089581E090E0C6
:100470000895E5E8F4E010829CE4918388E78283A4
:100480001382E9E3F4E022E0208342E541833EE188
:1004900032831382E7E9F4E024E02083418332834E
:1004A0001382EDE4F4E026E02083918382831382BB
:1004B000E4E6F4E028E020839183828321E0238333
:1004C000E5EBF4E05AE05083418332832383EDE38C
:1004D000F4E03CE0308391838283238380E4809343
:1004E0004101E8E6F4E08091850490918604A091B2
:1004F0008704B091880480839183A283B383809121
:10050000390490913A04A0913B04B0913C04848357
:100510009583A683B7838091970490919804A091C6
:100520009904B0919A0480879187A287B3878091BC
:100530004D0490914E04A0914F04B09150048487D3
:100540009587A687B7878091640490916504A091F0
:100550006604B0916704808B918BA28BB38B8091E2
:10056000B5049091B604A091B704B091B804848BFF
:10057000958BA68BB78B80913D0490913E04A09102
:100580003F04B0914004808F918FA28FB38F089564
:10059000CF9380910401873088F4E82FF0E0EF5486
:1005A000FF4E0C94B70D10922502909124029930C1
:1005B00038F081508093040110922402CF91089565
:1005C0009F5F90932402FACF809124028930C0F477
:1005D0008F5F80932402F2CFEC2FF0E0EB5CFE4FB4
:1005E00040816C2F80E00E94140BCF5FC830A0F3D5
:1005F0008091040181508093040110922402DECF87
:10060000C0E0F4CF809124028930C0F48F5F8093E2
:100610002402D4CFEC2FF0E0E35DFE4F40816C2F3D
:1006200080E00E94140BCF5FC830A0F380910401DA
:1006300081508093040110922402C0CFC0E0F4CF17
:10064000809124028930C0F48F5F80932402B6CF5A
:10065000EC2FF0E0EB5DFE4F40816C2F80E00E94BC
:10066000140BCF5FC830A0F38091040181508093B8
:10067000040110922402A2CFC0E0F4CF80912402A2
:100680008930C0F48F5F8093240298CFEC2FF0E084
:10069000E35EFE4F40816C2F80E00E94140BCF5F21
:1006A000C830A0F38091040181508093040110921E
:1006B000240284CFC0E0F4CF809124028930A8F4D2
:1006C0008F5F809324027ACFEC2FF0E0EB5EFE4F39
:1006D00040816C2F80E00E94140BCF5FC830A0F3E4
:1006E000109204011092240269CFC0E0F7CF8091EC
:1006F0002402893020F081E0809325025FCF8F5F54
:10070000809324025BCFCF9380E00E94B70B81E0FF
:100710000E94B70B0E943902C0E00BC048E16C2F69
:1007200080E00E94140B48E16C2F81E00E94140BC2
:10073000CF5FC83098F3C0E00CC0880F991F880FB6
:10074000991FFC01E859FB4F428180E00E94140B85
:10075000CF5FC730C8F48C2F90E0FC01EE0FFF1F75
:10076000EE0FFF1FE859FB4F6081683030F3880FB0
:10077000991F880F991FFC01E859FB4F685042816F
:1007800081E00E94140BE4CF40914101486166E092
:1007900081E00E94140BCF910895CF93C0E00BC06D
:1007A00048E16C2F80E00E94140B48E16C2F81E03F
:1007B0000E94140BCF5FC83098F3C0E00CC0880FC4
:1007C000991F880F991FFC01E859FB4F428180E077
:1007D0000E94140BCF5FC730C8F48C2F90E0FC014F
:1007E000EE0FFF1FEE0FFF1FE859FB4F60816830CF
:1007F00030F3880F991F880F991FFC01E859FB4FB0
:100800006850428181E00E94140BE4CF81E00E9495
:100810007D0B40914101482B66E081E00E94140B62
:10082000CF910895CF93C0E00AC0EC2FF0E0E35FD2
:10083000FE4F40816C2F80E00E94140BCF5FC830C8
:10084000A0F3CF910895CF93C0E00AC0EC2FF0E061
:10085000EB5FFE4F40816C2F80E00E94140BCF5F56
:10086000C830A0F3CF910895CF93DF93C82FD92F2D
:10087000C230D105F1F1DCF0C330D10509F456C026
:10088000C430D10561F580912902882309F46CC038
:100890000E9423048091B204813009F45DC08091EC
:1008A0005404813009F458C084E090E015C02097CA
:1008B00049F0C130D10599F480E00E94B70B81E086
:1008C0000E94B70B8091B204813031F180915404C1
:1008D000813011F181E090E0DF91CF910895C33034
:1008E000D10521F194F4C130D10561F3C230D105B5
:1008F00049F40E94C80280912502813091F08C2F2A
:100900009D2FEACF8C2F9D2FE7CFC430D10509F45E
:10091000BACF8C2F9D2FE0CF1092250282E090E07D
:10092000DBCF0E94830383E090E0D6CF8091A604C2
:10093000813021F080912602813049F481E00E94CB
:10094000B70B80E00E94B70B84E090E0C5CF0E9417
:10095000CD0383E090E0C0CF86E080930401109245
:10096000240280E090E0B8CF0E9412048091B2048B
:10097000813039F080915404813019F084E090E0A6
:10098000ABCF86E0809304011092240280E090E0D7
:10099000A3CF0F931F93CF93DF9300D000D000D04D
:1009A000CDB7DEB729833A834B835C8309811A81F3
:1009B0002B812E833C813D8329813A814B815C814F
:1009C0000E94950D69837A838B839C83602F712F9E
:1009D0008E819D8129813A814B815C81232B242B3F
:1009E000252B21F726960FB6F894DEBF0FBECDBF9C
:1009F000DF91CF911F910F91089560930001709343
:100A00000101809302019093030160931F02709390
:100A10002002809321029093220208958BE080931C
:100A200081008DE790E0909389008093880082E0B8
:100A300080936F00109285001092840080910001D5
:100A400090910101A0910201B091030180931F02D6
:100A500090932002A0932102B09322028FB7806866
:100A60008FBF089510928100089581E08093230242
:100A700008951F920F920FB60F9211240BB60F928A
:100A80002F933F934F935F936F937F938F939F9396
:100A9000AF93BF93EF93FF9380911F029091200239
:100AA000A0912102B09122020197A109B10980937E
:100AB0001F0290932002A0932102B0932202892B5F
:100AC0008A2B8B2B99F0FF91EF91BF91AF919F9162
:100AD0008F917F916F915F914F913F912F910F90E7
:100AE0000BBE0F900FBE0F901F9018950E943505FA
:100AF0008091000190910101A0910201B091030148
:100B000080931F0290932002A0932102B0932202AF
:100B1000DACF90E001C09F5F9730B8F4292F30E022
:100B2000F901EE0FFF1FEE0FFF1FE859FB4F808109
:100B30008F5F80838F3079F7220F331F220F331F8F
:100B4000F901E859FB4F1082E6CF08958091960491
:100B5000813029F090915104923061F00895909184
:100B600051049111F7CF82E08093410182E5809397
:100B7000410408958111F2CF80E4809341018CE417
:100B800080934104EBCF80E005C090912602913024
:100B9000F9F08F5F873000F5282F30E0F901EE0F74
:100BA000FF1FEE0FFF1FE859FB4F90819E3069F742
:100BB000220F331F220F331FF901E859FB4F218108
:100BC000909141042913E1CF81E08093A604089518
:100BD00081E08093A6040895089520B130E0209527
:100BE0003095237033278330910509F44CC00CF500
:100BF0008130910591F182309105B1F41092550444
:100C00002130310539F02230310579F54091A604C3
:100C1000413059F1822F8170809396042270209385
:100C2000510483E090E008950097F9F481E090E0AA
:100C300008958430910561F18530910569F4209122
:100C4000B204213021F020915404213071F410922B
:100C5000A60481E090E0089508952091B204213027
:100C600029F020915404213009F008951092A6042F
:100C70001092380480E4809341018CE48093410415
:100C800082E090E00895232B81F784E090E00895BE
:100C90000E94A6050E94C3050E9489050E94C30503
:100CA0008091A604813051F080912602813019F0A4
:100CB00082E090E0DACF85E090E0089585E090E072
:100CC00008958091A604811108C0809126028111A7
:100CD00004C080912502813049F060911E0280910C
:100CE0008404681748F410922902089580911E0226
:100CF0008F5F80931E02F1CF6093840481E0809324
:100D0000290281E090E00E949D10089580912702C1
:100D1000813009F008951092840460E081E090E051
:100D20000E949D1010922702F5CF1F93CF93DF935F
:100D3000CDB7DEB7A0970FB6F894DEBF0FBECDBF1C
:100D4000162F8A3008F43FC01F928F938EE591E0F2
:100D50009F938F93CE0101969F938F930E94C00D16
:100D60000F900F900F900F900F900F90BE016F5F3C
:100D70007F4F81E00E94AE0181E10E947F011A3025
:100D8000A8F11F921F9381E691E09F938F93CE016C
:100D900041969F938F930E94C00D0F900F900F90DC
:100DA0000F900F900F90BE016F5E7F4F81E10E9408
:100DB000C901A0960FB6F894DEBF0FBECDBFDF917C
:100DC000CF911F9108951F928F938EE591E09F938D
:100DD0008F93CE0101969F938F930E94C00D0F9029
:100DE0000F900F900F900F900F90C0CF1F921F93F6
:100DF00081E691E09F938F93CE0141969F938F93CD
:100E00000E94C00D0F900F900F900F900F900F90B9
:100E1000CACF6CE671E081E00E94AE016DE771E03F
:100E200081E10E94C90108956CE671E081E00E94B1
:100E3000AE016BE871E081E10E94C901089581E093
:100E400090E00E9495108F3F19F0809384040895DC
:100E5000109284040895CF93DF93C82FD92F80B1C7
:100E600080958F70C330D10509F464C0F4F4C130AB
:100E7000D105E9F1C230D10581F48150823008F406
:100E800054C08091A604813009F4B6C08091260236
:100E9000813039F4C4E0D0E004C0209711F4C1E0FF
:100EA000D0E0CE01DF91CF910895C430D10509F48F
:100EB00059C0C530D105A9F7813009F474C082301A
:100EC00009F476C0883009F479C0883009F487C005
:100ED0008091B204813021F080915404813009F76F
:100EE00010921E0210922702D0E0C0E0DACF80916B
:100EF0000401853019F010921E02D3CF0E941F0703
:100F000060918404662351F010921E0260E080918B
:100F100084040E949506C2E0D0E0C3CF81E090E057
:100F20000E949D1010928404EFCF0E946106C3E0DE
:100F3000D0E0B7CF882369F08091A604813009F40E
:100F40005EC080912602813009F0ABCFC4E0D0E0D2
:100F5000A8CF60911E02809184040E949506C2E091
:100F6000D0E0EACF9091B2049130C1F09091540456
:100F70009130A1F09091A604913029F09091260231
:100F8000913009F08ECF883009F08BCF0E94140782
:100F900081E080932702C5E0D0E083CF10921E024B
:100FA000D0E0C0E07ECF0E9409071092270279CFDF
:100FB0000E94140781E08093270273CF909127024B
:100FC000913009F082CF0E94860610921E0260E0E6
:100FD000809184040E949506C4E0D0E062CF8091A5
:100FE0002702811175CF60911E02809184040E94B6
:100FF0009506C4E0D0E055CFC4E0D0E052CFC4E0C5
:10100000D0E04FCF0F931F93CF93DF9300D000D04A
:101010000F92CDB7DEB71A821982FE01339683E0B4
:10102000DF011D928A95E9F70E948E0C65E081E050
:101030000E946B0D61E089E991E00E94590D809159
:1010400058041F928F9388E691E09F938F938E01AF
:101050000F5F1F4F1F930F930E94C00D6FE08DE035
:101060000E946B0D64E0C8010E94590D0E94700D32
:101070000F900F900F900F900F900F900F900F9078
:101080000F900F900F90DF91CF911F910F910895C6
:101090000E948E0C60E080E00E946B0D61E088EAA7
:1010A00091E00E94590D68E080E00E946B0D61E0C4
:1010B00086EB91E00E94590D60E181E00E946B0D8A
:1010C00061E084EC91E00E94590D68E181E00E94AA
:1010D0006B0D61E081ED91E00E94590D60E281E0CD
:1010E0000E946B0D61E08FED91E00E94590D68E266
:1010F00081E00E946B0D61E08EEE91E00E94590D3F
:101100000E94700D08950E948E0C62E080E00E94A3
:101110006B0D61E089EF91E00E94590D6CE080E079
:101120000E946B0D61E088E092E00E94590D69E138
:1011300083E00E946B0D62E084E192E00E94590D11
:101140000E94700D0895CF93DF93C82FD92F80B1DF
:1011500080958370C230D105D1F1C4F0C330D10580
:1011600009F44AC0C430D10531F58091B204813010
:1011700029F080915404813009F087C01092260232
:101180008AE08093580481E090E086C0209709F4BB
:1011900081C0C130D10569F480910401833021F40C
:1011A0008091A604882349F00E9448088C2F9D2F27
:1011B00073C08C2F71C08C2F6FC08AE0809358044D
:1011C00010921D020E94020882E090E065C0811129
:1011D00005C090910401992309F461C081508230C7
:1011E00008F460C08091A604813019F08C2F9D2FE7
:1011F00053C084E090E050C0811120C08091A604CB
:1012000081111CC080911D02863020F0809158040D
:1012100081110AC08091580481112EC081E0809311
:10122000260284E090E015C08150809358040E940B
:10123000020810921D02C2E0D0E0ECCF8091580469
:1012400081110DC081E08093260210921D0284E07E
:1012500090E020911D022F5F20931D021DC0809100
:10126000A604813061F080912602813059F01092FD
:101270001D0282E090E0EDCF8C2F9D2FEACF84E01D
:1012800090E0E7CF84E090E0E4CF0E9483088C2FC9
:101290009D2F02C081E090E0DF91CF91089583E01F
:1012A00090E0FACF8C2F9D2FF7CFCDB7DEB72A97DE
:1012B0000FB6F894DEBF0FBECDBF11B88FEF82B965
:1012C0008AB91BB887B918B884B915B80E94C90B78
:1012D0000E9489010E94360C64E670E080E090E094
:1012E0000E94FD040E940E058AE0E0E5F1E0DE01C7
:1012F000119601900D928A95E1F7E7EAF4E01082E9
:1013000084E690E0A0E0B0E081839283A383B4837D
:1013100085839683A783B08724E334E032872187CF
:10132000E9E5F4E0108281839283A383B48385830B
:101330009683A783B0872DEE35E032872187E2E4DC
:10134000F4E0108281839283A383B48385839683A0
:10135000A783B0872BE237E032872187EBE8F4E000
:10136000108281839283A383B48385839683A7832A
:10137000B08723EA38E032872187EBE9F4E0108276
:1013800081839283A383B48385839683A783B08765
:1013900080EF91E09287818746C0F8018581968130
:1013A000A781B0858C599F4FAF4FBF4F85839683E0
:1013B000A783B087F394F4E0FF1578F1EF2DF0E008
:1013C000EE0FFF1F81E090E08C0F9D1FE80FF91FCB
:1013D00000811181D80115964D915D916D917C919F
:1013E000189711968D919D910D90BC91A02D481745
:1013F00059076A077B0788F2D8011996ED91FC918D
:101400001A978C91082E000C990B0995F80180838E
:101410001582168217821086C0CF809123028823FE
:10142000E1F310922302F12CC6CF98E007C02BB154
:101430002B7F2BB92BB128602BB991509923E9F060
:10144000292F2150330BB90141E050E002C0440F75
:10145000551F2A95E2F7282F30E02423352302C0B8
:10146000359527956A95E2F73BB1377F3BB9222343
:10147000F1F22BB124602BB9DDCF08950F931F93A8
:10148000CF93DF93D82F062F142F823028F0DF91CF
:10149000CF911F910F9108958BB18F7E8BB9CD2F76
:1014A00007C080E00E94150A80E00E94150ACF5F05
:1014B000CC23B9F3802F0E94150A812F0E94150AB0
:1014C000C0E0CD1720F08BB180618BB9E0CF80E018
:1014D0000E94150A80E00E94150ACF5FF2CF6230A9
:1014E00008F00895462F6CE00E943E0AFACF603162
:1014F00008F00895462F6AE00E943E0AFACF623053
:1015000008F00895462F6FE00E943E0AFACF683037
:1015100008F00895462F6BE00E943E0AFACF462F4E
:1015200069E00E943E0A0895462FE82FF0E0EE0F92
:10153000FF1FEE0FFF1FEE0FFF1FE65DFD4F6083E5
:1015400061E00E943E0A0895462FE82FF0E0EE0F7A
:10155000FF1FEE0FFF1FEE0FFF1FE65DFD4F6183C4
:1015600062E00E943E0A0895462FE82FF0E0EE0F59
:10157000FF1FEE0FFF1FEE0FFF1FE65DFD4F6283A3
:1015800063E00E943E0A0895462FE82FF0E0EE0F38
:10159000FF1FEE0FFF1FEE0FFF1FE65DFD4F638382
:1015A00064E00E943E0A0895462FE82FF0E0EE0F17
:1015B000FF1FEE0FFF1FEE0FFF1FE65DFD4F648361
:1015C00065E00E943E0A0895462FE82FF0E0EE0FF6
:1015D000FF1FEE0FFF1FEE0FFF1FE65DFD4F658340
:1015E00066E00E943E0A0895462FE82FF0E0EE0FD5
:1015F000FF1FEE0FFF1FEE0FFF1FE65DFD4F66831F
:1016000067E00E943E0A0895462FE82FF0E0EE0FB3
:10161000FF1FEE0FFF1FEE0FFF1FE65DFD4F6783FD
:1016200068E00E943E0A0895E62F642FE830E0F457
:10163000F0E0E854FF4E0C94B70D0E94940A089510
:101640000E94A40A08950E94B40A08950E94C40A40
:1016500008950E94D40A08950E94E40A08950E9401
:10166000F40A08950E94040B0895E82FF0E0EE0FAD
:10167000FF1FEE0FFF1FEE0FFF1FE65DFD4F808186
:101680000895E82FF0E0EE0FFF1FEE0FFF1FEE0FA3
:10169000FF1FE65DFD4F81810895E82FF0E0EE0F1A
:1016A000FF1FEE0FFF1FEE0FFF1FE65DFD4F828154
:1016B0000895E82FF0E0EE0FFF1FEE0FFF1FEE0F73
:1016C000FF1FE65DFD4F83810895E82FF0E0EE0FE8
:1016D000FF1FEE0FFF1FEE0FFF1FE65DFD4F848122
:1016E0000895E82FF0E0EE0FFF1FEE0FFF1FEE0F43
:1016F000FF1FE65DFD4F85810895E82FF0E0EE0FB6
:10170000FF1FEE0FFF1FEE0FFF1FE65DFD4F8681EF
:101710000895E82FF0E0EE0FFF1FEE0FFF1FEE0F12
:10172000FF1FE65DFD4F878108956830F0F4E62FD6
:10173000F0E0E054FF4E0C94B70D0E94350B089575
:101740000E94410B08950E944D0B08950E94590B71
:1017500008950E94650B08950E94710B08950E94E0
:101760007D0B08950E94890B089580E00895CF9322
:10177000DF93D82F823050F4C0E006C040E06C2FD9
:101780008D2F0E94140BCF5FC830C0F3DF91CF9133
:101790000895CF938AB184608AB98AB188608AB982
:1017A0008AB180618AB98BB18B7F8BB98BB1877F0E
:1017B0008BB98BB18F7E8BB9C0E004C08C2F0E9497
:1017C000B70BCF5FC230D0F3C0E015C061E08C2F03
:1017D0000E946F0A60E08C2F0E947F0A60E08C2FCD
:1017E0000E948F0A62E08C2F0E94770A67E08C2F9C
:1017F0000E94870ACF5FC23048F3CF91089595B118
:101800009D7F95B9662329F095B1986095B990E0D0
:101810000EC095B1977F95B9FACF25B12F7E25B926
:1018200025B1206225B925B12F7D25B99F5F98305C
:1018300088F447E050E0491B5109282F30E002C0EE
:10184000359527954A95E2F720FFE7CF25B120612E
:1018500025B9E6CF85B1826085B9089560E00E9420
:10186000FF0B089561E00E94FF0B0895CF93DF9373
:1018700084B1826084B984B1846084B984B18860A1
:1018800084B984B1806184B984B1806284B985B13E
:10189000846085B985B1826085B983EC99E0019750
:1018A000F1F700C0000085B18B7F85B98BE594E42A
:1018B0000197F1F700C0000085B1846085B985B15A
:1018C0008D7F85B981E20E942E0C83E10E942E0C4F
:1018D00086E00E942E0C82EC0E942E0C80E20E9478
:1018E0002E0C89E00E942E0C80E80E942E0C80E4D1
:1018F0000E942E0CD0E0C0E0C83F91E0D90728F448
:1019000080E00E94320C2196F7CF88E00E942E0CD6
:101910008CE00E942E0CDF91CF91089580E80E9408
:101920002E0C80E40E942E0C10923204109233048C
:1019300090E080E0883F21E0920730F4FC01E65C13
:10194000FD4F10820196F6CF0895882321F080E2A2
:101950000E942E0C089584E2FBCF262F2695269513
:10196000269590E034E5239F800D911D112444239A
:1019700079F0677021E030E002C0220F331F6A95D2
:10198000E2F7FC01E65CFD4F8081822B80830895A5
:10199000677021E030E002C0220F331F6A95E2F742
:1019A000FC01E65CFD4F209580812823208308956B
:1019B000EF92FF920F931F93CF93DF93E82EF62EB3
:1019C00000E041C06091330480913204610F40E037
:1019D000800F0E94AD0C1F5FCE01880F991F880FEA
:1019E000991F880F991F8C1B9D0B1817190654F50A
:1019F000EE2D0E2C000CFF0BB097802F6F2D0E9448
:101A0000890D9F01220F331F220F331FE20FF31F97
:101A1000E80FF11DE457FF4FE491F0E0812F0E94A1
:101A2000890D02C0F595E7958A95E2F7E0FFCACFE8
:101A30006091330480913204610F41E0800F0E9475
:101A4000AD0CC9CF0F5FCF2DD0E0CE01880F991F0D
:101A5000880F991F8C0F9D1F0817190614F410E0AA
:101A6000BBCFE2E3F4E08F2D880F880F8F0D9081BC
:101A7000890F8F5F8083843568F010923204E3E32E
:101A8000F4E08F2D880F880F880F8F199081890FB0
:101A90008F5F808380913304803320F01092320472
:101AA00010923304DF91CF911F910F91FF90EF902F
:101AB00008951F93CF93DF93C82FD92F162F8881B6
:101AC000882329F02196612F0E94D80CF8CFDF914E
:101AD000CF911F9108958093320460933304089549
:101AE000CF93DF9380E80E942E0C80E40E942E0C9E
:101AF000D0E0C0E0C83F81E0D80740F4FE01E65CDA
:101B0000FD4F80810E94320C2196F4CFDF91CF915E
:101B10000895991B79E004C0991F961708F0961B49
:101B2000881F7A95C9F780950895A1E21A2EAA1BFD
:101B3000BB1BFD010DC0AA1FBB1FEE1FFF1FA2177D
:101B4000B307E407F50720F0A21BB30BE40BF50B7A
:101B5000661F771F881F991F1A9469F76095709503
:101B6000809590959B01AC01BD01CF010895EE0FCA
:101B7000FF1F0024001C0BBE0790F691E02D099476
:101B80000F931F93CF93DF93CDB7DEB72E970FB68A
:101B9000F894DEBF0FBECDBF0D891E8986E08C8311
:101BA0001A8309838FEF9FE79E838D83AE01475E83
:101BB0005F4F6F89788DCE0101960E94F00D2F81C5
:101BC0003885020F131FF80110822E960FB6F89475
:101BD000DEBF0FBECDBFDF91CF911F910F91089552
:101BE0002F923F924F925F926F927F928F929F922D
:101BF000AF92BF92CF92DF92EF92FF920F931F931B
:101C0000CF93DF93CDB7DEB72F970FB6F894DEBF33
:101C10000FBECDBF7C013B018A01DC0117961C92EF
:101C20001E92169713968C9181FFD8C19AE0292EA7
:101C3000FE0131964F01D70113969C91F30193FD5C
:101C4000859193FF81913F01882309F448C1853232
:101C500039F493FD859193FF81913F01853229F4F9
:101C6000B70190E00E940710E6CFB12C412C512C17
:101C7000BFE1B51538F08B3209F188F4803201F1FB
:101C8000833221F157FC3AC020ED280F2A3040F56D
:101C900056FE1FC0B29C200D1124B22E06C08D32FC
:101CA00091F0803379F7689450F8F30193FD8591B2
:101CB00093FF81913F018111DBCF20C0689451F8DF
:101CC000689452F8F2CF689453F8EFCF689454F8C0
:101CD000ECCF429C200D1124422E689455F8E5CF9C
:101CE0008E3229F456FCFBC0689456F8DECF8C3651
:101CF00019F4689457F8D9CF8836B9F2982F9F7D98
:101D000095549330C0F08336A1F18337C1F1833508
:101D100009F05BC0D801CD90DD908D016B2D70E096
:101D200056FC02C06FEF7FEFC6010E94F10F5C010D
:101D3000689457F80AC00C5F1F4FEFE3E983AA24A9
:101D4000A394B12C6401E89457F853FC04C04A14DE
:101D50001B0409F018F5342CA114B10431F533201B
:101D600009F469CFB70180E290E00E9407103A942D
:101D7000F6CFD8018C9189830E5F1F4FE0CFF80119
:101D8000C190D1908F016B2D70E056FC02C06FEFB7
:101D90007FEFC6010E94FC0F5C01D5CFB70180E246
:101DA00090E00E9407104A94D2CFF60157FC85912B
:101DB00057FE81916F01B70190E00E94071031102A
:101DC0003A94B1E0AB1AB108C7CF843619F089361E
:101DD00009F074C0F80157FE6AC061917191819158
:101DE00091918F01E52DEF76DE2E97FF09C090953A
:101DF0008095709561957F4F8F4F9F4F6894D7F86E
:101E00002AE030E0A4010E943710C82EC818AC2C7C
:101E10005D2CD6FE0CC0E89450F8CB1440F4D4FEF0
:101E200005C0D2FC03C05D2D5E7E552EAB2C54FE4A
:101E3000ADC0FE01EC0DF11D8081803309F09FC023
:101E4000652D697E562E752D7870372E53FCADC0EA
:101E500050FEA7C0BC2CA41418F44C0CB42CBA1817
:101E600054FEA9C0B70180E390E00E94071052FE23
:101E700009C088E790E051FE02C088E590E0B70114
:101E80000E940710CB1408F4A2C0CA94D12C8FEF83
:101E9000C81AD80AC80CD91CD6018E916D01B70199
:101EA00090E00E9407108C149D04B1F758CF619107
:101EB0007191072E000C880B990B93CFD52CE894C9
:101EC000D4F82AE030E08537E1F1F52DF97FDF2EF7
:101ED000803751F100F5883551F18F3681F1F701E6
:101EE000868197812F960FB6F894DEBF0FBECDBFC7
:101EF000DF91CF911F910F91FF90EF90DF90CF90E6
:101F0000BF90AF909F908F907F906F905F904F9019
:101F10003F902F900895883711F7D4FE02C068943F
:101F2000D2F820E130E00DC06894D4F8F6CF54FE2A
:101F300003C02F2F2660D22E20E132E002C028E01D
:101F400030E0F801D7FE15C0419151916191719136
:101F50004C875D876E877F878F01A4016C857D85A7
:101F60008E859F850E943710C82EC818E894D7F830
:101F70004ECF81919191AC0170E060E0E9CF52FCCD
:101F800002C0A39460CFA394A3945DCF852D8678DF
:101F900009F459CFF6CFB70180E290E00E94071014
:101FA000A394A414C0F3312C5BCF342C3A18A4149E
:101FB00008F456CFF8CF852D867809F463CF8BE2ED
:101FC00051FE80E257FC8DE2B70190E059CFB70196
:101FD00080E390E00E940710BA9454CF8FEF9FEFF8
:101FE00081CFFC010590615070400110D8F78095B9
:101FF00090958E0F9F1F0895FC01615070400190D5
:102000000110D8F7809590958E0F9F1F08950F931C
:102010001F93CF93DF93182F092FEB018B8181FD45
:1020200009C01FEF0FEF812F902FDF91CF911F91EC
:102030000F91089582FF14C02E813F818C819D8174
:10204000281739073CF4E881F981CF01019699837B
:10205000888310838E819F8101969F838E83E3CF37
:10206000E885F985812F0995892BA1F3DACFFA014B
:10207000AA27283051F1203181F1E8946F936E7FC7
:102080006E5F7F4F8F4F9F4FAF4FB1E03ED0B4E0B8
:102090003CD0670F781F891F9A1FA11D680F791FF9
:1020A0008A1F911DA11D6A0F711D811D911DA11D0A
:1020B00020D009F468943F912AE0269F112430191A
:1020C000305D3193DEF6CF010895462F4770405DB5
:1020D0004193B3E00FD0C9F7F6CF462F4F70405D64
:1020E0004A3318F0495D31FD4052419302D0A9F7BF
:1020F000EACFB4E0A6959795879577956795BA95B9
:10210000C9F700976105710508959B01AC010A2E7E
:1021100006945795479537952795BA95C9F7620F55
:10212000731F841F951FA01D0895F999FECF92BDBE
:1021300081BDF89A992780B50895262FF999FECF89
:1021400092BD81BDF89A019700B4021639F01FBA0A
:1021500020BD0FB6F894FA9AF99A0FBE0895F89434
:10216000FFCF77035C033E0320030203E402D302A4
:102170001D0B200B230B260B290B2C0B2F0B320BCB
:102180009D0BA00BA30BA60BA90BAC0BAF0BB20BBB
:1021900001000000063C42A581A599423C3C42A5B5
:1021A0008199A5423C001818381818187E003C6622
:1021B000060C30607E003C66061C0C663C000C1C65
:1021C0002C4C7E0C0C007C607E0606663C18781E4B
:1021D00000400000000200000000DE0100000000DE
:1021E000A704590442048B049B04181E78183E4827
:1021F000692053636F72653A2025640044656C65FD
:1022000074652048692053636F72653F00205965EB
:10221000732020202020203E4E6F003E5965732001
:102220002020202020204E6F0054494D452052454B
:102230004D41494E494E470020494E535452554353
:1022400054494F4E5300202D2D2D2D2D2D2D2D2D4C
:102250002D2D2D005374617274203D20506C6179D6
:10226000004C203D204C656674204D6F7665005211
:10227000203D205269676874204D6F7665003E20CE
:102280003D2053656C6563740020205472792041B1
:102290006761696E3F2020002020202070726573E6
:0C22A000733A20002053544152540000B7
:00000001FF
