:100000000C9446000C9465000C9465000C946500FB
:100010000C9465000C9465000C9465000C946500CC
:100020000C9465000C9465000C9465000C946500BC
:100030000C9465000C94C0020C9465000C9465004F
:100040000C9465000C9465000C9465000C9465009C
:100050000C9465000C9465000C9465000C9465008C
:100060000C9465000C9465000C9465000C9465007C
:100070000C9465000C9465000C9465000C9465006C
:100080000C9465000C9465000C94650011241FBE4F
:10009000CFEFD0E4DEBFCDBF11E0A0E0B1E0EAE5F4
:1000A000FCE000E00BBF02C007900D92AC34B1073A
:1000B000D9F721E0ACE4B1E001C01D92AB3BB2073F
:1000C000E1F70E9480030C941B060C940000CF9370
:1000D000C82F8A3051F09091C00095FFFCCFC0939B
:1000E000C60090E080E0CF9108958DE00E94670007
:1000F000F2CFE1EAF1E010829CE4918388E7828309
:100100001382E6E6F1E022E0208342E541833EE10E
:1001100032831382E7EAF1E024E0208341833283D3
:100120001382EFE6F1E026E020839183828313823D
:10013000E1E8F1E028E020839183828321E02383BA
:10014000E7EBF1E05AE05083418332832383EAE610
:10015000F1E03CE03083918382832383E5E8F1E0A2
:100160008091A1019091A201A091A301B091A4015D
:1001700080839183A283B38380916601909167010C
:10018000A0916801B091690184839583A683B783A8
:100190008091A7019091A801A091A901B091AA0115
:1001A00080879187A287B38780916F0190917001BA
:1001B000A0917101B091720184879587A687B78756
:1001C0008091810190918201A0918301B09184017D
:1001D000808B918BA28BB38B8091B7019091B801EA
:1001E000A091B901B091BA01848B958BA68BB78B86
:1001F00080916A0190916B01A0916C01B0916D01A9
:10020000808F918FA28FB38F0895CF938091040137
:100210008430D9F158F4823009F45DC0833011F490
:10022000C0E03FC08130D9F4C0E061C08530C9F082
:100230008630A9F481508093040111C0EC2FF0E0C6
:10024000E35DFE4F40816C2F80E00E940505CF5F8B
:10025000C830A0F380910401815080930401CF91B4
:100260000895C0E0F5CFEC2FF0E0EB5DFE4F40814C
:100270006C2F80E00E940505CF5FC830A0F380910D
:100280000401815080930401EACFC0E0F6CFEC2F47
:10029000F0E0E35EFE4F40816C2F80E00E94050598
:1002A000CF5FC830A0F38091040181508093040196
:1002B000D6CFEC2FF0E0EB5EFE4F40816C2F80E05C
:1002C0000E940505CF5FC830A0F3809104018150E2
:1002D00080930401C4CFC0E0F6CFEC2FF0E0E35FE1
:1002E000FE4F40816C2F80E00E940505CF5FC83033
:1002F000A0F310920401B3CFCF9380E00E94A80531
:1003000081E00E94A8050E947900C0E00BC048E18E
:100310006C2F80E00E94050548E16C2F81E00E946F
:100320000505CF5FC83098F3C0E00CC0880F991F57
:10033000880F991FFC01EB57FE4F428180E00E941D
:100340000505CF5FC730C8F48C2F90E0FC01EE0F9D
:10035000FF1FEE0FFF1FEB57FE4F6081683030F339
:10036000880F991F880F991FFC01EB57FE4F6850AB
:10037000428181E00E940505E4CF40913901486146
:1003800066E081E00E940505CF910895CF93C0E01B
:100390000BC048E16C2F80E00E94050548E16C2FFE
:1003A00081E00E940505CF5FC83098F3C0E00CC023
:1003B000880F991F880F991FFC01EB57FE4F428150
:1003C00080E00E940505CF5FC730C8F48C2F90E015
:1003D000FC01EE0FFF1FEE0FFF1FEB57FE4F60817A
:1003E000683030F3880F991F880F991FFC01EB5775
:1003F000FE4F6850428181E00E940505E4CF4091A4
:100400003901486166E081E00E940505CF910895B9
:10041000CF93C0E00AC0EC2FF0E0EB5FFE4F4081CD
:100420006C2F80E00E940505CF5FC830A0F3CF910C
:100430000895CF93DF93C82FD92FC230D105B9F0DB
:10044000C330D10519F1CD2B59F00E9405018091DF
:100450000401882301F181E090E0DF91CF910895BC
:1004600080E00E94A80581E00E94A805EECF80915F
:10047000AB01813029F00E94C6018C2F9D2FEDCF5A
:1004800081E00E94A80580E00E94A8050E94080261
:1004900083E090E0E2CF0E947C0182E090E0DDCF3B
:1004A0000F931F93CF93DF9300D000D000D0CDB730
:1004B000DEB729833A834B835C8309811A812B81C0
:1004C0002E833C813D8329813A814B815C810E944E
:1004D000F00569837A838B839C83602F712F8E81D3
:1004E0009D8129813A814B815C81232B242B252BF3
:1004F00021F726960FB6F894DEBF0FBECDBFDF9171
:10050000CF911F910F9108956093000170930101A5
:10051000809302019093030160934C0170934D010D
:1005200080934E0190934F0108958BE0809381005A
:100530008DE790E0909389008093880082E080931B
:100540006F001092850010928400809100019091BC
:100550000101A0910201B091030180934C0190939D
:100560004D01A0934E01B0934F018FB780688FBFAC
:10057000089510928100089581E0809350010895BC
:100580001F920F920FB60F9211240BB60F922F935A
:100590003F934F935F936F937F938F939F93AF930B
:1005A000BF93EF93FF9380914C0190914D01A091E7
:1005B0004E01B0914F010197A109B10980934C01FF
:1005C00090934D01A0934E01B0934F01892B8A2B3C
:1005D0008B2B99F0FF91EF91BF91AF919F918F91EC
:1005E0007F916F915F914F913F912F910F900BBE33
:1005F0000F900FBE0F901F9018950E94BC02809123
:10060000000190910101A0910201B091030180933A
:100610004C0190934D01A0934E01B0934F01DACF5E
:1006200090E001C09F5F9730B8F4292F30E0F901C6
:10063000EE0FFF1FEE0FFF1FEB57FE4F80818F5F06
:1006400080838F3079F7220F331F220F331FF90178
:10065000EB57FE4F1082E6CF0895089580E001C069
:100660008F5F8730E0F4282F30E0F901EE0FFF1F95
:10067000EE0FFF1FEB57FE4F90819E3089F7220F40
:10068000331F220F331FF901EB57FE4F2181909149
:100690006E012913E5CF91E09093AB01E1CF08956E
:1006A000282F392F2230310501F16CF0233031052C
:1006B00021F124303105C1F40E9410030E942E0361
:1006C00083E090E0089521153105A1F02130310536
:1006D00051F41092AB01109265018CE480936E018D
:1006E00082E090E00895089508951092730183E0E8
:1006F00090E0089581E090E0089584E090E008950E
:1007000000D000D0CDB7DEB78FEF8AB91BB80E94FA
:10071000BA0568EE73E080E090E00E9484020E94D7
:100720009502ACEAB1E0BA83A983E6E7F1E0FC8385
:10073000EB831C9248EE53E060E070E011964D931D
:100740005D936D937C93149715964D935D936D9384
:100750007C93189789E192E01A969C938E9319974F
:1007600010824183528363837483458356836783F6
:10077000708780E593E09287818746C0F801858184
:100780009681A781B08588519C4FAF4FBF4F85831D
:100790009683A783B087F394F1E0FF1578F1EF2DEE
:1007A000F0E0EE0FFF1F81E090E08C0F9D1FE80F3F
:1007B000F91F00811181D80115964D915D916D91C0
:1007C0007C91189711968D919D910D90BC91A02DC3
:1007D000481759076A077B0788F2D8011996ED91E7
:1007E000FC911A978C91082E000C990B0995F80131
:1007F00080831582168217821086C0CF80915001A7
:100800008823E1F310925001F12CC6CF98E007C085
:100810002BB12B7F2BB92BB128602BB99150992389
:10082000E9F0292F2150330BB90141E050E002C01B
:10083000440F551F2A95E2F7282F30E02423352353
:1008400002C0359527956A95E2F73BB1377F3BB9F2
:100850002223F1F22BB124602BB9DDCF08950F9341
:100860001F93CF93DF93D82F062F142F823028F0B9
:10087000DF91CF911F910F9108958BB18F7E8BB92E
:10088000CD2F07C080E00E94060480E00E9406048D
:10089000CF5FCC23B9F3802F0E940604812F0E94E2
:1008A0000604C0E0CD1720F08BB180618BB9E0CF9A
:1008B00080E00E94060480E00E940604CF5FF2CF31
:1008C000623008F00895462F6CE00E942F04FACFA2
:1008D000603108F00895462F6AE00E942F04FACF95
:1008E000623008F00895462F6FE00E942F04FACF7F
:1008F000683008F00895462F6BE00E942F04FACF6D
:10090000462F69E00E942F040895462FE82FF0E05B
:10091000EE0FFF1FEE0FFF1FEE0FFF1FEF5AFE4FF0
:10092000608361E00E942F040895462FE82FF0E0D5
:10093000EE0FFF1FEE0FFF1FEE0FFF1FEF5AFE4FD0
:10094000618362E00E942F040895462FE82FF0E0B3
:10095000EE0FFF1FEE0FFF1FEE0FFF1FEF5AFE4FB0
:10096000628363E00E942F040895462FE82FF0E091
:10097000EE0FFF1FEE0FFF1FEE0FFF1FEF5AFE4F90
:10098000638364E00E942F040895462FE82FF0E06F
:10099000EE0FFF1FEE0FFF1FEE0FFF1FEF5AFE4F70
:1009A000648365E00E942F040895462FE82FF0E04D
:1009B000EE0FFF1FEE0FFF1FEE0FFF1FEF5AFE4F50
:1009C000658366E00E942F040895462FE82FF0E02B
:1009D000EE0FFF1FEE0FFF1FEE0FFF1FEF5AFE4F30
:1009E000668367E00E942F040895462FE82FF0E009
:1009F000EE0FFF1FEE0FFF1FEE0FFF1FEF5AFE4F10
:100A0000678368E00E942F040895E62F642FE83082
:100A1000E0F4F0E0E35EF94F0C9412060E948504C6
:100A200008950E94950408950E94A50408950E94C7
:100A3000B50408950E94C50408950E94D504089540
:100A40000E94E50408950E94F5040895E82FF0E05F
:100A5000EE0FFF1FEE0FFF1FEE0FFF1FEF5AFE4FAF
:100A600080810895E82FF0E0EE0FFF1FEE0FFF1FCB
:100A7000EE0FFF1FEF5AFE4F81810895E82FF0E03F
:100A8000EE0FFF1FEE0FFF1FEE0FFF1FEF5AFE4F7F
:100A900082810895E82FF0E0EE0FFF1FEE0FFF1F99
:100AA000EE0FFF1FEF5AFE4F83810895E82FF0E00D
:100AB000EE0FFF1FEE0FFF1FEE0FFF1FEF5AFE4F4F
:100AC00084810895E82FF0E0EE0FFF1FEE0FFF1F67
:100AD000EE0FFF1FEF5AFE4F85810895E82FF0E0DB
:100AE000EE0FFF1FEE0FFF1FEE0FFF1FEF5AFE4F1F
:100AF00086810895E82FF0E0EE0FFF1FEE0FFF1F35
:100B0000EE0FFF1FEF5AFE4F878108956830F0F413
:100B1000E62FF0E0EB5DF94F0C9412060E942605DB
:100B200008950E94320508950E943E0508950E948E
:100B30004A0508950E94560508950E946205089589
:100B40000E946E0508950E947A05089580E0089538
:100B5000CF93DF93D82F823050F4C0E006C040E03E
:100B60006C2F8D2F0E940505CF5FC830C0F3DF9139
:100B7000CF910895CF938AB184608AB98AB1886091
:100B80008AB98AB180618AB98BB18B7F8BB98BB1FD
:100B9000877F8BB98BB18F7E8BB9C0E004C08C2F5F
:100BA0000E94A805CF5FC230D0F3C0E015C061E05D
:100BB0008C2F0E94600460E08C2F0E94700460E023
:100BC0008C2F0E94800462E08C2F0E94680467E0F2
:100BD0008C2F0E947804CF5FC23048F3CF910895E4
:100BE000A1E21A2EAA1BBB1BFD010DC0AA1FBB1F31
:100BF000EE1FFF1FA217B307E407F50720F0A21BA3
:100C0000B30BE40BF50B661F771F881F991F1A940F
:100C100069F760957095809590959B01AC01BD0139
:100C2000CF010895EE0FFF1F0024001C0BBE07909C
:100C3000F691E02D0994F894FFCF0E0511051405E7
:100C400017051A051D05200523058E059105940538
:0A0C500097059A059D05A005A30570
:100C5A0001000000063C42A58199A5423C001818F3
:100C6A00381818187E003C66060C30607E003C6618
:100C7A00061C0C663C000C1C2C4C7E0C0C007C6088
:100C8A007E0606663C18781E00400000000200003E
:0C0C9A000000670000000000181E781821
:00000001FF
