:100000000C9436010C9455010C9455010C94550137
:100010000C9455010C9455010C9455010C94550108
:100020000C9455010C9455010C9455010C945501F8
:100030000C9455010C9430060C9455010C94550108
:100040000C9455010C9455010C9455010C945501D8
:100050000C9455010C9455010C9455010C945501C8
:100060000C9455010C9455010C9455010C945501B8
:100070000C9455010C9455010C9455010C945501A8
:100080000C9455010C9455010C945501000000008E
:100090000000005F00000007000700147F147F14B9
:1000A000242A7F2A122313086462364955225000FD
:1000B00005030000001C2241000041221C0014081E
:1000C0003E081408083E08080050300000080808E0
:1000D0000808006060000020100804023E514945F5
:1000E0003E00427F400042615149462141454B312B
:1000F0001814127F1027454545393C4A49493001BB
:10010000710905033649494936064949291E003611
:100110003600000056360000081422410014141462
:100120001414004122140802015109063249794190
:100130003E7E1111117E7F494949363E414141229F
:100140007F4141221C7F494949417F090909013EFC
:100150004149497A7F0808087F00417F41002040DB
:10016000413F017F081422417F404040407F020C04
:10017000027F7F0408107F3E4141413E7F0909090B
:10018000063E4151215E7F091929464649494931B8
:1001900001017F01013F4040403F1F2040201F3FA1
:1001A0004038403F63140814630708700807615122
:1001B000494543007F4141000204081020004141AD
:1001C0007F0004020102044040404040000102045C
:1001D0000020545454787F484444383844444420E0
:1001E000384444487F3854545418087E0901020C9E
:1001F0005252523E7F0804047800447D4000204063
:10020000443D007F1028440000417F40007C0418DA
:1002100004787C0804047838444444387C1414146A
:1002200008081414187C7C0804040848545454200A
:10023000043F4440203C4040207C1C2040201C3C8B
:100240004030403C44281028440C5050503C4464FA
:10025000544C44000836410000007F000000413645
:1002600008001008081008000000000011241FBE3C
:10027000CFEFD0E4DEBFCDBF12E0A0E0B1E0E0EF11
:10028000F8E200E00BBF02C007900D92AE31B1075B
:10029000D9F724E0AEE1B2E001C01D92A13DB20762
:1002A000E1F70E948F0A0C9454140C940000482F1C
:1002B000592F30E020E002C02F5F3F4F2417350751
:1002C0004CF490E080E0873063E09607ACF70000E4
:1002D0000196F9CF08959BB19F7B9BB988B98BB1EB
:1002E00080688BB900008BB18F778BB982E090E08A
:1002F0000E945701089581E00E946B0108958131A9
:1003000020F481580E946B01089581550E946B0171
:10031000089584E690E00E94570188E30E946B01F3
:1003200086E00E946B018FE00E946B0181E00E94D9
:100330006B018AE090E00E94570108959BB19064A0
:100340009BB988B98BB180688BB900008BB18F776E
:100350008BB981E090E00E94570108950F931F939D
:10036000CF93DF93182FC62FD72F0E947B01888150
:10037000882351F001E0010F812F0E947F018991B4
:100380000E949E01102FF3CFDF91CF911F910F910B
:1003900008951F93CF93DF93C62FD72F988199236A
:1003A00049F011E0180F0E947F0189910E949E017F
:1003B000812FF4CFDF91CF911F910895CF93C82F54
:1003C0008A3051F09091C00095FFFCCFC093C600D9
:1003D00090E080E0CF9108958DE00E94DE01F2CFA1
:1003E00020B1209527708230910569F17CF4009747
:1003F000E9F18130910549F42430A1F030915F0496
:10040000313081F01092C804089508958330910529
:1004100041F4243069F581E080935F0481E090E04D
:1004200008950895243039F020915F04213019F0A7
:100430001092C804089581E08093C80410925F046C
:1004400082E090E008952091BC04211104C0309115
:100450002B02332369F0213021F020912B0221302F
:1004600039F41092C80483E090E0089581E090E0B0
:100470000895CF93DF93C82FD92FC230D105F1F063
:100480009CF0C330D10509F4CEC0C430D10599F435
:1004900080915F04813009F4D9C08091C804813013
:1004A00009F4D4C08C2F07C0209709F4D4C0219739
:1004B00011F482E090E0DF91CF91089580912902BC
:1004C000813009F495C080910401833009F451C052
:1004D000A0F08430A1F1853009F0C0C080911E02E7
:1004E000893010F164EA70ED82E893E40E94D30E43
:1004F00010921E028C2F9D2FDECF813009F45EC03A
:10050000823081F480911E02893008F44CC061E78A
:100510007DE98EEA93E40E94D30E10921E028C2F86
:100520009D2FC9CF8C2FC7CF8F5F80931E0260E0B5
:1005300070E0CB010E94D30E8C2F9D2FBCCF8091F9
:100540001E02893058F06BE774ED82E993E40E9453
:10055000D30E10921E028C2F9D2FADCF8F5F8093F4
:100560001E0260E070E0CB010E94D30E8C2F9D2F05
:10057000A2CF80911E02893058F064EA70ED84EABF
:1005800093E40E94D30E10921E028C2F9D2F93CFC6
:100590008F5F80931E0260E070E0CB010E94D30E5B
:1005A0008C2F9D2F88CF8F5F80931E0260E070E0BC
:1005B000CB010E94D30E8C2F9D2F7DCF80911E02E8
:1005C000893058F060E070E084EC93E40E94D30E30
:1005D00010921E028C2F9D2F6ECF8F5F80931E0274
:1005E00060E070E0CB010E94D30E8C2F9D2F63CF73
:1005F0008091BC04813021F080912B02813059F42C
:1006000061E77DE98EEA93E40E94D30E10921E0208
:1006100083E090E050CF60E070E0CB010E94D30E09
:100620008C2F9D2F48CF80911F02833028F48F5F3D
:1006300080931F028C2F3FCF60E070E0CB010E94BF
:10064000D30E10921F0284E090E035CF10921E026C
:1006500082E090E030CF81E090E02DCF8C2F2BCF47
:10066000E0E9F4E010829CE4918388E782831382BE
:10067000E2E4F4E022E0208342E541833EE132837C
:100680001382EDEAF4E024E0208341833283138275
:10069000E6E5F4E026E02083918382831382EFE68F
:1006A000F4E028E020839183828321E02383EBEC34
:1006B000F4E05AE05083418332832383E6E4F4E09C
:1006C0003CE0308391838283238380E480934101E3
:1006D000E3E7F4E08091900490919104A09192045A
:1006E000B091930480839183A283B3838091420469
:1006F00090914304A0914404B09145048483958370
:10070000A683B7838091AD049091AE04A091AF040D
:10071000B091B00480879187A287B38780915604F7
:1007200090915704A0915804B091590484879587FB
:10073000A687B78780916F0490917004A09171048F
:10074000B0917204808B918BA28BB38B8091CB0480
:100750009091CC04A091CD04B091CE04848B958B64
:10076000A68BB78B8091460490914704A0914804D2
:10077000B0914904808F918FA28FB38F0895CF934A
:1007800080910401873088F4E82FF0E0EA5AFB4EAC
:100790000C94C80F1092290290912802993038F0D9
:1007A00081508093040110922802CF9108959F5F99
:1007B00090932802FACF809128028930C0F48F5F8D
:1007C00080932802F2CFEC2FF0E0EB5CFE4F4081EB
:1007D0006C2F80E00E945E0CCF5FC830A0F3809148
:1007E000040181508093040110922802DECFC0E002
:1007F000F4CF809128028930C0F48F5F8093280263
:10080000D4CFEC2FF0E0E35DFE4F40816C2F80E011
:100810000E945E0CCF5FC830A0F38091040181502C
:100820008093040110922802C0CFC0E0F4CF8091E1
:1008300028028930C0F48F5F80932802B6CFEC2F56
:10084000F0E0EB5DFE4F40816C2F80E00E945E0C7B
:10085000CF5FC830A0F380910401815080930401E0
:1008600010922802A2CFC0E0F4CF809128028930F4
:10087000C0F48F5F8093280298CFEC2FF0E0E35E06
:10088000FE4F40816C2F80E00E945E0CCF5FC8302D
:10089000A0F38091040181508093040110922802FA
:1008A00084CFC0E0F4CF809128028930A8F48F5F14
:1008B000809328027ACFEC2FF0E0EB5EFE4F408170
:1008C0006C2F80E00E945E0CCF5FC830A0F31092C6
:1008D00004011092280269CFC0E0F7CF809128026E
:1008E000893020F081E0809329025FCF8F5F809371
:1008F00028025BCFCF9380E00E94010D81E00E942F
:10090000010D0E943003C0E00BC048E16C2F80E075
:100910000E945E0C48E16C2F81E00E945E0CCF5F6C
:10092000C83098F3C0E00CC0880F991F880F991F3A
:10093000FC01ED58FB4F428180E00E945E0CCF5FCE
:10094000C730C8F48C2F90E0FC01EE0FFF1FEE0FB4
:10095000FF1FED58FB4F6081683030F3880F991FFF
:10096000880F991FFC01ED58FB4F6850428181E0D0
:100970000E945E0CE4CF40914101486166E081E055
:100980000E945E0CCF910895CF93C0E00BC048E168
:100990006C2F80E00E945E0C48E16C2F81E00E9489
:1009A0005E0CCF5FC83098F3C0E00CC0880F991F71
:1009B000880F991FFC01ED58FB4F428180E00E9497
:1009C0005E0CCF5FC730C8F48C2F90E0FC01EE0FB7
:1009D000FF1FEE0FFF1FED58FB4F6081683030F3B3
:1009E000880F991F880F991FFC01ED58FB4F685025
:1009F000428181E00E945E0CE4CF81E00E94C70C3E
:100A000040914101482B66E081E00E945E0CCF914D
:100A10000895CF93C0E00AC0EC2FF0E0E35FFE4FF3
:100A200040816C2F80E00E945E0CCF5FC830A0F345
:100A3000CF910895CF93C0E00AC0EC2FF0E0EB5FB8
:100A4000FE4F40816C2F80E00E945E0CCF5FC8306B
:100A5000A0F3CF910895CF93DF93C82FD92FC23041
:100A6000D105F1F1DCF0C330D10509F456C0C43032
:100A7000D10561F580912E02882309F46CC00E9493
:100A80001A058091C804813009F45DC080915F042B
:100A9000813009F458C084E090E015C0209749F0F7
:100AA000C130D10599F480E00E94010D81E00E94DF
:100AB000010D8091C804813031F180915F04813053
:100AC00011F181E090E0DF91CF910895C330D1051D
:100AD00021F194F4C130D10561F3C230D10549F45C
:100AE0000E94BF0380912902813091F08C2F9D2FAD
:100AF000EACF8C2F9D2FE7CFC430D10509F4BACFB0
:100B00008C2F9D2FE0CF1092290282E090E0DBCF66
:100B10000E947A0483E090E0D6CF8091BC048130BB
:100B200021F080912B02813049F481E00E94010D77
:100B300080E00E94010D84E090E0C5CF0E94C404D3
:100B400083E090E0C0CF86E08093040110922802F9
:100B500080E090E0B8CF0E9409058091C804813000
:100B600039F080915F04813019F084E090E0ABCFE0
:100B700086E0809304011092280280E090E0A3CFE9
:100B80000F931F93CF93DF9300D000D000D0CDB749
:100B9000DEB729833A834B835C8309811A812B81D9
:100BA0002E833C813D8329813A814B815C810E9467
:100BB000A60F69837A838B839C83602F712F8E812C
:100BC0009D8129813A814B815C81232B242B252B0C
:100BD00021F726960FB6F894DEBF0FBECDBFDF918A
:100BE000CF911F910F9108956093000170930101BF
:100BF0008093020190930301609323027093240277
:100C0000809325029093260208958BE080938100C3
:100C10008DE790E0909389008093880082E0809334
:100C20006F001092850010928400809100019091D5
:100C30000101A0910201B0910301809323029093DE
:100C40002402A0932502B09326028FB780688FBF3D
:100C5000089510928100089581E0809327020895FD
:100C60001F920F920FB60F9211240BB60F922F9373
:100C70003F934F935F936F937F938F939F93AF9324
:100C8000BF93EF93FF938091230290912402A09150
:100C90002502B09126020197A109B1098093230290
:100CA00090932402A0932502B0932602892B8A2BCD
:100CB0008B2B99F0FF91EF91BF91AF919F918F9105
:100CC0007F916F915F914F913F912F910F900BBE4C
:100CD0000F900FBE0F901F9018950E942C068091C8
:100CE000000190910101A0910201B0910301809354
:100CF000230290932402A0932502B0932602DACF18
:100D000090E001C09F5F9730B8F4292F30E0F901DF
:100D1000EE0FFF1FEE0FFF1FED58FB4F80818F5F1F
:100D200080838F3079F7220F331F220F331FF90191
:100D3000ED58FB4F1082E6CF08958091A1048130D9
:100D400029F090915A04923061F0089590915A04DC
:100D50009111F7CF82E08093410182E580934A04AC
:100D600008958111F2CF80E4809341018CE4809357
:100D70004A04EBCF80E005C090912B029130F9F04E
:100D80008F5F873000F5282F30E0F901EE0FFF1F4D
:100D9000EE0FFF1FED58FB4F90819E3069F7220F39
:100DA000331F220F331FF901ED58FB4F2181909122
:100DB0004A042913E1CF81E08093BC04089581E0C7
:100DC0008093BC040895089520B130E020953095BB
:100DD000237033278330910509F44CC00CF5813022
:100DE000910591F182309105B1F410926004409127
:100DF000BC04413089F1A9014150510942305105EB
:100E000058F5822F81708093A104227020935A0498
:100E100083E090E008950097F9F481E090E0089570
:100E20008430910561F18530910569F42091C80401
:100E3000213021F020915F04213071F41092BC0424
:100E400081E090E0089508952091C804213029F0B0
:100E500020915F04213009F008951092BC04109293
:100E6000410480E4809341018CE480934A0482E051
:100E700090E00895232B81F784E090E008950E948C
:100E80009D060E94BA060E9480060E94BA068091C2
:100E9000BC04813051F080912B02813019F082E046
:100EA00090E0DACF85E090E0089585E090E0089545
:100EB0008091BC04811108C080912B02811104C073
:100EC00080912902813049F06091220280918F0443
:100ED000681748F410922E020895809122028F5FC5
:100EE00080932202F1CF60938F0481E080932E02E1
:100EF00081E090E00E944214089580912C0281309C
:100F000009F0089510928F0460E081E090E00E9463
:100F1000421410922C02F5CF1F93CF93DF93CDB7DD
:100F2000DEB7A0970FB6F894DEBF0FBECDBF162F69
:100F30008A3008F43FC01F928F9380E691E09F9320
:100F40008F93CE0101969F938F930E9465110F900E
:100F50000F900F900F900F900F90BE016F5F7F4F1B
:100F600081E00E94AE0181E10E947F011A30A8F168
:100F70001F921F9383E691E09F938F93CE0141963A
:100F80009F938F930E9465110F900F900F900F9079
:100F90000F900F90BE016F5E7F4F81E10E94C901EB
:100FA000A0960FB6F894DEBF0FBECDBFDF91CF91F4
:100FB0001F9108951F928F9380E691E09F938F93E6
:100FC000CE0101969F938F930E9465110F900F9011
:100FD0000F900F900F900F90C0CF1F921F9383E63A
:100FE00091E09F938F93CE0141969F938F930E94A0
:100FF00065110F900F900F900F900F900F90CACF28
:101000006EE671E081E00E94AE016FE771E081E180
:101010000E94C90108956EE671E081E00E94AE0170
:101020006DE871E081E10E94C901089581E090E0DE
:101030000E943A148F3F19F080938F040895109204
:101040008F040895282F392F80B180958F702B3011
:10105000310528F4F901E35AFB4E0C94C80F822F96
:10106000089580910401853021F010922202822F90
:1010700008950E94160860918F04662351F0109223
:10108000220260E080918F040E948C0782E090E051
:10109000089581E090E00E94421410928F04EFCFF7
:1010A0008150823058F08091BC04813009F4ACC08A
:1010B00080912B02813039F0822F08950E945807C9
:1010C00083E090E0089584E090E00895882369F03B
:1010D0008091BC04813009F49AC080912B02813048
:1010E00009F498C0822F932F089560912202809175
:1010F0008F040E948C0722E030E0EACF9091C80470
:10110000913079F090915F04913059F09091BC0446
:10111000913061F090912B02913041F0822F932F0A
:1011200008951092220280E090E00895883019F02E
:10113000822F932F08950E940B0881E080932C0248
:1011400085E090E00895811168C086E090E0089500
:10115000883009F464C0823021F0813039F0822F68
:10116000089581E080932C02822F089510922C0222
:1011700088E090E00895883009F454C0811154C08B
:1011800089E090E00895813009F450C0882311F07F
:10119000822F08950E9400088AE090E0089581302F
:1011A00009F446C0823021F0883051F0822F089532
:1011B00081E080932C020E940B0886E090E0089565
:1011C00087E090E0089580912C02882321F08130FF
:1011D00061F0822F08951092220260E080918F04C6
:1011E0000E948C0784E090E008950E947D07109291
:1011F000220260E080918F040E948C0784E090E0DE
:10120000089581E090E0089584E090E0089584E0FE
:1012100090E0089584E090E00895822F089587E09B
:1012200090E00895822F0895822F0895822F0895C7
:1012300088E090E008950F931F93CF93DF9300D041
:1012400000D00F92CDB7DEB71A821982FE01339615
:1012500083E0DF011D928A95E9F70E94D80D65E0D1
:1012600081E00E94B50E61E08BE991E00E94A30E3F
:10127000809163041F928F938AE691E09F938F93EE
:101280008E010F5F1F4F1F930F930E9465116FE038
:101290008DE00E94B50E64E0C8010E94A30E0E947A
:1012A000BA0E0F900F900F900F900F900F900F901D
:1012B0000F900F900F900F90DF91CF911F910F9192
:1012C00008950E94D80D60E080E00E94B50E61E0B4
:1012D0008AEA91E00E94A30E68E080E00E94B50EC9
:1012E00061E088EB91E00E94A30E60E181E00E9442
:1012F000B50E61E086EC91E00E94A30E68E181E00A
:101300000E94B50E61E083ED91E00E94A30E60E2C1
:1013100081E00E94B50E61E081EE91E00E94A30E93
:1013200068E281E00E94B50E61E080EF91E00E94EA
:10133000A30E0E94BA0E08950E94D80D62E080E0CC
:101340000E94B50E61E08BEF91E00E94A30E6CE06D
:1013500080E00E94B50E61E08AE092E00E94A30E58
:1013600069E183E00E94B50E62E086E192E00E94AE
:10137000A30E0E94BA0E0895CF93DF93C82FD92FE2
:1013800080B180958370C230D105D1F1C4F0C330F3
:10139000D10509F44AC0C430D10531F58091C804A3
:1013A000813029F080915F04813009F087C010926C
:1013B0002B028AE08093630481E090E086C020974E
:1013C00009F481C0C130D10569F4809104018330F2
:1013D00021F48091BC04882349F00E9461098C2F7C
:1013E0009D2F73C08C2F71C08C2F6FC08AE08093AB
:1013F0006304109221020E941B0982E090E065C004
:10140000811105C090910401992309F461C08150B4
:10141000823008F460C08091BC04813019F08C2FB8
:101420009D2F53C084E090E050C0811120C0809176
:10143000BC0481111CC080912102863020F0809173
:10144000630481110AC08091630481112EC081E080
:1014500080932B0284E090E015C081508093630458
:101460000E941B0910922102C2E0D0E0ECCF8091D3
:10147000630481110DC081E080932B021092210240
:1014800084E090E0209121022F5F209321021DC073
:101490008091BC04813061F080912B02813059F041
:1014A0001092210282E090E0EDCF8C2F9D2FEACFA9
:1014B00084E090E0E7CF84E090E0E4CF0E949C09D4
:1014C0008C2F9D2F02C081E090E0DF91CF91089595
:1014D00083E090E0FACF8C2F9D2FF7CFCF93DF934F
:1014E00000D000D0CDB7DEB720911E02222339F004
:1014F0000F900F900F900F90DF91CF910895698317
:101500007A838B839C8369817A818B819C810E9401
:10151000D30E80911E028F5F80931E02E9CFCDB75C
:10152000DEB72C970FB6F894DEBF0FBECDBF11B853
:101530008FEF82B98AB91BB887B918B884B915B8C2
:101540000E94130D0E9489010E94800D0E94890F44
:1015500062E370E080E090E00E94F4050E940506DE
:101560008CE0E0E5F1E0DE01119601900D928A95A4
:10157000E1F7EDEBF4E0108282E390E0A0E0B0E070
:1015800081839283A383B48385839683A783B08763
:101590002BE235E032872187E4E6F4E01082818394
:1015A0009283A383B48385839683A783B08724EE35
:1015B00036E032872187EBE4F4E010828183928366
:1015C000A383B48385839683A783B08722E238E020
:1015D00032872187E6E9F4E0108281839283A38336
:1015E000B48385839683A783B0872CEB39E0328759
:1015F0002187E1EBF4E0108281839283A383B4839B
:1016000085839683A783B08720EF31E032872187D7
:10161000E2EAF4E0108281839283A383B48385831A
:101620009683A783B08789E392E09287818745C03C
:10163000F80185819681A781B085C296A11DB11D53
:1016400085839683A783B087F394F5E0FF1578F13F
:10165000EF2DF0E0EE0FFF1F81E090E08C0F9D1F5B
:10166000E80FF91F00811181D80115964D915D9108
:101670006D917C91189711968D919D910D90BC91D3
:10168000A02D481759076A077B0790F2D8011996D1
:10169000ED91FC911A978C91082E000C990B0995ED
:1016A000F80180831582168217821086C1CF80913F
:1016B00027028823E1F310922702F12CC6CF98E08D
:1016C00007C02BB12B7F2BB92BB128602BB99150C0
:1016D0009923E9F0292F2150330BB90141E050E063
:1016E00002C0440F551F2A95E2F7282F30E024232B
:1016F000352302C0359527956A95E2F73BB1377FD0
:101700003BB92223F1F22BB124602BB9DDCF089530
:101710000F931F93CF93DF93D82F062F142F823070
:1017200028F0DF91CF911F910F9108958BB18F7E9B
:101730008BB9CD2F07C080E00E945F0B80E00E9434
:101740005F0BCF5FCC23B9F3802F0E945F0B812FFB
:101750000E945F0BC0E0CD1720F08BB180618BB988
:10176000E0CF80E00E945F0B80E00E945F0BCF5FC4
:10177000F2CF623008F00895462F6CE00E94880B8B
:10178000FACF603108F00895462F6AE00E94880B76
:10179000FACF623008F00895462F6FE00E94880B60
:1017A000FACF683008F00895462F6BE00E94880B4E
:1017B000FACF462F69E00E94880B0895462FE82F44
:1017C000F0E0EE0FFF1FEE0FFF1FEE0FFF1FE15DBA
:1017D000FD4F608361E00E94880B0895462FE82F3B
:1017E000F0E0EE0FFF1FEE0FFF1FEE0FFF1FE15D9A
:1017F000FD4F618362E00E94880B0895462FE82F19
:10180000F0E0EE0FFF1FEE0FFF1FEE0FFF1FE15D79
:10181000FD4F628363E00E94880B0895462FE82FF6
:10182000F0E0EE0FFF1FEE0FFF1FEE0FFF1FE15D59
:10183000FD4F638364E00E94880B0895462FE82FD4
:10184000F0E0EE0FFF1FEE0FFF1FEE0FFF1FE15D39
:10185000FD4F648365E00E94880B0895462FE82FB2
:10186000F0E0EE0FFF1FEE0FFF1FEE0FFF1FE15D19
:10187000FD4F658366E00E94880B0895462FE82F90
:10188000F0E0EE0FFF1FEE0FFF1FEE0FFF1FE15DF9
:10189000FD4F668367E00E94880B0895462FE82F6E
:1018A000F0E0EE0FFF1FEE0FFF1FEE0FFF1FE15DD9
:1018B000FD4F678368E00E94880B0895E62F642F30
:1018C000E830E0F4F0E0E859FB4E0C94C80F0E94B9
:1018D000DE0B08950E94EE0B08950E94FE0B089502
:1018E0000E940E0C08950E941E0C08950E942E0C5A
:1018F00008950E943E0C08950E944E0C0895E82F12
:10190000F0E0EE0FFF1FEE0FFF1FEE0FFF1FE15D78
:10191000FD4F80810895E82FF0E0EE0FFF1FEE0FDE
:10192000FF1FEE0FFF1FE15DFD4F81810895E82F3E
:10193000F0E0EE0FFF1FEE0FFF1FEE0FFF1FE15D48
:10194000FD4F82810895E82FF0E0EE0FFF1FEE0FAC
:10195000FF1FEE0FFF1FE15DFD4F83810895E82F0C
:10196000F0E0EE0FFF1FEE0FFF1FEE0FFF1FE15D18
:10197000FD4F84810895E82FF0E0EE0FFF1FEE0F7A
:10198000FF1FEE0FFF1FE15DFD4F85810895E82FDA
:10199000F0E0EE0FFF1FEE0FFF1FEE0FFF1FE15DE8
:1019A000FD4F86810895E82FF0E0EE0FFF1FEE0F48
:1019B000FF1FEE0FFF1FE15DFD4F87810895683027
:1019C000F0F4E62FF0E0E059FB4E0C94C80F0E94B3
:1019D0007F0C08950E948B0C08950E94970C089527
:1019E0000E94A30C08950E94AF0C08950E94BB0CA6
:1019F00008950E94C70C08950E94D30C089580E0BA
:101A00000895CF93DF93D82F823050F4C0E006C002
:101A100040E06C2F8D2F0E945E0CCF5FC830C0F36A
:101A2000DF91CF910895CF938AB184608AB98AB14A
:101A300088608AB98AB180618AB98BB18B7F8BB992
:101A40008BB1877F8BB98BB18F7E8BB9C0E004C01F
:101A50008C2F0E94010DCF5FC230D0F3C0E015C0C3
:101A600061E08C2F0E94B90B60E08C2F0E94C90BA3
:101A700060E08C2F0E94D90B62E08C2F0E94C10B7A
:101A800067E08C2F0E94D10BCF5FC23048F3CF911B
:101A9000089595B19D7F95B9662329F095B1986019
:101AA00095B990E00EC095B1977F95B9FACF25B161
:101AB0002F7E25B925B1206225B925B12F7D25B905
:101AC0009F5F983088F447E050E0491B5109282F68
:101AD00030E002C0359527954A95E2F720FFE7CF21
:101AE00025B1206125B9E6CF85B1826085B9089519
:101AF00060E00E94490D089561E00E94490D08953B
:101B0000CF93DF9384B1826084B984B1846084B957
:101B100084B1886084B984B1806184B984B1806201
:101B200084B985B1846085B985B1826085B983EC5B
:101B300099E00197F1F700C0000085B18B7F85B96E
:101B40008BE594E40197F1F700C0000085B1846053
:101B500085B985B18D7F85B981E20E94780D83E1D9
:101B60000E94780D86E00E94780D82EC0E94780D2C
:101B700080E20E94780D89E00E94780D80E80E9442
:101B8000780D80E40E94780DD0E0C0E0C83F91E07D
:101B9000D90728F480E00E947C0D2196F7CF88E0D9
:101BA0000E94780D8CE00E94780DDF91CF9108950E
:101BB00080E80E94780D80E40E94780D109237042E
:101BC0001092380490E080E0883F21E0920730F4E2
:101BD000FC01E15CFD4F10820196F6CF0895882349
:101BE00021F080E20E94780D089584E2FBCF262F39
:101BF00026952695269590E034E5239F800D911D2E
:101C00001124442379F0677021E030E002C0220FF4
:101C1000331F6A95E2F7FC01E15CFD4F8081822B66
:101C200080830895677021E030E002C0220F331FE7
:101C30006A95E2F7FC01E15CFD4F20958081282345
:101C400020830895EF92FF920F931F93CF93DF931A
:101C5000E82EF62E00E041C06091380480913704F0
:101C6000610F40E0800F0E94F70D1F5FCE01880FCB
:101C7000991F880F991F880F991F8C1B9D0B181790
:101C8000190654F5EE2D0E2C000CFF0BB097802F8B
:101C90006F2D0E949A0F9F01220F331F220F331FB7
:101CA000E20FF31FE80FF11DE457FF4FE491F0E05E
:101CB000812F0E949A0F02C0F595E7958A95E2F769
:101CC000E0FFCACF6091380480913704610F41E092
:101CD000800F0E94F70DC9CF0F5FCF2DD0E0CE014E
:101CE000880F991F880F991F8C0F9D1F08171906C1
:101CF00014F410E0BBCFE7E3F4E08F2D880F880FDA
:101D00008F0D9081890F8F5F8083843568F01092EA
:101D10003704E8E3F4E08F2D880F880F880F8F19C0
:101D20009081890F8F5F808380913804803320F009
:101D30001092370410923804DF91CF911F910F91C8
:101D4000FF90EF9008951F93CF93DF93C82FD92F63
:101D5000162F8881882329F02196612F0E94220E58
:101D6000F8CFDF91CF911F9108958093370460934E
:101D700038040895CF93DF9380E80E94780D80E4C3
:101D80000E94780DD0E0C0E0C83F81E0D80740F461
:101D9000FE01E15CFD4F80810E947C0D2196F4CF15
:101DA000DF91CF9108950F931F93CF93DF9300D0CE
:101DB00000D000D0CDB7DEB7062F172F8E839D83BE
:101DC0008091390490913A04A0913B04B0913C0475
:101DD00089839A83AB83BC83262F372F4E815D8105
:101DE000BC01CD010E94D10F8823F1F120E030E049
:101DF000A90109831A839E819B83AD81AC8369818C
:101E00007A818B819C810E94D10F811138C0E1E9D8
:101E1000F0E080818870808328E539E344E75FE360
:101E200009831A83BE81BB838D818C8369817A810A
:101E30008B819C810E94D10F88233CF58FEF9FEF0F
:101E400090939900809398001092950010929400BE
:101E5000402F512F6E817D814093390450933A0475
:101E600060933B0470933C0426960FB6F894DEBF53
:101E70000FBECDBFDF91CF911F910F910895E1E982
:101E8000F0E0808183608083C7CF20E034E244EFBC
:101E900056E409831A839E819B83AD81AC8369815B
:101EA0007A818B819C810E94F31018162CF4109279
:101EB000990010929800C8CF20E030E040E053E451
:101EC00009831A83BE81BB838D818C8369817A816A
:101ED0008B819C810E94F810262F372F482F592F75
:101EE00060E074E284EF9AE40E94D60F69837A83FB
:101EF0008B839C8369817A818B819C810E944810AD
:101F0000462F572F41505109509399004093980004
:101F10009BCF80E4809390008BE08093910060E001
:101F200070E0CB010E94D30E0895109290001092A1
:101F300091000895991B79E004C0991F961708F045
:101F4000961B881F7A95C9F780950895A1E21A2EED
:101F5000AA1BBB1BFD010DC0AA1FBB1FEE1FFF1F4D
:101F6000A217B307E407F50720F0A21BB30BE40B9D
:101F7000F50B661F771F881F991F1A9469F76095E4
:101F80007095809590959B01AC01BD01CF0108959E
:101F9000EE0FFF1F0024001C0BBE0790F691E02DF2
:101FA00009940E947E1008F481E008950E94EA0FCF
:101FB0000C94B9100E94B21058F00E94AB1040F07F
:101FC00029F45F3F29F00C94A21051110C94ED10EC
:101FD0000C94A8100E94CA1068F39923B1F35523FA
:101FE00091F3951B550BBB27AA276217730784072C
:101FF00038F09F5F5F4F220F331F441FAA1FA9F3C2
:1020000035D00E2E3AF0E0E832D091505040E695AF
:10201000001CCAF72BD0FE2F29D0660F771F881F10
:10202000BB1F261737074807AB07B0E809F0BB0B03
:10203000802DBF01FF2793585F4F3AF09E3F510517
:1020400078F00C94A2100C94ED105F3FE4F3983EEE
:10205000D4F3869577956795B795F7959F5FC9F700
:10206000880F911D9695879597F90895E1E0660F81
:10207000771F881FBB1F621773078407BA0720F0FA
:10208000621B730B840BBA0BEE1F88F7E095089563
:102090000E944F106894B1110C94ED1008950E94A5
:1020A000D21088F09F5798F0B92F9927B751B0F008
:1020B000E1F0660F771F881F991F1AF0BA95C9F7CC
:1020C00014C0B13091F00E94EC10B1E008950C946E
:1020D000EC10672F782F8827B85F39F0B93FCCF321
:1020E000869577956795B395D9F73EF49095809549
:1020F000709561957F4F8F4F9F4F0895990F0008FE
:10210000550FAA0BE0E8FEEF16161706E807F907C9
:10211000C0F012161306E407F50798F0621B730B64
:10212000840B950B39F40A2661F0232B242B252BE5
:1021300021F408950A2609F4A140A6958FEF811D88
:10214000811D089597F99F6780E870E060E0089529
:102150009FEF80EC089500240A94161617061806BF
:102160000906089500240A9412161306140605069B
:102170000895092E0394000C11F4882352F0BB0F2C
:1021800040F4BF2B11F460FF04C06F5F7F4F8F4F8F
:102190009F4F089557FD9058440F551F59F05F3FCA
:1021A00071F04795880F97FB991F61F09F3F79F079
:1021B00087950895121613061406551FF2CF4695FB
:1021C000F1DF08C0161617061806991FF1CF86957D
:1021D0007105610508940895E894BB276627772761
:1021E000CB0197F908950E947E1008F48FEF0895AF
:1021F0000E940B110C94B9100E94AB1038F00E9491
:10220000B21020F0952311F00C94A2100C94A81099
:1022100011240C94ED100E94CA1070F3959FC1F325
:10222000950F50E0551F629FF001729FBB27F00D84
:10223000B11D639FAA27F00DB11DAA1F649F6627D9
:10224000B00DA11D661F829F2227B00DA11D621F28
:10225000739FB00DA11D621F839FA00D611D221FE2
:10226000749F3327A00D611D231F849F600D211DC6
:10227000822F762F6A2F11249F5750409AF0F1F049
:1022800088234AF0EE0FFF1FBB1F661F771F881FB2
:1022900091505040A9F79E3F510580F00C94A21038
:1022A0000C94ED105F3FE4F3983ED4F38695779558
:1022B0006795B795F795E7959F5FC1F7FE2B880F58
:1022C000911D9695879597F908950F931F93CF9336
:1022D000DF93CDB7DEB72E970FB6F894DEBF0FBEF3
:1022E000CDBF0D891E8986E08C831A8309838FEF09
:1022F0009FE79E838D83AE01475E5F4F6F89788D28
:10230000CE0101960E9495112F813885020F131F6F
:10231000F80110822E960FB6F894DEBF0FBECDBF27
:10232000DF91CF911F910F9108952F923F924F927D
:102330005F926F927F928F929F92AF92BF92CF9255
:10234000DF92EF92FF920F931F93CF93DF93CDB75E
:10235000DEB72F970FB6F894DEBF0FBECDBF7C015E
:102360003B018A01DC0117961C921E921697139668
:102370008C9181FFD8C19AE0292EFE0131964F0140
:10238000D70113969C91F30193FD859193FF819161
:102390003F01882309F448C1853239F493FD8591C2
:1023A00093FF81913F01853229F4B70190E00E94AB
:1023B000AC13E6CFB12C412C512CBFE1B51538F050
:1023C0008B3209F188F4803201F1833221F157FC1C
:1023D0003AC020ED280F2A3040F556FE1FC0B29CAF
:1023E000200D1124B22E06C08D3291F0803379F782
:1023F000689450F8F30193FD859193FF81913F011B
:102400008111DBCF20C0689451F8689452F8F2CF64
:10241000689453F8EFCF689454F8ECCF429C200DA9
:102420001124422E689455F8E5CF8E3229F456FCDB
:10243000FBC0689456F8DECF8C3619F4689457F8D0
:10244000D9CF8836B9F2982F9F7D95549330C0F03C
:102450008336A1F18337C1F1833509F05BC0D80120
:10246000CD90DD908D016B2D70E056FC02C06FEFBA
:102470007FEFC6010E9496135C01689457F80AC06A
:102480000C5F1F4FEFE3E983AA24A394B12C6401EE
:10249000E89457F853FC04C04A141B0409F018F5DB
:1024A000342CA114B10431F5332009F469CFB701FC
:1024B00080E290E00E94AC133A94F6CFD8018C9160
:1024C00089830E5F1F4FE0CFF801C190D1908F013B
:1024D0006B2D70E056FC02C06FEF7FEFC6010E94CB
:1024E000A1135C01D5CFB70180E290E00E94AC134C
:1024F0004A94D2CFF60157FC859157FE81916F0126
:10250000B70190E00E94AC1331103A94B1E0AB1ADD
:10251000B108C7CF843619F0893609F074C0F801C4
:1025200057FE6AC061917191819191918F01E52D62
:10253000EF76DE2E97FF09C0909580957095619596
:102540007F4F8F4F9F4F6894D7F82AE030E0A40167
:102550000E94DC13C82EC818AC2C5D2CD6FE0CC013
:10256000E89450F8CB1440F4D4FE05C0D2FC03C06C
:102570005D2D5E7E552EAB2C54FEADC0FE01EC0DE4
:10258000F11D8081803309F09FC0652D697E562E34
:10259000752D7870372E53FCADC050FEA7C0BC2CF3
:1025A000A41418F44C0CB42CBA1854FEA9C0B701EA
:1025B00080E390E00E94AC1352FE09C088E790E0EF
:1025C00051FE02C088E590E0B7010E94AC13CB1425
:1025D00008F4A2C0CA94D12C8FEFC81AD80AC80C2C
:1025E000D91CD6018E916D01B70190E00E94AC1309
:1025F0008C149D04B1F758CF61917191072E000C96
:10260000880B990B93CFD52CE894D4F82AE030E0CE
:102610008537E1F1F52DF97FDF2E803751F100F597
:10262000883551F18F3681F1F701868197812F9698
:102630000FB6F894DEBF0FBECDBFDF91CF911F91D3
:102640000F91FF90EF90DF90CF90BF90AF909F9051
:102650008F907F906F905F904F903F902F90089554
:10266000883711F7D4FE02C06894D2F820E130E038
:102670000DC06894D4F8F6CF54FE03C02F2F266007
:10268000D22E20E132E002C028E030E0F801D7FE8F
:1026900015C041915191619171914C875D876E8711
:1026A0007F878F01A4016C857D858E859F850E9423
:1026B000DC13C82EC818E894D7F84ECF81919191B9
:1026C000AC0170E060E0E9CF52FC02C0A39460CF9F
:1026D000A394A3945DCF852D867809F459CFF6CFC6
:1026E000B70180E290E00E94AC13A394A414C0F35D
:1026F000312C5BCF342C3A18A41408F456CFF8CF01
:10270000852D867809F463CF8BE251FE80E257FC79
:102710008DE2B70190E059CFB70180E390E00E94CD
:10272000AC13BA9454CF8FEF9FEF81CFFC0105908B
:10273000615070400110D8F7809590958E0F9F1FC3
:102740000895FC016150704001900110D8F7809508
:1027500090958E0F9F1F08950F931F93CF93DF9334
:10276000182F092FEB018B8181FD09C01FEF0FEF9F
:10277000812F902FDF91CF911F910F91089582FFAC
:1027800014C02E813F818C819D81281739073CF42C
:10279000E881F981CF0101969983888310838E8126
:1027A0009F8101969F838E83E3CFE885F985812FF2
:1027B0000995892BA1F3DACFFA01AA27283051F124
:1027C000203181F1E8946F936E7F6E5F7F4F8F4F62
:1027D0009F4FAF4FB1E03ED0B4E03CD0670F781FC1
:1027E000891F9A1FA11D680F791F8A1F911DA11DA6
:1027F0006A0F711D811D911DA11D20D009F46894DF
:102800003F912AE0269F11243019305D3193DEF686
:10281000CF010895462F4770405D4193B3E00FD03C
:10282000C9F7F6CF462F4F70405D4A3318F0495D27
:1028300031FD4052419302D0A9F7EACFB4E0A6950A
:102840009795879577956795BA95C9F7009761052C
:10285000710508959B01AC010A2E06945795479582
:1028600037952795BA95C9F7620F731F841F951F77
:10287000A01D0895F999FECF92BD81BDF89A9927C0
:1028800080B50895262FF999FECF92BD81BDF89AA3
:10289000019700B4021639F01FBA20BD0FB6F894A4
:1028A000FA9AF99A0FBE0895F894FFCF6E04530474
:1028B00035041704F903DB03CA0301093108500882
:1028C00066087E08A308A808BB08C308E308CF0869
:1028D000670C6A0C6D0C700C730C760C790C7C0C0C
:1028E000E70CEA0CED0CF00CF30CF60CF90CFC0CFC
:1028F00001000000063C42A581A599423C3C42A54E
:102900008199A5423C001818381818187E003C66BA
:10291000060C30607E003C66061C0C663C000C1CFD
:102920002C4C7E0C0C007C607E0606663C18781EE3
:1029300000400000000200000000DE010000000076
:10294000BD0464044B049604B104A204181E781854
:102950003E48692053636F72653A202564004465E0
:102960006C6574652048692053636F72653F002071
:102970005965732020202020203E4E6F003E59656F
:1029800073202020202020204E6F0054494D4520E8
:1029900052454D41494E494E470020494E535452ED
:1029A000554354494F4E5300202D2D2D2D2D2D2DA7
:1029B0002D2D2D2D2D005374617274203D20506CEF
:1029C0006179004C203D204C656674204D6F766522
:1029D0000052203D205269676874204D6F76650073
:1029E0003E203D2053656C6563740020205472794D
:1029F00020416761696E3F202000202020207072F6
:0E2A00006573733A2000205354415254000075
:00000001FF
