:100000000C9436010C9455010C9455010C94550137
:100010000C9455010C9455010C9455010C94550108
:100020000C9455010C9455010C9455010C945501F8
:100030000C9455010C94C1050C9455010C94550178
:100040000C9455010C9455010C9455010C945501D8
:100050000C9455010C9455010C9455010C945501C8
:100060000C9455010C9455010C9455010C945501B8
:100070000C9455010C9455010C9455010C945501A8
:100080000C9455010C9455010C945501000000008E
:100090000000005F00000007000700147F147F14B9
:1000A000242A7F2A122313086462364955225000FD
:1000B00005030000001C2241000041221C0014081E
:1000C0003E081408083E08080050300000080808E0
:1000D0000808006060000020100804023E514945F5
:1000E0003E00427F400042615149462141454B312B
:1000F0001814127F1027454545393C4A49493001BB
:10010000710905033649494936064949291E003611
:100110003600000056360000081422410014141462
:100120001414004122140802015109063249794190
:100130003E7E1111117E7F494949363E414141229F
:100140007F4141221C7F494949417F090909013EFC
:100150004149497A7F0808087F00417F41002040DB
:10016000413F017F081422417F404040407F020C04
:10017000027F7F0408107F3E4141413E7F0909090B
:10018000063E4151215E7F091929464649494931B8
:1001900001017F01013F4040403F1F2040201F3FA1
:1001A0004038403F63140814630708700807615122
:1001B000494543007F4141000204081020004141AD
:1001C0007F0004020102044040404040000102045C
:1001D0000020545454787F484444383844444420E0
:1001E000384444487F3854545418087E0901020C9E
:1001F0005252523E7F0804047800447D4000204063
:10020000443D007F1028440000417F40007C0418DA
:1002100004787C0804047838444444387C1414146A
:1002200008081414187C7C0804040848545454200A
:10023000043F4440203C4040207C1C2040201C3C8B
:100240004030403C44281028440C5050503C4464FA
:10025000544C44000836410000007F000000413645
:1002600008001008081008000000000011241FBE3C
:10027000CFEFD0E4DEBFCDBF12E0A0E0B1E0EAE115
:10028000F8E200E00BBF02C007900D92AE31B1075B
:10029000D9F724E0AEE1B2E001C01D92A93DB2075A
:1002A000E1F70E94200A0C94E9130C940000482FF7
:1002B000592F30E020E002C02F5F3F4F2417350751
:1002C0004CF490E080E0873063E09607ACF70000E4
:1002D0000196F9CF08959BB19F7B9BB988B98BB1EB
:1002E00080688BB900008BB18F778BB982E090E08A
:1002F0000E945701089581E00E946B0108958131A9
:1003000020F481580E946B01089581550E946B0171
:10031000089584E690E00E94570188E30E946B01F3
:1003200086E00E946B018FE00E946B0181E00E94D9
:100330006B018AE090E00E94570108959BB19064A0
:100340009BB988B98BB180688BB900008BB18F776E
:100350008BB981E090E00E94570108950F931F939D
:10036000CF93DF93182FC62FD72F0E947B01888150
:10037000882351F001E0010F812F0E947F018991B4
:100380000E949E01102FF3CFDF91CF911F910F910B
:1003900008951F93CF93DF93C62FD72F988199236A
:1003A00049F011E0180F0E947F0189910E949E017F
:1003B000812FF4CFDF91CF911F910895CF93C82F54
:1003C0008A3051F09091C00095FFFCCFC093C600D9
:1003D00090E080E0CF9108958DE00E94DE01F2CFA1
:1003E00020B1209527708230910569F17CF4009747
:1003F000E9F18130910549F42430A1F03091650490
:10040000313081F01092D004089508958330910521
:1004100041F4243069F581E08093650481E090E047
:1004200008950895243039F020916504213019F0A1
:100430001092D004089581E08093D0041092650456
:1004400082E090E008952091C204211104C030910F
:100450003002332369F0213021F020913002213025
:1004600039F41092D00483E090E0089581E090E0A8
:100470000895CF93DF93C82FD92F80913C01C230CC
:10048000D10581F1CCF0C330D10509F48EC0C43060
:10049000D10531F560E070E0CB010E94680E8091DB
:1004A0006504813009F494C08091D004813009F44E
:1004B0008FC08C2F9D2F93C0209709F48EC0C13020
:1004C000D10561F4109224021092230260E070E0E2
:1004D000CB010E94680E82E090E081C08C2F7FC02B
:1004E0008C2F7DC090913402913021F09091D004F6
:1004F0009130A1F08091C204813029F080913002C6
:10050000813009F04AC061E77DE98EEA93E40E94F8
:10051000680E1092230283E090E061C0853081F084
:100520008430B9F08330F1F0823029F1813061F10B
:1005300060E070E0CB010E94680E8C2F9D2F4FC0B1
:1005400060E070E084EC93E40E94680E8C2F9D2F95
:1005500046C060E070E08CED93E40E94680E8C2F42
:100560009D2F3DC06BE774ED82E993E40E94680E15
:100570008C2F9D2F34C060E070E084EC93E40E94E7
:10058000680E8C2F9D2F2BC060E070E08CED93E403
:100590000E94680E8C2F9D2F22C060E070E0CB017E
:1005A0000E94680E8C2F9D2F1AC0809124028230E9
:1005B00028F48F5F809324028C2F11C060E070E0DC
:1005C000CB010E94680E1092240284E090E007C0E4
:1005D0001092230282E090E002C081E090E0DF917F
:1005E000CF910895E6E9F4E010829CE4918388E7D6
:1005F00082831382E8E4F4E022E0208342E5418331
:100600003EE132831382E3EBF4E024E02083418374
:1006100032831382ECE5F4E026E020839183828329
:100620001382E5E7F4E028E020839183828321E0D0
:100630002383E3EDF4E05AE0508341833283238344
:10064000ECE4F4E03CE0308391838283238380E414
:1006500080934101E9E7F4E080919604909197043A
:10066000A0919804B091990480839183A283B3836D
:100670008091480490914904A0914A04B0914B04A0
:1006800084839583A683B7838091B3049091B40447
:10069000A091B504B091B60480879187A287B387F3
:1006A00080915C0490915D04A0915E04B0915F0420
:1006B00084879587A687B787809175049091760483
:1006C000A0917704B0917804808B918BA28BB38B2F
:1006D0008091D3049091D404A091D504B091D60414
:1006E000848B958BA68BB78B80914C0490914D0495
:1006F000A0914E04B0914F04808F918FA28FB38F41
:100700000895CF93E0913C01E730C8F4F0E0E55163
:10071000FC4E0C945D0F1092340211C080E00E94D8
:10072000960CC0E00AC0EC2FF0E0EC5CFE4F40817C
:100730006C2F80E00E94F30BCF5FC830A0F3CF9105
:10074000089580E00E94960CC0E00AC0EC2FF0E013
:10075000E45DFE4F40816C2F80E00E94F30BCF5F81
:10076000C830A0F3ECCF80E00E94960CC0E00AC035
:10077000EC2FF0E0EC5DFE4F40816C2F80E00E949A
:10078000F30BCF5FC830A0F3DACF80E00E94960C65
:10079000C0E00AC0EC2FF0E0E45EFE4F40816C2F19
:1007A00080E00E94F30BCF5FC830A0F3C8CFEC2FDE
:1007B000F0E0EC5EFE4F40816C2F80E00E94F30B76
:1007C000CF5FC830A0F3BBCFC0E0FBCF81E0809308
:1007D0003402B5CFCF9380E00E94960C81E00E9456
:1007E000960C0E94F202C0E00BC048E16C2F80E042
:1007F0000E94F30B48E16C2F81E00E94F30BCF5F66
:10080000C83098F3C0E00CC0880F991F880F991F5B
:10081000FC01E758FB4F428180E00E94F30BCF5F61
:10082000C730C8F48C2F90E0FC01EE0FFF1FEE0FD5
:10083000FF1FE758FB4F6081683030F3880F991F26
:10084000880F991FFC01E758FB4F6850428181E0F7
:100850000E94F30BE4CF40914101486166E081E0E2
:100860000E94F30BCF910895CF93C0E00BC048E1F5
:100870006C2F80E00E94F30B48E16C2F81E00E9416
:10088000F30BCF5FC83098F3C0E00CC0880F991FFE
:10089000880F991FFC01E758FB4F428180E00E94BE
:1008A000F30BCF5FC730C8F48C2F90E0FC01EE0F44
:1008B000FF1FEE0FFF1FE758FB4F6081683030F3DA
:1008C000880F991F880F991FFC01E758FB4F68504C
:1008D000428181E00E94F30BE4CF81E00E945C0C36
:1008E00040914101482B66E081E00E94F30BCF91DB
:1008F0000895CF93C0E00AC0EC2FF0E0E45FFE4F14
:1009000040816C2F80E00E94F30BCF5FC830A0F3D2
:10091000CF910895CF93C0E00AC0EC2FF0E0EC5FD8
:10092000FE4F40816C2F80E00E94F30BCF5FC830F8
:10093000A0F3CF910895282F392F2230310509F4E3
:1009400047C0DCF02430310509F478C0253031058A
:1009500059F580913302882309F48EC00E948A04DD
:100960008091D004813009F47FC08091650481308A
:1009700009F47AC085E090E008952115310549F029
:100980002130310589F480E00E94960C81E00E94BC
:10099000960C8091D004813049F1809165048130BA
:1009A00029F181E090E008952330310581F154F080
:1009B0002430310509F442C02530310551F2822F2F
:1009C000932F08952130310521F32230310559F458
:1009D00080913402813089F4822F932F2091340248
:1009E000213081F00895822F932F089510923402C0
:1009F00010922E0282E090E008950E94810383E02D
:100A000090E0ECCF0E94EA0384E090E008958091AA
:100A10002E028B3030F48F5F80932E02822F932F23
:100A2000089580913C01815080933C0180E00E94B8
:100A3000960C10922E0282E090E008958091C204FC
:100A4000813021F080913002813049F481E00E94B0
:100A5000960C80E00E94960C85E090E008950E943C
:100A6000340484E090E0089586E080933C01109285
:100A70002D0280E090E008950E9479048091D004D6
:100A8000813039F080916504813019F085E090E083
:100A9000A9CF86E080933C0110922D0280E090E087
:100AA00008950F931F93CF93DF9300D000D000D011
:100AB000CDB7DEB729833A834B835C8309811A81E2
:100AC0002B812E833C813D8329813A814B815C813E
:100AD0000E943B0F69837A838B839C83602F712FE5
:100AE0008E819D8129813A814B815C81232B242B2E
:100AF000252B21F726960FB6F894DEBF0FBECDBF8B
:100B0000DF91CF911F910F91089560930001709331
:100B10000101809302019093030160932802709376
:100B2000290280932A0290932B0208958BE08093F0
:100B300081008DE790E0909389008093880082E0A7
:100B400080936F00109285001092840080910001C4
:100B500090910101A0910201B091030180932802BC
:100B600090932902A0932A02B0932B028FB780683A
:100B70008FBF089510928100089581E080932C0228
:100B800008951F920F920FB60F9211240BB60F9279
:100B90002F933F934F935F936F937F938F939F9385
:100BA000AF93BF93EF93FF93809128029091290216
:100BB000A0912A02B0912B020197A109B10980935B
:100BC000280290932902A0932A02B0932B02892B2A
:100BD0008A2B8B2B99F0FF91EF91BF91AF919F9151
:100BE0008F917F916F915F914F913F912F910F90D6
:100BF0000BBE0F900FBE0F901F9018950E94BD0561
:100C00008091000190910101A0910201B091030136
:100C10008093280290932902A0932A02B0932B027A
:100C2000DACF90E001C09F5F9730B8F4292F30E011
:100C3000F901EE0FFF1FEE0FFF1FE758FB4F8081FA
:100C40008F5F80838F3079F7220F331F220F331F7E
:100C5000F901E758FB4F1082E6CF08958091A70471
:100C6000813029F090916004923061F00895909164
:100C700060049111F7CF82E08093410182E5809377
:100C8000500408958111F2CF80E4809341018CE4F7
:100C900080935004EBCF80E005C0909130029130FA
:100CA000F9F08F5F873000F5282F30E0F901EE0F63
:100CB000FF1FEE0FFF1FE758FB4F90819E3069F733
:100CC000220F331F220F331FF901E758FB4F2181F9
:100CD000909150042913E1CF81E08093C2040895DC
:100CE00081E08093C2040895089520B130E02095FA
:100CF0003095237033278330910509F44CC00CF5EF
:100D00008130910591F182309105B1F41092660421
:100D10004091C204413089F1A9014150510942304A
:100D2000510558F5822F81708093A704227020937B
:100D3000600483E090E008950097F9F481E090E08A
:100D400008958430910561F18530910569F4209111
:100D5000D004213021F020916504213071F41092EB
:100D6000C20481E090E0089508952091D0042130DC
:100D700029F020916504213009F008951092C204F1
:100D80001092470480E4809341018CE480935004E6
:100D900082E090E00895232B81F784E090E00895AD
:100DA0000E942E060E944B060E9411060E944B06CE
:100DB0008091C204813051F080913002813019F06D
:100DC00082E090E0DACF85E090E0089585E090E061
:100DD00008958091C204811108C080913002811170
:100DE00004C080913402813049F0609127028091E3
:100DF0009504681748F410923302089580912702F1
:100E00008F5F80932702F1CF6093950481E08093F8
:100E1000330281E090E00E94D7130895809131025F
:100E2000813009F008951092950460E081E090E02F
:100E30000E94D71310923102F5CF1F93CF93DF9307
:100E4000CDB7DEB7A0970FB6F894DEBF0FBECDBF0B
:100E5000162F8A3008F43FC01F928F9380E691E0EE
:100E60009F938F93CE0101969F938F930E94FA10C8
:100E70000F900F900F900F900F900F90BE016F5F2B
:100E80007F4F81E00E94AE0181E10E947F011A3014
:100E9000A8F11F921F9383E691E09F938F93CE0159
:100EA00041969F938F930E94FA100F900F900F908E
:100EB0000F900F900F90BE016F5E7F4F81E10E94F7
:100EC000C901A0960FB6F894DEBF0FBECDBFDF916B
:100ED000CF911F9108951F928F9380E691E09F9389
:100EE0008F93CE0101969F938F930E94FA100F90DB
:100EF0000F900F900F900F900F90C0CF1F921F93E5
:100F000083E691E09F938F93CE0141969F938F93B9
:100F10000E94FA100F900F900F900F900F900F906B
:100F2000CACF6EE671E081E00E94AE016FE771E02A
:100F300081E10E94C90108956EE671E081E00E949E
:100F4000AE016DE871E081E10E94C901089581E080
:100F500090E00E94CF138F3F19F08093950408957D
:100F6000109295040895282F392F80B180958F70A5
:100F70002B30310528F4F901EE50FC4E0C945D0F36
:100F8000822F089580913C01853021F01092270234
:100F9000822F08950E94A70760919504662351F05F
:100FA0001092270260E0809195040E941D0782E064
:100FB00090E0089581E090E00E94D713109295048C
:100FC000EFCF8150823058F08091C204813009F413
:100FD000ACC080913002813039F0822F08950E9498
:100FE000E90683E090E0089584E090E00895882386
:100FF00069F08091C204813009F49AC08091300276
:10100000813009F498C0822F932F089560912702B0
:10101000809195040E941D0722E030E0EACF909174
:10102000D004913079F090916504913059F090910D
:10103000C204913061F090913002913041F0822FE2
:10104000932F08951092270280E090E00895883051
:1010500019F0822F932F08950E949C0781E08093BE
:10106000310285E090E00895811168C086E090E04B
:101070000895883009F464C0823021F0813039F05D
:10108000822F089581E080933102822F089510927B
:10109000310288E090E00895883009F454C081114D
:1010A00054C089E090E00895813009F450C088234D
:1010B00011F0822F08950E9491078AE090E0089530
:1010C000813009F446C0823021F0883051F0822FFF
:1010D000089581E0809331020E949C0786E090E0B1
:1010E000089587E090E0089580913102882321F0EF
:1010F000813061F0822F08951092270260E0809184
:1011000095040E941D0784E090E008950E940E0758
:101110001092270260E0809195040E941D0784E0F0
:1011200090E0089581E090E0089584E090E00895D3
:1011300084E090E0089584E090E00895822F08957F
:1011400087E090E00895822F0895822F0895822FDE
:10115000089588E090E008950F931F93CF93DF9355
:1011600000D000D00F92CDB7DEB71A821982FE01EF
:10117000339683E0DF011D928A95E9F70E946D0D99
:1011800065E081E00E944A0E61E08BE991E00E94F7
:10119000380E809169041F928F938AE691E09F93A5
:1011A0008F938E010F5F1F4F1F930F930E94FA10B2
:1011B0006FE08DE00E944A0E64E0C8010E94380E84
:1011C0000E944F0E0F900F900F900F900F900F9066
:1011D0000F900F900F900F900F90DF91CF911F9174
:1011E0000F9108950E946D0D60E080E00E944A0E0C
:1011F00061E08AEA91E00E94380E68E080E00E9497
:101200004A0E61E088EB91E00E94380E60E181E0D7
:101210000E944A0E61E086EC91E00E94380E68E17F
:1012200081E00E944A0E61E083ED91E00E94380E59
:1012300060E281E00E944A0E61E081EE91E00E944E
:10124000380E68E281E00E944A0E61E080EF91E092
:101250000E94380E0E944F0E08950E946D0D62E0AC
:1012600080E00E944A0E61E08BEF91E00E94380E10
:101270006CE080E00E944A0E61E08AE092E00E9409
:10128000380E69E183E00E944A0E62E086E192E056
:101290000E94380E0E944F0E0895CF93DF93C82FFF
:1012A000D92F80B180958370C230D105D1F1C4F0BF
:1012B000C330D10509F44AC0C430D10531F580915D
:1012C000D004813029F080916504813009F087C015
:1012D000109230028AE08093690481E090E086C039
:1012E000209709F481C0C130D10569F480913C0197
:1012F000813021F48091C204882349F00E94F208D1
:101300008C2F9D2F73C08C2F71C08C2F6FC08AE0E3
:1013100080936904109226020E94AC0882E090E05B
:1013200065C0811105C090913C01992309F461C009
:101330008150823008F460C08091C204813019F07D
:101340008C2F9D2F53C084E090E050C0811120C0AD
:101350008091C20481111CC080912602863020F049
:101360008091690481110AC08091690481112EC0A5
:1013700081E08093300284E090E015C0815080933A
:1013800069040E94AC0810922602C2E0D0E0ECCFC3
:101390008091690481110DC081E080933002109228
:1013A000260284E090E0209126022F5F20932602FF
:1013B0001DC08091C204813061F080913002813083
:1013C00059F01092260282E090E0EDCF8C2F9D2FF5
:1013D000EACF84E090E0E7CF84E090E0E4CF0E94A1
:1013E0002D098C2F9D2F02C081E090E0DF91CF91DD
:1013F000089583E090E0FACF8C2F9D2FF7CFCF9305
:10140000DF9300D000D0CDB7DEB720912302222396
:1014100039F00F900F900F900F90DF91CF910895BA
:1014200069837A838B839C8369817A818B819C8198
:101430000E94680E809123028F5F80932302E9CF80
:10144000CDB7DEB72C970FB6F894DEBF0FBECDBF79
:1014500011B88FEF82B98AB91BB887B918B884B9A7
:1014600015B80E94A80C0E9489010E94150D0E94C7
:101470001E0F62E370E080E090E00E9485050E940C
:1014800096058CE0E0E5F1E0DE01119601900D9209
:101490008A95E1F7E5ECF4E0108282E390E0A0E0C9
:1014A000B0E081839283A383B48385839683A783EB
:1014B000B0872BE934E032872187EAE6F4E0108236
:1014C00081839283A383B48385839683A783B08724
:1014D00025E736E032872187E1E5F4E01082818359
:1014E0009283A383B48385839683A783B08723EBFA
:1014F00037E032872187ECE9F4E010828183928320
:10150000A383B48385839683A783B0872DE439E0D2
:1015100032872187E7EBF4E0108281839283A383F3
:10152000B48385839683A783B08780EF91E0928709
:101530008187E8EAF4E0108284E690E0A0E0B0E081
:1015400081839283A383B48385839683A783B087A3
:1015500089E392E09287818745C0F8018581968171
:10156000A781B085C296A11DB11D85839683A783EF
:10157000B087F394F5E0FF1578F1EF2DF0E0EE0F72
:10158000FF1F81E090E08C0F9D1FE80FF91F008185
:101590001181D80115964D915D916D917C911897AF
:1015A00011968D919D910D90BC91A02D48175907D2
:1015B0006A077B0790F2D8011996ED91FC911A9772
:1015C0008C91082E000C990B0995F80180831582E7
:1015D000168217821086C1CF80912C028823E1F3F6
:1015E00010922C02F12CC6CF98E007C02BB12B7FB4
:1015F0002BB92BB128602BB991509923E9F0292FF1
:101600002150330BB90141E050E002C0440F551F97
:101610002A95E2F7282F30E02423352302C03595A0
:1016200027956A95E2F73BB1377F3BB92223F1F268
:101630002BB124602BB9DDCF08950F931F93CF9367
:10164000DF93D82F062F142F823028F0DF91CF910F
:101650001F910F9108958BB18F7E8BB9CD2F07C04D
:1016600080E00E94F40A80E00E94F40ACF5FCC235D
:10167000B9F3802F0E94F40A812F0E94F40AC0E07F
:10168000CD1720F08BB180618BB9E0CF80E00E9454
:10169000F40A80E00E94F40ACF5FF2CF623008F0D3
:1016A0000895462F6CE00E941D0BFACF603108F0C0
:1016B0000895462F6AE00E941D0BFACF623008F0B1
:1016C0000895462F6FE00E941D0BFACF683008F096
:1016D0000895462F6BE00E941D0BFACF462F69E05C
:1016E0000E941D0B0895462FE82FF0E0EE0FFF1F1C
:1016F000EE0FFF1FEE0FFF1FEB5CFD4F608361E0FD
:101700000E941D0B0895462FE82FF0E0EE0FFF1FFB
:10171000EE0FFF1FEE0FFF1FEB5CFD4F618362E0DA
:101720000E941D0B0895462FE82FF0E0EE0FFF1FDB
:10173000EE0FFF1FEE0FFF1FEB5CFD4F628363E0B8
:101740000E941D0B0895462FE82FF0E0EE0FFF1FBB
:10175000EE0FFF1FEE0FFF1FEB5CFD4F638364E096
:101760000E941D0B0895462FE82FF0E0EE0FFF1F9B
:10177000EE0FFF1FEE0FFF1FEB5CFD4F648365E074
:101780000E941D0B0895462FE82FF0E0EE0FFF1F7B
:10179000EE0FFF1FEE0FFF1FEB5CFD4F658366E052
:1017A0000E941D0B0895462FE82FF0E0EE0FFF1F5B
:1017B000EE0FFF1FEE0FFF1FEB5CFD4F668367E030
:1017C0000E941D0B0895462FE82FF0E0EE0FFF1F3B
:1017D000EE0FFF1FEE0FFF1FEB5CFD4F678368E00E
:1017E0000E941D0B0895E62F642FE830E0F4F0E02E
:1017F000E350FC4E0C945D0F0E94730B08950E9401
:10180000830B08950E94930B08950E94A30B0895E3
:101810000E94B30B08950E94C30B08950E94D30B3E
:1018200008950E94E30B0895E82FF0E0EE0FFF1FEC
:10183000EE0FFF1FEE0FFF1FEB5CFD4F8081089541
:10184000E82FF0E0EE0FFF1FEE0FFF1FEE0FFF1F60
:10185000EB5CFD4F81810895E82FF0E0EE0FFF1F54
:10186000EE0FFF1FEE0FFF1FEB5CFD4F828108950F
:10187000E82FF0E0EE0FFF1FEE0FFF1FEE0FFF1F30
:10188000EB5CFD4F83810895E82FF0E0EE0FFF1F22
:10189000EE0FFF1FEE0FFF1FEB5CFD4F84810895DD
:1018A000E82FF0E0EE0FFF1FEE0FFF1FEE0FFF1F00
:1018B000EB5CFD4F85810895E82FF0E0EE0FFF1FF0
:1018C000EE0FFF1FEE0FFF1FEB5CFD4F86810895AB
:1018D000E82FF0E0EE0FFF1FEE0FFF1FEE0FFF1FD0
:1018E000EB5CFD4F878108956830F0F4E62FF0E05F
:1018F000EB5FFB4E0C945D0F0E94140C08950E9448
:10190000200C08950E942C0C08950E94380C089514
:101910000E94440C08950E94500C08950E945C0C93
:1019200008950E94680C089580E00895CF93DF9396
:10193000D82F823050F4C0E006C040E06C2F8D2FCD
:101940000E94F30BCF5FC830C0F3DF91CF910895B1
:10195000CF938AB184608AB98AB188608AB98AB122
:1019600080618AB98BB18B7F8BB98BB1877F8BB943
:101970008BB18F7E8BB9C0E004C08C2F0E94960C77
:10198000CF5FC230D0F3C0E015C061E08C2F0E9461
:101990004E0B60E08C2F0E945E0B60E08C2F0E944B
:1019A0006E0B62E08C2F0E94560B67E08C2F0E941A
:1019B000660BCF5FC23048F3CF91089595B19D7FFC
:1019C00095B9662329F095B1986095B990E00EC05D
:1019D00095B1977F95B9FACF25B12F7E25B925B15D
:1019E000206225B925B12F7D25B99F5F983088F4F5
:1019F00047E050E0491B5109282F30E002C03595DF
:101A000027954A95E2F720FFE7CF25B1206125B958
:101A1000E6CF85B1826085B9089560E00E94DE0C52
:101A2000089561E00E94DE0C0895CF93DF9384B1A6
:101A3000826084B984B1846084B984B1886084B9D7
:101A400084B1806184B984B1806284B985B18460D5
:101A500085B985B1826085B983EC99E00197F1F78A
:101A600000C0000085B18B7F85B98BE594E40197B8
:101A7000F1F700C0000085B1846085B985B18D7F24
:101A800085B981E20E940D0D83E10E940D0D86E073
:101A90000E940D0D82EC0E940D0D80E20E940D0D42
:101AA00089E00E940D0D80E80E940D0D80E40E94E7
:101AB0000D0DD0E0C0E0C83F91E0D90728F480E0E8
:101AC0000E94110D2196F7CF88E00E940D0D8CE049
:101AD0000E940D0DDF91CF91089580E80E940D0DB9
:101AE00080E40E940D0D10923D0410923E0490E09F
:101AF00080E0883F21E0920730F4FC01EB5BFD4F72
:101B000010820196F6CF0895882321F080E20E948A
:101B10000D0D089584E2FBCF262F26952695269558
:101B200090E034E5239F800D911D1124442379F02A
:101B3000677021E030E002C0220F331F6A95E2F7A0
:101B4000FC01EB5BFD4F8081822B808308956770E1
:101B500021E030E002C0220F331F6A95E2F7FC015A
:101B6000EB5BFD4F20958081282320830895EF9221
:101B7000FF920F931F93CF93DF93E82EF62E00E092
:101B800041C060913E0480913D04610F40E0800FB0
:101B90000E948C0D1F5FCE01880F991F880F991F1F
:101BA000880F991F8C1B9D0B1817190654F5EE2DE5
:101BB0000E2C000CFF0BB097802F6F2D0E942F0F63
:101BC0009F01220F331F220F331FE20FF31FE80F75
:101BD000F11DE457FF4FE491F0E0812F0E942F0F99
:101BE00002C0F595E7958A95E2F7E0FFCACF6091CC
:101BF0003E0480913D04610F41E0800F0E948C0DF6
:101C0000C9CF0F5FCF2DD0E0CE01880F991F880F6D
:101C1000991F8C0F9D1F0817190614F410E0BBCFF5
:101C2000EDE3F4E08F2D880F880F8F0D9081890FE1
:101C30008F5F8083843568F010923D04EEE3F4E01A
:101C40008F2D880F880F880F8F199081890F8F5FD4
:101C5000808380913E04803320F010923D041092E6
:101C60003E04DF91CF911F910F91FF90EF90089567
:101C70001F93CF93DF93C82FD92F162F88818823E6
:101C800029F02196612F0E94B70DF8CFDF91CF91F7
:101C90001F91089580933D0460933E040895CF936F
:101CA000DF9380E80E940D0D80E40E940D0DD0E0CE
:101CB000C0E0C83F81E0D80740F4FE01EB5BFD4F78
:101CC00080810E94110D2196F4CFDF91CF9108956C
:101CD0000F931F93CF93DF9300D000D000D0CDB7E8
:101CE000DEB7062F172F8E839D8380913F0490913E
:101CF0004004A0914104B091420489839A83AB834C
:101D0000BC83262F372F4E815D81BC01CD010E94FF
:101D1000660F8823F1F120E030E0A90109831A83DE
:101D20009E819B83AD81AC8369817A818B819C810B
:101D30000E94660F811138C0E1E9F0E0808188706F
:101D4000808328E539E344E75FE309831A83BE8192
:101D5000BB838D818C8369817A818B819C810E9478
:101D6000660F88233CF58FEF9FEF90939900809347
:101D700098001092950010929400402F512F6E8180
:101D80007D8140933F0450934004609341047093DD
:101D9000420426960FB6F894DEBF0FBECDBFDF918A
:101DA000CF911F910F910895E1E9F0E08081836068
:101DB0008083C7CF20E034E244EF56E409831A83DE
:101DC0009E819B83AD81AC8369817A818B819C816B
:101DD0000E94881018162CF4109299001092980006
:101DE000C8CF20E030E040E053E409831A83BE818D
:101DF000BB838D818C8369817A818B819C810E94D8
:101E00008D10262F372F482F592F60E074E284EF72
:101E10009AE40E946B0F69837A838B839C83698128
:101E20007A818B819C810E94DD0F462F572F415074
:101E3000510950939900409398009BCF80E4809380
:101E400090008BE08093910060E070E0CB010E94F5
:101E5000680E089510929000109291000895991BB9
:101E600079E004C0991F961708F0961B881F7A9591
:101E7000C9F780950895A1E21A2EAA1BBB1BFD018C
:101E80000DC0AA1FBB1FEE1FFF1FA217B307E40759
:101E9000F50720F0A21BB30BE40BF50B661F771FB1
:101EA000881F991F1A9469F7609570958095909591
:101EB0009B01AC01BD01CF010895EE0FFF1F00246F
:101EC000001C0BBE0790F691E02D09940E941310A0
:101ED00008F481E008950E947F0F0C944E100E9438
:101EE000471058F00E94401040F029F45F3F29F05D
:101EF0000C94371051110C9482100C943D100E94D8
:101F00005F1068F39923B1F3552391F3951B550B9B
:101F1000BB27AA2762177307840738F09F5F5F4FBC
:101F2000220F331F441FAA1FA9F335D00E2E3AF0FB
:101F3000E0E832D091505040E695001CCAF72BD013
:101F4000FE2F29D0660F771F881FBB1F2617370764
:101F50004807AB07B0E809F0BB0B802DBF01FF2796
:101F600093585F4F3AF09E3F510578F00C9437102C
:101F70000C9482105F3FE4F3983ED4F386957795F6
:101F80006795B795F7959F5FC9F7880F911D96954F
:101F9000879597F90895E1E0660F771F881FBB1FAB
:101FA000621773078407BA0720F0621B730B840B58
:101FB000BA0BEE1F88F7E09508950E94E40F68942D
:101FC000B1110C94821008950E94671088F09F57F9
:101FD00098F0B92F9927B751B0F0E1F0660F771F4D
:101FE000881F991F1AF0BA95C9F714C0B13091F043
:101FF0000E948110B1E008950C948110672F782F12
:102000008827B85F39F0B93FCCF386957795679507
:10201000B395D9F73EF490958095709561957F4F73
:102020008F4F9F4F0895990F0008550FAA0BE0E8B6
:10203000FEEF16161706E807F907C0F0121613068A
:10204000E407F50798F0621B730B840B950B39F4CA
:102050000A2661F0232B242B252B21F408950A2630
:1020600009F4A140A6958FEF811D811D089597F970
:102070009F6780E870E060E008959FEF80EC08952E
:1020800000240A9416161706180609060895002457
:102090000A9412161306140605060895092E0394D1
:1020A000000C11F4882352F0BB0F40F4BF2B11F445
:1020B00060FF04C06F5F7F4F8F4F9F4F089557FDA4
:1020C0009058440F551F59F05F3F71F04795880FA6
:1020D00097FB991F61F09F3F79F08795089512163D
:1020E00013061406551FF2CF4695F1DF08C01616E9
:1020F00017061806991FF1CF86957105610508949A
:102100000895E894BB2766277727CB0197F90895B0
:102110000E94131008F48FEF08950E94A0100C94F1
:102120004E100E94401038F00E94471020F0952376
:1021300011F00C9437100C943D1011240C94821063
:102140000E945F1070F3959FC1F3950F50E0551FEB
:10215000629FF001729FBB27F00DB11D639FAA27FC
:10216000F00DB11DAA1F649F6627B00DA11D661F4B
:10217000829F2227B00DA11D621F739FB00DA11D6C
:10218000621F839FA00D611D221F749F3327A00D26
:10219000611D231F849F600D211D822F762F6A2FC2
:1021A00011249F5750409AF0F1F088234AF0EE0F27
:1021B000FF1FBB1F661F771F881F91505040A9F754
:1021C0009E3F510580F00C9437100C9482105F3FB5
:1021D000E4F3983ED4F3869577956795B795F79590
:1021E000E7959F5FC1F7FE2B880F911D9695879508
:1021F00097F908950F931F93CF93DF93CDB7DEB771
:102200002E970FB6F894DEBF0FBECDBF0D891E8985
:1022100086E08C831A8309838FEF9FE79E838D83EB
:10222000AE01475E5F4F6F89788DCE0101960E94A7
:102230002A112F813885020F131FF80110822E9664
:102240000FB6F894DEBF0FBECDBFDF91CF911F91C7
:102250000F9108952F923F924F925F926F927F92CB
:102260008F929F92AF92BF92CF92DF92EF92FF92A6
:102270000F931F93CF93DF93CDB7DEB72F970FB692
:10228000F894DEBF0FBECDBF7C013B018A01DC01AB
:1022900017961C921E92169713968C9181FFD8C1A7
:1022A0009AE0292EFE0131964F01D70113969C9199
:1022B000F30193FD859193FF81913F01882309F4F8
:1022C00048C1853239F493FD859193FF81913F0197
:1022D000853229F4B70190E00E944113E6CFB12C7A
:1022E000412C512CBFE1B51538F08B3209F188F43F
:1022F000803201F1833221F157FC3AC020ED280FE2
:102300002A3040F556FE1FC0B29C200D1124B22E7B
:1023100006C08D3291F0803379F7689450F8F3015C
:1023200093FD859193FF81913F018111DBCF20C007
:10233000689451F8689452F8F2CF689453F8EFCF4C
:10234000689454F8ECCF429C200D1124422E6894DE
:1023500055F8E5CF8E3229F456FCFBC0689456F848
:10236000DECF8C3619F4689457F8D9CF8836B9F295
:10237000982F9F7D95549330C0F08336A1F1833719
:10238000C1F1833509F05BC0D801CD90DD908D019E
:102390006B2D70E056FC02C06FEF7FEFC6010E940C
:1023A0002B135C01689457F80AC00C5F1F4FEFE3D2
:1023B000E983AA24A394B12C6401E89457F853FC50
:1023C00004C04A141B0409F018F5342CA114B104FC
:1023D00031F5332009F469CFB70180E290E00E9423
:1023E00041133A94F6CFD8018C9189830E5F1F4F29
:1023F000E0CFF801C190D1908F016B2D70E056FCB9
:1024000002C06FEF7FEFC6010E9436135C01D5CF8B
:10241000B70180E290E00E9441134A94D2CFF601C6
:1024200057FC859157FE81916F01B70190E00E94A2
:10243000411331103A94B1E0AB1AB108C7CF8436DA
:1024400019F0893609F074C0F80157FE6AC061912D
:102450007191819191918F01E52DEF76DE2E97FF9D
:1024600009C090958095709561957F4F8F4F9F4FD4
:102470006894D7F82AE030E0A4010E947113C82EB6
:10248000C818AC2C5D2CD6FE0CC0E89450F8CB14C8
:1024900040F4D4FE05C0D2FC03C05D2D5E7E552EF7
:1024A000AB2C54FEADC0FE01EC0DF11D80818033DC
:1024B00009F09FC0652D697E562E752D7870372ED8
:1024C00053FCADC050FEA7C0BC2CA41418F44C0C97
:1024D000B42CBA1854FEA9C0B70180E390E00E9462
:1024E000411352FE09C088E790E051FE02C088E522
:1024F00090E0B7010E944113CB1408F4A2C0CA9423
:10250000D12C8FEFC81AD80AC80CD91CD6018E91CD
:102510006D01B70190E00E9441138C149D04B1F746
:1025200058CF61917191072E000C880B990B93CFB6
:10253000D52CE894D4F82AE030E08537E1F1F52D88
:10254000F97FDF2E803751F100F5883551F18F3654
:1025500081F1F701868197812F960FB6F894DEBF3F
:102560000FBECDBFDF91CF911F910F91FF90EF90E4
:10257000DF90CF90BF90AF909F908F907F906F90A3
:102580005F904F903F902F900895883711F7D4FEB9
:1025900002C06894D2F820E130E00DC06894D4F80D
:1025A000F6CF54FE03C02F2F2660D22E20E132E05A
:1025B00002C028E030E0F801D7FE15C041915191EA
:1025C000619171914C875D876E877F878F01A40130
:1025D0006C857D858E859F850E947113C82EC818D5
:1025E000E894D7F84ECF81919191AC0170E060E012
:1025F000E9CF52FC02C0A39460CFA394A3945DCF13
:10260000852D867809F459CFF6CFB70180E290E0A6
:102610000E944113A394A414C0F3312C5BCF342C3B
:102620003A18A41408F456CFF8CF852D867809F40B
:1026300063CF8BE251FE80E257FC8DE2B70190E060
:1026400059CFB70180E390E00E944113BA9454CF70
:102650008FEF9FEF81CFFC0105906150704001101A
:10266000D8F7809590958E0F9F1F0895FC016150BB
:10267000704001900110D8F7809590958E0F9F1FA4
:1026800008950F931F93CF93DF93182F092FEB011A
:102690008B8181FD09C01FEF0FEF812F902FDF91FC
:1026A000CF911F910F91089582FF14C02E813F8119
:1026B0008C819D81281739073CF4E881F981CF018D
:1026C00001969983888310838E819F8101969F83D1
:1026D0008E83E3CFE885F985812F0995892BA1F3B6
:1026E000DACFFA01AA27283051F1203181F1E8949C
:1026F0006F936E7F6E5F7F4F8F4F9F4FAF4FB1E0F5
:102700003ED0B4E03CD0670F781F891F9A1FA11DEF
:10271000680F791F8A1F911DA11D6A0F711D811DF0
:10272000911DA11D20D009F468943F912AE0269FB5
:1027300011243019305D3193DEF6CF010895462F14
:102740004770405D4193B3E00FD0C9F7F6CF462FF5
:102750004F70405D4A3318F0495D31FD405241935E
:1027600002D0A9F7EACFB4E0A6959795879577951B
:102770006795BA95C9F700976105710508959B01A2
:10278000AC010A2E06945795479537952795BA952B
:10279000C9F7620F731F841F951FA01D0895F99933
:1027A000FECF92BD81BDF89A992780B50895262F56
:1027B000F999FECF92BD81BDF89A019700B4021637
:1027C00039F01FBA20BD0FB6F894FA9AF99A0FBEE5
:1027D0000895F894FFCFE603E403C503B303A10310
:1027E0008E038B039208C207E107F7070F0834082E
:1027F00039084C08540874086008FC0BFF0B020CE5
:10280000050C080C0B0C0E0C110C7C0C7F0C820CB4
:0A281000850C880C8B0C8E0C910CCB
:10281A00010000003C42A581A599423C3C42A581A9
:10282A0099A5423C001818381818187E003C66060C
:10283A000C30607E003C66061C0C663C000C1C2CAE
:10284A004C7E0C0C007C607E0606663C0618781EE0
:10285A0000400000000200000000DE01000000004D
:10286A00C5046A0451049C04B704A804181E781805
:10287A003E48692053636F72653A202564004465B7
:10288A006C6574652048692053636F72653F002048
:10289A005965732020202020203E4E6F003E596546
:1028AA0073202020202020204E6F0054494D4520BF
:1028BA0052454D41494E494E470020494E535452C4
:1028CA00554354494F4E5300202D2D2D2D2D2D2D7E
:1028DA002D2D2D2D2D005374617274203D20506CC6
:1028EA006179004C203D204C656674204D6F7665F9
:1028FA000052203D205269676874204D6F7665004A
:10290A003E203D2053656C65637400202054727923
:10291A0020416761696E3F202000202020207072CC
:0E292A006573733A200020535441525400004C
:00000001FF
