:100000000C9446000C9465000C9465000C946500FB
:100010000C9465000C9465000C9465000C946500CC
:100020000C9465000C9465000C9465000C946500BC
:100030000C9465000C94C3020C9465000C9465004C
:100040000C9465000C9465000C9465000C9465009C
:100050000C9465000C9465000C9465000C9465008C
:100060000C9465000C9465000C9465000C9465007C
:100070000C9465000C9465000C9465000C9465006C
:100080000C9465000C9465000C94650011241FBE4F
:10009000CFEFD0E4DEBFCDBF11E0A0E0B1E0E2EEF3
:1000A000FCE000E00BBF02C007900D92AC34B1073A
:1000B000D9F721E0ACE4B1E001C01D92AF3BB2073B
:1000C000E1F70E94C2030C945F060C940000CF93EA
:1000D000C82F8A3051F09091C00095FFFCCFC0939B
:1000E000C60090E080E0CF9108958DE00E94670007
:1000F000F2CFE3EAF1E010829CE4918388E7828307
:100100001382E6E6F1E022E0208342E541833EE10E
:1001100032831382EAEAF1E024E0208341833283D0
:100120001382EFE6F1E026E020839183828313823D
:10013000E3E8F1E028E020839183828321E02383B8
:10014000EBEBF1E05AE05083418332832383EAE60C
:10015000F1E03CE03083918382832383E7E8F1E0A0
:100160008091A3019091A401A091A501B091A60155
:1001700080839183A283B38380916601909167010C
:10018000A0916801B091690184839583A683B783A8
:100190008091AA019091AB01A091AC01B091AD0109
:1001A00080879187A287B38780916F0190917001BA
:1001B000A0917101B091720184879587A687B78756
:1001C0008091830190918401A0918501B091860175
:1001D000808B918BA28BB38B8091BB019091BC01E2
:1001E000A091BD01B091BE01848B958BA68BB78B7E
:1001F00080916A0190916B01A0916C01B0916D01A9
:10020000808F918FA28FB38F0895CF938091040137
:100210008430D9F158F4823009F45DC0833011F490
:10022000C0E03FC08130D9F4C0E061C08530C9F082
:100230008630A9F481508093040111C0EC2FF0E0C6
:10024000E35DFE4F40816C2F80E00E944905CF5F47
:10025000C830A0F380910401815080930401CF91B4
:100260000895C0E0F5CFEC2FF0E0EB5DFE4F40814C
:100270006C2F80E00E944905CF5FC830A0F38091C9
:100280000401815080930401EACFC0E0F6CFEC2F47
:10029000F0E0E35EFE4F40816C2F80E00E94490554
:1002A000CF5FC830A0F38091040181508093040196
:1002B000D6CFEC2FF0E0EB5EFE4F40816C2F80E05C
:1002C0000E944905CF5FC830A0F38091040181509E
:1002D00080930401C4CFC0E0F6CFEC2FF0E0E35FE1
:1002E000FE4F40816C2F80E00E944905CF5FC830EF
:1002F000A0F310920401B3CFCF9380E00E94EC05ED
:1003000081E00E94EC050E947900C0E00BC048E14A
:100310006C2F80E00E94490548E16C2F81E00E942B
:100320004905CF5FC83098F3C0E00CC0880F991F13
:10033000880F991FFC01E957FE4F428180E00E941F
:100340004905CF5FC730C8F48C2F90E0FC01EE0F59
:10035000FF1FEE0FFF1FE957FE4F6081683030F33B
:10036000880F991F880F991FFC01E957FE4F6850AD
:10037000428181E00E944905E4CF40913901486102
:1003800066E081E00E944905CF910895CF93C0E0D7
:100390000BC048E16C2F80E00E94490548E16C2FBA
:1003A00081E00E944905CF5FC83098F3C0E00CC0DF
:1003B000880F991F880F991FFC01E957FE4F428152
:1003C00080E00E944905CF5FC730C8F48C2F90E0D1
:1003D000FC01EE0FFF1FEE0FFF1FE957FE4F60817C
:1003E000683030F3880F991F880F991FFC01E95777
:1003F000FE4F6850428181E00E944905E4CF81E0D0
:100400000E94B20540913901482B66E081E00E94CC
:100410004905CF910895CF93C0E00AC0EC2FF0E0DA
:10042000EB5FFE4F40816C2F80E00E944905CF5F5B
:10043000C830A0F3CF910895CF93DF93C82FD92F61
:10044000C230D105B9F0C330D10519F1CD2B59F027
:100450000E94050180910401882301F181E090E070
:10046000DF91CF91089580E00E94EC0581E00E9429
:10047000EC05EECF8091AE01813029F00E94C601DB
:100480008C2F9D2FEDCF81E00E94EC0580E00E9433
:10049000EC050E940B0283E090E0E2CF0E947C0119
:1004A00082E090E0DDCF0F931F93CF93DF9300D0D6
:1004B00000D000D0CDB7DEB729833A834B835C836D
:1004C00009811A812B812E833C813D8329813A81C8
:1004D0004B815C810E94340669837A838B839C8381
:1004E000602F712F8E819D8129813A814B815C81A2
:1004F000232B242B252B21F726960FB6F894DEBF4D
:100500000FBECDBFDF91CF911F910F9108956093E2
:1005100000017093010180930201909303016093A5
:100520004C0170934D0180934E0190934F010895BB
:100530008BE0809381008DE790E090938900809319
:10054000880082E080936F001092850010928400F2
:100550008091000190910101A0910201B0910301ED
:1005600080934C0190934D01A0934E01B0934F01A5
:100570008FB780688FBF089510928100089581E041
:100580008093500108951F920F920FB60F9211247D
:100590000BB60F922F933F934F935F936F937F937D
:1005A0008F939F93AF93BF93EF93FF9380914C01F1
:1005B00090914D01A0914E01B0914F010197A10979
:1005C000B10980934C0190934D01A0934E01B093DB
:1005D0004F01892B8A2B8B2B99F0FF91EF91BF91C3
:1005E000AF919F918F917F916F915F914F913F91CB
:1005F0002F910F900BBE0F900FBE0F901F9018956C
:100600000E94BF028091000190910101A09102011E
:10061000B091030180934C0190934D01A0934E0142
:10062000B0934F01DACF90E001C09F5F9730B8F4EC
:10063000292F30E0F901EE0FFF1FEE0FFF1FE957E2
:10064000FE4F80818F5F80838F3079F7220F331FB9
:10065000220F331FF901E957FE4F1082E6CF0895AC
:100660008091A901813029F090917301923061F05D
:100670000895909173019111F7CF82E08093390131
:1006800082E580936E0108958111F2CF80E480931A
:1006900039018CE480936E01EBCF80E001C08F5F65
:1006A0008730E0F4282F30E0F901EE0FFF1FEE0F46
:1006B000FF1FE957FE4F90819E3089F7220F331FAD
:1006C000220F331FF901E957FE4F218190916E01EE
:1006D0002913E5CF91E09093AE01E1CF0895282F43
:1006E000392F80B190E080959095837099272230C2
:1006F000310541F18CF023303105C9F12430310549
:10070000F1F40E9430030E944D030E9413030E94E3
:100710004D0382E090E008952115310569F1213003
:10072000310551F41092AE01109265018CE4809372
:100730006E0182E090E00895822F932F0895822F1A
:10074000932F089510927501AC0141505109423028
:10075000510518F0822F932F0895982F9170909340
:10076000A90182708093730183E090E00895892B42
:1007700031F484E090E0089581E090E00895822FC4
:10078000932F089500D000D0CDB7DEB711B88FEF0A
:1007900082B98AB91BB80E94FE0568EE73E080E05A
:1007A00090E00E9487020E949802AFEAB1E0BA830B
:1007B000A983E8E7F1E0FC83EB831C9248EE53E069
:1007C00060E070E011964D935D936D937C93149768
:1007D00015964D935D936D937C9318978CE192E001
:1007E0001A969C938E931997108241835283638348
:1007F000748345835683678370878FE693E092877F
:10080000818746C0F80185819681A781B08588518E
:100810009C4FAF4FBF4F85839683A783B087F394D8
:10082000F1E0FF1578F1EF2DF0E0EE0FFF1F81E012
:1008300090E08C0F9D1FE80FF91F00811181D801F6
:1008400015964D915D916D917C91189711968D91B2
:100850009D910D90BC91A02D481759076A077B0701
:1008600088F2D8011996ED91FC911A978C91082E77
:10087000000C990B0995F801808315821682178266
:100880001086C0CF809150018823E1F3109250016F
:10089000F12CC6CF98E007C02BB12B7F2BB92BB121
:1008A00028602BB991509923E9F0292F2150330B5F
:1008B000B90141E050E002C0440F551F2A95E2F70C
:1008C000282F30E02423352302C0359527956A95DB
:1008D000E2F73BB1377F3BB92223F1F22BB1246021
:1008E0002BB9DDCF08950F931F93CF93DF93D82FAC
:1008F000062F142F823028F0DF91CF911F910F9196
:1009000008958BB18F7E8BB9CD2F07C080E00E94F8
:100910004A0480E00E944A04CF5FCC23B9F3802FC1
:100920000E944A04812F0E944A04C0E0CD1720F0A3
:100930008BB180618BB9E0CF80E00E944A0480E0F7
:100940000E944A04CF5FF2CF623008F00895462F2C
:100950006CE00E947304FACF603108F00895462FCE
:100960006AE00E947304FACF623008F00895462FBF
:100970006FE00E947304FACF683008F00895462FA4
:100980006BE00E947304FACF462F69E00E94730463
:100990000895462FE82FF0E0EE0FFF1FEE0FFF1F28
:1009A000EE0FFF1FEF5AFE4F608361E00E94730459
:1009B0000895462FE82FF0E0EE0FFF1FEE0FFF1F08
:1009C000EE0FFF1FEF5AFE4F618362E00E94730437
:1009D0000895462FE82FF0E0EE0FFF1FEE0FFF1FE8
:1009E000EE0FFF1FEF5AFE4F628363E00E94730415
:1009F0000895462FE82FF0E0EE0FFF1FEE0FFF1FC8
:100A0000EE0FFF1FEF5AFE4F638364E00E947304F2
:100A10000895462FE82FF0E0EE0FFF1FEE0FFF1FA7
:100A2000EE0FFF1FEF5AFE4F648365E00E947304D0
:100A30000895462FE82FF0E0EE0FFF1FEE0FFF1F87
:100A4000EE0FFF1FEF5AFE4F658366E00E947304AE
:100A50000895462FE82FF0E0EE0FFF1FEE0FFF1F67
:100A6000EE0FFF1FEF5AFE4F668367E00E9473048C
:100A70000895462FE82FF0E0EE0FFF1FEE0FFF1F47
:100A8000EE0FFF1FEF5AFE4F678368E00E9473046A
:100A90000895E62F642FE830E0F4F0E0EF59F94FC5
:100AA0000C9456060E94C90408950E94D904089522
:100AB0000E94E90408950E94F90408950E9409051E
:100AC00008950E94190508950E94290508950E941D
:100AD00039050895E82FF0E0EE0FFF1FEE0FFF1F1E
:100AE000EE0FFF1FEF5AFE4F80810895E82FF0E0D0
:100AF000EE0FFF1FEE0FFF1FEE0FFF1FEF5AFE4F0F
:100B000081810895E82FF0E0EE0FFF1FEE0FFF1F29
:100B1000EE0FFF1FEF5AFE4F82810895E82FF0E09D
:100B2000EE0FFF1FEE0FFF1FEE0FFF1FEF5AFE4FDE
:100B300083810895E82FF0E0EE0FFF1FEE0FFF1FF7
:100B4000EE0FFF1FEF5AFE4F84810895E82FF0E06B
:100B5000EE0FFF1FEE0FFF1FEE0FFF1FEF5AFE4FAE
:100B600085810895E82FF0E0EE0FFF1FEE0FFF1FC5
:100B7000EE0FFF1FEF5AFE4F86810895E82FF0E039
:100B8000EE0FFF1FEE0FFF1FEE0FFF1FEF5AFE4F7E
:100B9000878108956830F0F4E62FF0E0E759F94FC7
:100BA0000C9456060E946A0508950E9476050895E1
:100BB0000E94820508950E948E0508950E949A055C
:100BC00008950E94A60508950E94B20508950E9406
:100BD000BE05089580E00895CF93DF93D82F82302B
:100BE00050F4C0E006C040E06C2F8D2F0E944905F4
:100BF000CF5FC830C0F3DF91CF910895CF938AB112
:100C000084608AB98AB188608AB98AB180618AB9F8
:100C10008BB18B7F8BB98BB1877F8BB98BB18F7E7B
:100C20008BB9C0E004C08C2F0E94EC05CF5FC230AE
:100C3000D0F3C0E015C061E08C2F0E94A40460E0F6
:100C40008C2F0E94B40460E08C2F0E94C40462E0E8
:100C50008C2F0E94AC0467E08C2F0E94BC04CF5FF5
:100C6000C23048F3CF910895A1E21A2EAA1BBB1BF4
:100C7000FD010DC0AA1FBB1FEE1FFF1FA217B30768
:100C8000E407F50720F0A21BB30BE40BF50B661F7E
:100C9000771F881F991F1A9469F760957095809542
:100CA00090959B01AC01BD01CF010895EE0FFF1F90
:100CB0000024001C0BBE0790F691E02D0994F894D7
:100CC000FFCF5205550558055B055E0561056405B6
:100CD0006705D205D505D805DB05DE05E105E40588
:020CE000E70526
:100CE20001000000063C42A58199A5423C0018186B
:100CF200381818187E003C66060C30607E003C6690
:100D0200061C0C663C000C1C2C4C7E0C0C007C60FF
:100D12007E0606663C18781E0040000000020000B5
:0C0D22000000670000000000181E781898
:00000001FF
