:100000000C9436010C9455010C9455010C94550137
:100010000C9455010C9455010C9455010C94550108
:100020000C9455010C9455010C9455010C945501F8
:100030000C9455010C949B040C9455010C9455019F
:100040000C9455010C9455010C9455010C945501D8
:100050000C9455010C9455010C9455010C945501C8
:100060000C9455010C9455010C9455010C945501B8
:100070000C9455010C9455010C9455010C945501A8
:100080000C9455010C9455010C945501000000008E
:100090000000005F00000007000700147F147F14B9
:1000A000242A7F2A122313086462364955225000FD
:1000B00005030000001C2241000041221C0014081E
:1000C0003E081408083E08080050300000080808E0
:1000D0000808006060000020100804023E514945F5
:1000E0003E00427F400042615149462141454B312B
:1000F0001814127F1027454545393C4A49493001BB
:10010000710905033649494936064949291E003611
:100110003600000056360000081422410014141462
:100120001414004122140802015109063249794190
:100130003E7E1111117E7F494949363E414141229F
:100140007F4141221C7F494949417F090909013EFC
:100150004149497A7F0808087F00417F41002040DB
:10016000413F017F081422417F404040407F020C04
:10017000027F7F0408107F3E4141413E7F0909090B
:10018000063E4151215E7F091929464649494931B8
:1001900001017F01013F4040403F1F2040201F3FA1
:1001A0004038403F63140814630708700807615122
:1001B000494543007F4141000204081020004141AD
:1001C0007F0004020102044040404040000102045C
:1001D0000020545454787F484444383844444420E0
:1001E000384444487F3854545418087E0901020C9E
:1001F0005252523E7F0804047800447D4000204063
:10020000443D007F1028440000417F40007C0418DA
:1002100004787C0804047838444444387C1414146A
:1002200008081414187C7C0804040848545454200A
:10023000043F4440203C4040207C1C2040201C3C8B
:100240004030403C44281028440C5050503C4464FA
:10025000544C44000836410000007F000000413645
:1002600008001008081008000000000011241FBE3C
:10027000CFEFD0E4DEBFCDBF11E0A0E0B1E0E2E01F
:10028000FCE100E00BBF02C007900D92AE36B10753
:10029000D9F723E0AEE6B1E001C01D92AD3EB20752
:1002A000E1F70E94A2060C94E80D0C940000482F80
:1002B000592F30E020E002C02F5F3F4F2417350751
:1002C0004CF490E080E0873063E09607ACF70000E4
:1002D0000196F9CF08959BB19F7B9BB988B98BB1EB
:1002E00080688BB900008BB18F778BB982E090E08A
:1002F0000E945701089581E00E946B0108958131A9
:1003000020F481580E946B01089581550E946B0171
:10031000089584E690E00E94570188E30E946B01F3
:1003200086E00E946B018FE00E946B0181E00E94D9
:100330006B018AE090E00E94570108959BB19064A0
:100340009BB988B98BB180688BB900008BB18F776E
:100350008BB981E090E00E94570108950F931F939D
:10036000CF93DF93182FC62FD72F0E947B01888150
:10037000882351F001E0010F812F0E947F018991B4
:100380000E949E01102FF3CFDF91CF911F910F910B
:1003900008951F93CF93DF93C62FD72F988199236A
:1003A00049F011E0180F0E947F0189910E949E017F
:1003B000812FF4CFDF91CF911F910895CF93C82F54
:1003C0008A3051F09091C00095FFFCCFC093C600D9
:1003D00090E080E0CF9108958DE00E94DE01F2CFA1
:1003E000EFECF3E010829CE4918388E78283138230
:1003F000E6E8F3E022E0208342E541833EE13283F8
:100400001382E6EDF3E024E02083418332831382FC
:10041000EAE9F3E026E02083918382831382EEEA07
:10042000F3E028E020839183828321E02383E7EEB9
:10043000F3E05AE05083418332832383EAE8F3E018
:100440003CE03083918382832383E2EBF3E080916D
:10045000CF039091D003A091D103B091D2038083B8
:100460009183A283B3838091860390918703A091A7
:100470008803B091890384839583A683B783809191
:10048000D6039091D703A091D803B091D903808768
:100490009187A287B38780919A0390919B03A09143
:1004A0009C03B0919D0384879587A687B787809129
:1004B000AE039091AF03A091B003B091B103808BD4
:1004C000918BA28BB38B8091E7039091E803A0916D
:1004D000E903B091EA03848B958BA68BB78B80914F
:1004E0008A0390918B03A0918C03B0918D03808F30
:1004F000918FA28FB38F0895CF938091040187309D
:1005000088F4E82FF0E0E651F24F0C94F00A1092D4
:10051000750190917401963038F0815080930401F8
:1005200010927401CF9108959F5F90937401FACF58
:10053000809174018630C0F48F5F80937401F2CF94
:10054000EC2FF0E0EB5CFE4F40816C2F80E00E94CE
:100550004D08CF5FC830A0F3809104018150809393
:10056000040110927401DECFC0E0F4CF80917401D9
:100570008630C0F48F5F80937401D4CFEC2FF0E00D
:10058000E35DFE4F40816C2F80E00E944D08CF5FFD
:10059000C830A0F38091040181508093040110922F
:1005A0007401C0CFC0E0F4CF809174018630C0F4F4
:1005B0008F5F80937401B6CFEC2FF0E0EB5DFE4FC0
:1005C00040816C2F80E00E944D08CF5FC830A0F3BF
:1005D0008091040181508093040110927401A2CF94
:1005E000C0E0F4CF809174018630C0F48F5F8093B7
:1005F000740198CFEC2FF0E0E35EFE4F40816C2F4A
:1006000080E00E944D08CF5FC830A0F380910401C4
:100610008150809304011092740184CFC0E0F4CF24
:10062000809174018630A8F48F5F809374017ACF33
:10063000EC2FF0E0EB5EFE4F40816C2F80E00E94DB
:100640004D08CF5FC830A0F31092040110927401DE
:1006500069CFC0E0F7CF80917401863020F081E04F
:10066000809375015FCF8F5F809374015BCFCF93D1
:1006700080E00E94F00881E00E94F0080E94F001F2
:10068000C0E00BC048E16C2F80E00E944D0848E1BB
:100690006C2F81E00E944D08CF5FC83098F3C0E016
:1006A0000CC0880F991F880F991FFC01EE54FC4F56
:1006B000428180E00E944D08CF5FC730C8F48C2F84
:1006C00090E0FC01EE0FFF1FEE0FFF1FEE54FC4FFA
:1006D0006081683030F3880F991F880F991FFC01E3
:1006E000EE54FC4F6850428181E00E944D08E4CFF7
:1006F00040914101486166E081E00E944D08CF9140
:100700000895CF93C0E00BC048E16C2F80E00E94B9
:100710004D0848E16C2F81E00E944D08CF5FC83042
:1007200098F3C0E00CC0880F991F880F991FFC0137
:10073000EE54FC4F428180E00E944D08CF5FC730ED
:10074000C8F48C2F90E0FC01EE0FFF1FEE0FFF1F8F
:10075000EE54FC4F6081683030F3880F991F880F8A
:10076000991FFC01EE54FC4F6850428181E00E94C9
:100770004D08E4CF81E00E94B60840914101482B2A
:1007800066E081E00E944D08CF910895CF93C0E0CC
:100790000AC0EC2FF0E0E35FFE4F40816C2F80E059
:1007A0000E944D08CF5FC830A0F3CF910895CF933A
:1007B000C0E00AC0EC2FF0E0EB5FFE4F40816C2FF1
:1007C00080E00E944D08CF5FC830A0F3CF9108951C
:1007D000CF93DF93C82FD92FC230D10501F1C33099
:1007E000D105A1F0CD2B59F00E947C0280917501BA
:1007F0008130F1F081E090E0DF91CF91089580E0C9
:100800000E94F00881E00E94F008EECF809176010E
:1008100081111CC00E94C6038C2F9D2FEDCF8091AB
:10082000DA03813051F00E9481038C2F9D2FE4CF99
:100830000E94370382E090E0DFCF81E00E94F00861
:1008400080E00E94F00883E090E0D6CF0E94D703BA
:100850008C2F9D2FD1CF0F931F93CF93DF9300D079
:1008600000D000D0CDB7DEB729833A834B835C83B9
:1008700009811A812B812E833C813D8329813A8114
:100880004B815C810E94CE0A69837A838B839C832F
:10089000602F712F8E819D8129813A814B815C81EE
:1008A000232B242B252B21F726960FB6F894DEBF99
:1008B0000FBECDBFDF91CF911F910F91089560932F
:1008C00000017093010180930201909303016093F2
:1008D0006F0170937001809371019093720108957C
:1008E0008BE0809381008DE790E090938900809366
:1008F000880082E080936F0010928500109284003F
:100900008091000190910101A0910201B091030139
:1009100080936F0190937001A0937101B093720165
:100920008FB780688FBF089510928100089581E08D
:100930008093730108951F920F920FB60F921124A6
:100940000BB60F922F933F934F935F936F937F93C9
:100950008F939F93AF93BF93EF93FF9380916F011A
:1009600090917001A0917101B09172010197A1095C
:10097000B10980936F0190937001A0937101B093BE
:100980007201892B8A2B8B2B99F0FF91EF91BF91EC
:10099000AF919F918F917F916F915F914F913F9117
:1009A0002F910F900BBE0F900FBE0F901F901895B8
:1009B0000E9497048091000190910101A091020191
:1009C000B091030180936F0190937001A093710126
:1009D000B0937201DACF90E001C09F5F9730B8F416
:1009E000292F30E0F901EE0FFF1FEE0FFF1FEE542D
:1009F000FC4F80818F5F80838F3079F7220F331F08
:100A0000220F331FF901EE54FC4F1082E6CF0895F8
:100A10008091D503813029F090919E03923061F04E
:100A2000089590919E039111F7CF82E08093410148
:100A300082E580938E0308958111F2CF80E4809344
:100A400041018CE480938E03EBCF80E001C08F5F87
:100A50008730E0F4282F30E0F901EE0FFF1FEE0F92
:100A6000FF1FEE54FC4F90819E3089F7220F331FF9
:100A7000220F331FF901EE54FC4F218190918E0318
:100A80002913E5CF81E08093DA0308950895282F94
:100A9000392F80B190E0809590958370992722300E
:100AA000310541F18CF023303105C9F12430310595
:100AB000F1F40E9408050E9425050E94EB040E94A3
:100AC000250582E090E008952115310569F1213076
:100AD000310551F41092DA03109285038CE480936F
:100AE0008E0382E090E00895822F932F0895822F45
:100AF000932F08951092A003AC0141505109423048
:100B0000510518F0822F932F0895982F917090938C
:100B1000D503827080939E0383E090E00895892B33
:100B200031F484E090E0089581E090E00895822F10
:100B3000932F08958091DA03811104C0809175018B
:100B4000813039F060916E018091CE03681738F4DE
:100B5000089580916E018F5F80936E01F3CF609353
:100B6000CE0381E08093760181E090E00E94D60D73
:100B7000EFCF1F93CF93DF93CDB7DEB7A0970FB61C
:100B8000F894DEBF0FBECDBF162F8A3008F43FC0E9
:100B90001F928F938AE591E09F938F93CE010196E8
:100BA0009F938F930E94F90A0F900F900F900F90D0
:100BB0000F900F90BE016F5F7F4F81E00E94AE01EA
:100BC00081E10E947F011A30A8F11F921F938DE5E9
:100BD00091E09F938F93CE0141969F938F930E94B4
:100BE000F90A0F900F900F900F900F900F90BE0189
:100BF0006F5E7F4F81E10E94C901A0960FB6F89405
:100C0000DEBF0FBECDBFDF91CF911F9108951F9220
:100C10008F938AE591E09F938F93CE0101969F93E6
:100C20008F930E94F90A0F900F900F900F900F90E2
:100C30000F90C0CF1F921F938DE591E09F938F93EC
:100C4000CE0141969F938F930E94F90A0F900F90C7
:100C50000F900F900F900F90CACF81E090E00E940C
:100C6000CE0D8F3F19F08093CE0308951092CE03DE
:100C70000895CF93DF93C82FD92F80B180958370CB
:100C8000C230D10591F15CF0C330D105C1F1C4305F
:100C9000D10599F4833009F444C08C2F4DC02097BE
:100CA00009F448C0C130D10531F48091040183308A
:100CB00031F08C2F41C08C2F3FC08C2F3DC00E9443
:100CC0002D066091CE03662349F060916E018091FC
:100CD000CE030E94B90582E090E02EC081E090E052
:100CE0000E94D60D1092CE03F0CF8150823010F0CA
:100CF0008C2F22C00E949A0583E090E01DC08823BB
:100D000039F08091DA038130D1F08C2F9D2F14C0FF
:100D100060916E018091CE030E94B905C2E0D0E0DF
:100D2000F0CF60916E018091CE030E94B9058C2FA7
:100D30009D2F02C081E090E0DF91CF91089584E083
:100D400090E0FACF00D000D000D0CDB7DEB711B818
:100D50008FEF82B98AB91BB887B918B884B915B8AA
:100D60000E9402090E9489010E946F090E94C7091E
:100D70006FE08AE00E94A40A62E088E691E00E94A7
:100D8000920A0E94A90A64E670E080E090E00E9466
:100D90005F040E94700486E0E0E5F1E0DE01119658
:100DA00001900D928A95E1F7EBEDF3E0108284E675
:100DB00090E0A0E0B0E081839283A383B483858335
:100DC0009683A783B08728EE33E032872187E3EA52
:100DD000F3E0108281839283A383B4838583968317
:100DE000A783B08727E435E032872187EFE8F3E077
:100DF000108281839283A383B48385839683A783A0
:100E0000B08789E396E09287818746C0F8018581A3
:100E10009681A781B0858C599F4FAF4FBF4F858377
:100E20009683A783B087F394F2E0FF1578F1EF2D56
:100E3000F0E0EE0FFF1F81E090E08C0F9D1FE80FA8
:100E4000F91F00811181D80115964D915D916D9129
:100E50007C91189711968D919D910D90BC91A02D2C
:100E6000481759076A077B0788F2D8011996ED9150
:100E7000FC911A978C91082E000C990B0995F8019A
:100E800080831582168217821086C0CF80917301ED
:100E90008823E1F310927301F12CC6CF98E007C0CC
:100EA0002BB12B7F2BB92BB128602BB991509923F3
:100EB000E9F0292F2150330BB90141E050E002C085
:100EC000440F551F2A95E2F7282F30E024233523BD
:100ED00002C0359527956A95E2F73BB1377F3BB95C
:100EE0002223F1F22BB124602BB9DDCF08950F93AB
:100EF0001F93CF93DF93D82F062F142F823028F023
:100F0000DF91CF911F910F9108958BB18F7E8BB997
:100F1000CD2F07C080E00E944E0780E00E944E0760
:100F2000CF5FCC23B9F3802F0E944E07812F0E9400
:100F30004E07C0E0CD1720F08BB180618BB9E0CFB8
:100F400080E00E944E0780E00E944E07CF5FF2CF04
:100F5000623008F00895462F6CE00E947707FACFC0
:100F6000603108F00895462F6AE00E947707FACFB3
:100F7000623008F00895462F6FE00E947707FACF9D
:100F8000683008F00895462F6BE00E947707FACF8B
:100F9000462F69E00E9477070895462FE82FF0E07A
:100FA000EE0FFF1FEE0FFF1FEE0FFF1FE958FE4F62
:100FB000608361E00E9477070895462FE82FF0E0F4
:100FC000EE0FFF1FEE0FFF1FEE0FFF1FE958FE4F42
:100FD000618362E00E9477070895462FE82FF0E0D2
:100FE000EE0FFF1FEE0FFF1FEE0FFF1FE958FE4F22
:100FF000628363E00E9477070895462FE82FF0E0B0
:10100000EE0FFF1FEE0FFF1FEE0FFF1FE958FE4F01
:10101000638364E00E9477070895462FE82FF0E08D
:10102000EE0FFF1FEE0FFF1FEE0FFF1FE958FE4FE1
:10103000648365E00E9477070895462FE82FF0E06B
:10104000EE0FFF1FEE0FFF1FEE0FFF1FE958FE4FC1
:10105000658366E00E9477070895462FE82FF0E049
:10106000EE0FFF1FEE0FFF1FEE0FFF1FE958FE4FA1
:10107000668367E00E9477070895462FE82FF0E027
:10108000EE0FFF1FEE0FFF1FEE0FFF1FE958FE4F81
:10109000678368E00E9477070895E62F642FE830A1
:1010A000E0F4F0E0EF50F24F0C94F00A0E94CD070C
:1010B00008950E94DD0708950E94ED0708950E949B
:1010C000FD0708950E940D0808950E941D080895C7
:1010D0000E942D0808950E943D080895E82FF0E031
:1010E000EE0FFF1FEE0FFF1FEE0FFF1FE958FE4F21
:1010F00080810895E82FF0E0EE0FFF1FEE0FFF1F35
:10110000EE0FFF1FE958FE4F81810895E82FF0E0B0
:10111000EE0FFF1FEE0FFF1FEE0FFF1FE958FE4FF0
:1011200082810895E82FF0E0EE0FFF1FEE0FFF1F02
:10113000EE0FFF1FE958FE4F83810895E82FF0E07E
:10114000EE0FFF1FEE0FFF1FEE0FFF1FE958FE4FC0
:1011500084810895E82FF0E0EE0FFF1FEE0FFF1FD0
:10116000EE0FFF1FE958FE4F85810895E82FF0E04C
:10117000EE0FFF1FEE0FFF1FEE0FFF1FE958FE4F90
:1011800086810895E82FF0E0EE0FFF1FEE0FFF1F9E
:10119000EE0FFF1FE958FE4F878108956830F0F485
:1011A000E62FF0E0E750F24F0C94F00A0E946E0830
:1011B00008950E947A0808950E94860808950E9462
:1011C000920808950E949E0808950E94AA08089512
:1011D0000E94B60808950E94C208089580E008950C
:1011E000CF93DF93D82F823050F4C0E006C040E0A8
:1011F0006C2F8D2F0E944D08CF5FC830C0F3DF9158
:10120000CF910895CF938AB184608AB98AB18860FA
:101210008AB98AB180618AB98BB18B7F8BB98BB166
:10122000877F8BB98BB18F7E8BB9C0E004C08C2FC8
:101230000E94F008CF5FC230D0F3C0E015C061E07B
:101240008C2F0E94A80760E08C2F0E94B80760E0F6
:101250008C2F0E94C80762E08C2F0E94B00767E0C5
:101260008C2F0E94C007CF5FC23048F3CF91089502
:1012700095B19D7F95B9662329F095B1986095B990
:1012800090E00EC095B1977F95B9FACF25B12F7E2A
:1012900025B925B1206225B925B12F7D25B99F5FDC
:1012A000983088F447E050E0491B5109282F30E07E
:1012B00002C0359527954A95E2F720FFE7CF25B183
:1012C000206125B9E6CF85B1826085B9089560E0D7
:1012D0000E943809089561E00E9438090895CF936B
:1012E000DF9384B1826084B984B1846084B984B1AD
:1012F000886084B984B1806184B984B1806284B922
:1013000085B1846085B985B1826085B983EC99E047
:101310000197F1F700C0000085B18B7F85B98BE59F
:1013200094E40197F1F700C0000085B1846085B9AD
:1013300085B18D7F85B981E20E94670983E10E94B2
:10134000670986E00E94670982EC0E94670980E2D3
:101350000E94670989E00E94670980E80E94670986
:1013600080E40E946709D0E0C0E0C83F91E0D9075F
:1013700028F480E00E946B092196F7CF88E00E9454
:1013800067098CE00E946709DF91CF91089580E89A
:101390000E94670980E40E94670910927F031092FF
:1013A000800390E080E0883F21E0920730F4FC0168
:1013B000E957FE4F10820196F6CF0895882321F059
:1013C00080E20E946709089584E2FBCF262F2695CC
:1013D0002695269590E034E5239F800D911D1124DC
:1013E000442379F0677021E030E002C0220F331F00
:1013F0006A95E2F7FC01E957FE4F8081822B8083DA
:101400000895677021E030E002C0220F331F6A9513
:10141000E2F7FC01E957FE4F2095808128232083C5
:101420000895EF92FF920F931F93CF93DF93E82ECF
:10143000F62E00E041C06091800380917F03610F30
:1014400040E0800F0E94E6091F5FCE01880F991FC0
:10145000880F991F880F991F8C1B9D0B1817190651
:1014600054F5EE2D0E2C000CFF0BB097802F6F2D36
:101470000E94C20A9F01220F331F220F331FE20F67
:10148000F31FE80FF11DE457FF4FE491F0E0812FC7
:101490000E94C20A02C0F595E7958A95E2F7E0FF3F
:1014A000CACF6091800380917F03610F41E0800F7C
:1014B0000E94E609C9CF0F5FCF2DD0E0CE01880F83
:1014C000991F880F991F8C0F9D1F0817190614F478
:1014D00010E0BBCFEFE7F3E08F2D880F880F8F0D63
:1014E0009081890F8F5F8083843568F010927F032D
:1014F000E0E8F3E08F2D880F880F880F8F19908117
:10150000890F8F5F808380918003803320F0109259
:101510007F0310928003DF91CF911F910F91FF9075
:10152000EF9008951F93CF93DF93C82FD92F162FD5
:101530008881882329F02196612F0E94110AF8CF13
:10154000DF91CF911F91089580937F036093800373
:101550000895CF93DF9380E80E94670980E40E949A
:101560006709D0E0C0E0C83F81E0D80740F4FE0141
:10157000E957FE4F80810E946B092196F4CFDF91DD
:10158000CF910895991B79E004C0991F961708F030
:10159000961B881F7A95C9F780950895A1E21A2EA7
:1015A000AA1BBB1BFD010DC0AA1FBB1FEE1FFF1F07
:1015B000A217B307E407F50720F0A21BB30BE40B57
:1015C000F50B661F771F881F991F1A9469F760959E
:1015D0007095809590959B01AC01BD01CF01089558
:1015E000EE0FFF1F0024001C0BBE0790F691E02DAC
:1015F00009940F931F93CF93DF93CDB7DEB72E9748
:101600000FB6F894DEBF0FBECDBF0D891E8986E0F0
:101610008C831A8309838FEF9FE79E838D83AE01AE
:10162000475E5F4F6F89788DCE0101960E94290B2E
:101630002F813885020F131FF80110822E960FB6E6
:10164000F894DEBF0FBECDBFDF91CF911F910F91F8
:1016500008952F923F924F925F926F927F928F9256
:101660009F92AF92BF92CF92DF92EF92FF920F9331
:101670001F93CF93DF93CDB7DEB72F970FB6F894B4
:10168000DEBF0FBECDBF7C013B018A01DC01179696
:101690001C921E92169713968C9181FFD8C19AE0E6
:1016A000292EFE0131964F01D70113969C91F3012B
:1016B00093FD859193FF81913F01882309F448C1EF
:1016C000853239F493FD859193FF81913F018532F5
:1016D00029F4B70190E00E94400DE6CFB12C412CD7
:1016E000512CBFE1B51538F08B3209F188F4803206
:1016F00001F1833221F157FC3AC020ED280F2A3046
:1017000040F556FE1FC0B29C200D1124B22E06C01B
:101710008D3291F0803379F7689450F8F30193FD9E
:10172000859193FF81913F018111DBCF20C06894A7
:1017300051F8689452F8F2CF689453F8EFCF689458
:1017400054F8ECCF429C200D1124422E689455F899
:10175000E5CF8E3229F456FCFBC0689456F8DECFF4
:101760008C3619F4689457F8D9CF8836B9F2982F87
:101770009F7D95549330C0F08336A1F18337C1F13A
:10178000833509F05BC0D801CD90DD908D016B2DC4
:1017900070E056FC02C06FEF7FEFC6010E942A0D79
:1017A0005C01689457F80AC00C5F1F4FEFE3E983B0
:1017B000AA24A394B12C6401E89457F853FC04C004
:1017C0004A141B0409F018F5342CA114B10431F5A6
:1017D000332009F469CFB70180E290E00E94400D08
:1017E0003A94F6CFD8018C9189830E5F1F4FE0CFDA
:1017F000F801C190D1908F016B2D70E056FC02C0B2
:101800006FEF7FEFC6010E94350D5C01D5CFB701A8
:1018100080E290E00E94400D4A94D2CFF60157FC3E
:10182000859157FE81916F01B70190E00E94400DB4
:1018300031103A94B1E0AB1AB108C7CF843619F031
:10184000893609F074C0F80157FE6AC06191719140
:10185000819191918F01E52DEF76DE2E97FF09C0E2
:1018600090958095709561957F4F8F4F9F4F6894AD
:10187000D7F82AE030E0A4010E94700DC82EC818E5
:10188000AC2C5D2CD6FE0CC0E89450F8CB1440F480
:10189000D4FE05C0D2FC03C05D2D5E7E552EAB2C60
:1018A00054FEADC0FE01EC0DF11D8081803309F0C6
:1018B0009FC0652D697E562E752D7870372E53FC8E
:1018C000ADC050FEA7C0BC2CA41418F44C0CB42C12
:1018D000BA1854FEA9C0B70180E390E00E94400D01
:1018E00052FE09C088E790E051FE02C088E590E012
:1018F000B7010E94400DCB1408F4A2C0CA94D12CA9
:101900008FEFC81AD80AC80CD91CD6018E916D0168
:10191000B70190E00E94400D8C149D04B1F758CFA0
:1019200061917191072E000C880B990B93CFD52CE8
:10193000E894D4F82AE030E08537E1F1F52DF97F1D
:10194000DF2E803751F100F5883551F18F3681F166
:10195000F701868197812F960FB6F894DEBF0FBEF0
:10196000CDBFDF91CF911F910F91FF90EF90DF904E
:10197000CF90BF90AF909F908F907F906F905F902F
:101980004F903F902F900895883711F7D4FE02C0F2
:101990006894D2F820E130E00DC06894D4F8F6CF16
:1019A00054FE03C02F2F2660D22E20E132E002C069
:1019B00028E030E0F801D7FE15C0419151916191C6
:1019C00071914C875D876E877F878F01A4016C853D
:1019D0007D858E859F850E94700DC82EC818E8945D
:1019E000D7F84ECF81919191AC0170E060E0E9CFE2
:1019F00052FC02C0A39460CFA394A3945DCF852D25
:101A0000867809F459CFF6CFB70180E290E00E94C2
:101A1000400DA394A414C0F3312C5BCF342C3A189E
:101A2000A41408F456CFF8CF852D867809F463CF37
:101A30008BE251FE80E257FC8DE2B70190E059CF76
:101A4000B70180E390E00E94400DBA9454CF8FEF2D
:101A50009FEF81CFFC010590615070400110D8F7D5
:101A6000809590958E0F9F1F0895FC0161507040E6
:101A700001900110D8F7809590958E0F9F1F0895C3
:101A80000F931F93CF93DF93182F092FEB018B81B7
:101A900081FD09C01FEF0FEF812F902FDF91CF91B4
:101AA0001F910F91089582FF14C02E813F818C8178
:101AB0009D81281739073CF4E881F981CF0101960F
:101AC0009983888310838E819F8101969F838E8363
:101AD000E3CFE885F985812F0995892BA1F3DACF2A
:101AE000FA01AA27283051F1203181F1E8946F934F
:101AF0006E7F6E5F7F4F8F4F9F4FAF4FB1E03ED0F5
:101B0000B4E03CD0670F781F891F9A1FA11D680F92
:101B1000791F8A1F911DA11D6A0F711D811D911DC5
:101B2000A11D20D009F468943F912AE0269F11243A
:101B30003019305D3193DEF6CF010895462F47709E
:101B4000405D4193B3E00FD0C9F7F6CF462F4F70F9
:101B5000405D4A3318F0495D31FD4052419302D057
:101B6000A9F7EACFB4E0A6959795879577956795FD
:101B7000BA95C9F700976105710508959B01AC01FD
:101B80000A2E06945795479537952795BA95C9F724
:101B9000620F731F841F951FA01D0895F999FECF32
:101BA00092BD81BDF89A992780B50895262FF9999D
:101BB000FECF92BD81BDF89A019700B4021639F0AC
:101BC0001FBA20BD0FB6F894FA9AF99A0FBE08957D
:101BD000F894FFCF2B031003F202D402B60298024E
:101BE0008702560859085C085F086208650868089B
:101BF0006B08D608D908DC08DF08E208E508E80821
:021C0000EB08EF
:101C020001000000063C42A581A599423C3C42A548
:101C12008199A5423C001818381818187E003C66B5
:101C2200060C30607E003C66061C0C663C000C1CF8
:101C32002C4C7E0C0C007C607E0606663C18781EDE
:101C420000400000000200000000DE010000000071
:101C5200DB03A3038F03181E78183E4869205363E1
:0E1C62006F72653A2025640048656C6C6F0057
:00000001FF
