:100000000C9446000C9465000C9465000C946500FB
:100010000C9465000C9465000C9465000C946500CC
:100020000C9465000C9465000C9465000C946500BC
:100030000C9465000C9491030C9465000C9465007D
:100040000C9465000C9465000C9465000C9465009C
:100050000C9465000C9465000C9465000C9465008C
:100060000C9465000C9465000C9465000C9465007C
:100070000C9465000C9465000C9465000C9465006C
:100080000C9465000C9465000C94650011241FBE4F
:10009000CFEFD0E4DEBFCDBF11E0A0E0B1E0E8E3F8
:1000A000F0E100E00BBF02C007900D92A036B1074F
:1000B000D9F721E0A0E6B1E001C01D92A43EB2074D
:1000C000E1F70E9431050C9403080C940000482FBE
:1000D000592F30E020E002C02F5F3F4F2417350733
:1000E0004CF490E080E0873063E09607ACF70000C6
:1000F0000196F9CF08959BB19F7B9BB988B98BB1CD
:1001000080688BB900008BB18F778BB982E090E06B
:100110000E946700089581E00E947B00089581316C
:1001200020F481580E947B00089581550E947B0035
:10013000089584E690E00E94670088E30E947B00B7
:1001400086E00E947B008FE00E947B0081E00E949D
:100150007B008AE090E00E94670008959BB1906464
:100160009BB988B98BB180688BB900008BB18F7750
:100170008BB981E090E00E94670008950F931F9370
:10018000CF93DF93182FC62FD72F0E948B00888123
:10019000882351F001E0010F812F0E948F00899187
:1001A0000E94AE00102FF3CFDF91CF911F910F91DE
:1001B00008951F93CF93DF93C62FD72F988199234C
:1001C00049F011E0180F0E948F0089910E94AE0043
:1001D000812FF4CFDF91CF911F910895CF93C82F36
:1001E0008A3051F09091C00095FFFCCFC093C600BB
:1001F00090E080E0CF9108958DE00E94EE00F2CF74
:10020000E6ECF1E010829CE4918388E7828313821C
:10021000EDE7F1E022E0208342E541833EE13283D5
:100220001382EDECF1E024E02083418332831382DA
:10023000E1E9F1E026E02083918382831382E5EAFD
:10024000F1E028E020839183828321E02383EEED97
:10025000F1E05AE05083418332832383E1E8F1E007
:100260003CE03083918382832383E9EAF1E080914B
:10027000C6019091C701A091C801B091C9018083C6
:100280009183A283B38380917D0190917E01A0919F
:100290007F01B091800184839583A683B783809189
:1002A000CD019091CE01A091CF01B091D001808776
:1002B0009187A287B3878091910190919201A0913B
:1002C0009301B091940184879587A687B787809121
:1002D000A5019091A601A091A701B091A801808BE2
:1002E000918BA28BB38B8091DE019091DF01A09165
:1002F000E001B091E101848B958BA68BB78B809147
:10030000810190918201A0918301B0918401808F3D
:10031000918FA28FB38F0895CF938091040187307E
:1003200088F4E82FF0E0EB5FF74F0C94E0071092B1
:10033000670190916601963038F0815080930401F6
:1003400010926601CF9108959F5F90936601FACF56
:10035000809166018630C0F48F5F80936601F2CF92
:10036000EC2FF0E0E35DFE4F40816C2F80E00E94B7
:10037000D306CF5FC830A0F38091040181508093F1
:10038000040110926601DECFC0E0F4CF80916601D7
:100390008630C0F48F5F80936601D4CFEC2FF0E0FD
:1003A000EB5DFE4F40816C2F80E00E94D306CF5F53
:1003B000C830A0F380910401815080930401109211
:1003C0006601C0CFC0E0F4CF809166018630C0F4F2
:1003D0008F5F80936601B6CFEC2FF0E0E35EFE4FB7
:1003E00040816C2F80E00E94D306CF5FC830A0F31D
:1003F0008091040181508093040110926601A2CF84
:10040000C0E0F4CF809166018630C0F48F5F8093A6
:10041000660198CFEC2FF0E0EB5EFE4F40816C2F31
:1004200080E00E94D306CF5FC830A0F38091040122
:100430008150809304011092660184CFC0E0F4CF14
:10044000809166018630A8F48F5F809366017ACF31
:10045000EC2FF0E0E35FFE4F40816C2F80E00E94C4
:10046000D306CF5FC830A0F310920401109266014A
:1004700069CFC0E0F7CF80916601863020F081E03F
:10048000809367015FCF8F5F809366015BCFCF93CF
:1004900080E00E94760781E00E9476070E940001BA
:1004A000C0E00BC048E16C2F80E00E94D30648E119
:1004B0006C2F81E00E94D306CF5FC83098F3C0E074
:1004C0000CC0880F991F880F991FFC01E755FE4F3C
:1004D000428180E00E94D306CF5FC730C8F48C2FE2
:1004E00090E0FC01EE0FFF1FEE0FFF1FE755FE4FE0
:1004F0006081683030F3880F991F880F991FFC01C5
:10050000E755FE4F6850428181E00E94D306E4CF58
:1005100040913901486166E081E00E94D306CF91A5
:100520000895CF93C0E00BC048E16C2F80E00E949B
:10053000D30648E16C2F81E00E94D306CF5FC8301C
:1005400098F3C0E00CC0880F991F880F991FFC0119
:10055000E755FE4F428180E00E94D306CF5FC7304F
:10056000C8F48C2F90E0FC01EE0FFF1FEE0FFF1F71
:10057000E755FE4F6081683030F3880F991F880F70
:10058000991FFC01E755FE4F6850428181E00E94AF
:10059000D306E4CF81E00E943C0740913901482B0B
:1005A00066E081E00E94D306CF910895CF93C0E02A
:1005B0000AC0EC2FF0E0EB5FFE4F40816C2F80E033
:1005C0000E94D306CF5FC830A0F3CF910895CF9398
:1005D000DF93C82FD92FC230D105E1F0C330D10548
:1005E000A1F0CD2B59F00E948C01809167018130E0
:1005F000D1F081E090E0DF91CF91089580E00E94FA
:10060000760781E00E947607EECF0E94D6028C2FFB
:100610009D2FF1CF8091D101813051F00E94910244
:100620008C2F9D2FE8CF0E94470282E090E0E3CF1D
:1006300081E00E94760780E00E94760783E090E0E8
:10064000DACF0F931F93CF93DF9300D000D000D069
:10065000CDB7DEB729833A834B835C8309811A8146
:100660002B812E833C813D8329813A814B815C81A2
:100670000E94BE0769837A838B839C83602F712FCE
:100680008E819D8129813A814B815C81232B242B92
:10069000252B21F726960FB6F894DEBF0FBECDBFEF
:1006A000DF91CF911F910F91089560930001709396
:1006B00001018093020190930301609361017093A3
:1006C0006201809363019093640108958BE08093AD
:1006D00081008DE790E0909389008093880082E00C
:1006E00080936F0010928500109284008091000129
:1006F00090910101A0910201B091030180936101E9
:1007000090936201A0936301B09364018FB78068F6
:100710008FBF089510928100089581E08093650154
:1007200008951F920F920FB60F9211240BB60F92DD
:100730002F933F934F935F936F937F938F939F93E9
:10074000AF93BF93EF93FF9380916101909162010A
:10075000A0916301B09164010197A109B10980934F
:10076000610190936201A0936301B0936401892BAE
:100770008A2B8B2B99F0FF91EF91BF91AF919F91B5
:100780008F917F916F915F914F913F912F910F903A
:100790000BBE0F900FBE0F901F9018950E948D03F7
:1007A0008091000190910101A0910201B09103019B
:1007B0008093610190936201A0936301B0936401FF
:1007C000DACF90E001C09F5F9730B8F4292F30E076
:1007D000F901EE0FFF1FEE0FFF1FE755FE4F80815F
:1007E0008F5F80838F3079F7220F331F220F331FE3
:1007F000F901E755FE4F1082E6CF08958091CC01B4
:10080000813029F090919501923061F00895909196
:1008100095019111F7CF82E08093390182E58093B1
:10082000850108958111F2CF80E4809339018CE431
:1008300080938501EBCF80E001C08F5F8730E0F4CB
:10084000282F30E0F901EE0FFF1FEE0FFF1FE755D5
:10085000FE4F90819E3089F7220F331F220F331FE6
:10086000F901E755FE4F2181909185012913E5CFCC
:1008700081E08093D10108950895282F392F80B108
:1008800090E080959095837099272230310541F151
:100890008CF023303105C9F124303105F1F40E9488
:1008A000FE030E941B040E94E1030E941B0482E0DD
:1008B00090E008952115310569F12130310551F499
:1008C0001092D10110927C018CE48093850182E02A
:1008D00090E00895822F932F0895822F932F0895EB
:1008E00010929701AC01415051094230510518F066
:1008F000822F932F0895982F91709093CC0182703E
:100900008093950183E090E00895892B31F484E091
:1009100090E0089581E090E00895822F932F08954C
:1009200080B1809583709091D101911104C0909114
:100930006701913039F0609160018091C5016817BD
:1009400050F4089581508230B0F7809160018F5F3C
:1009500080936001F0CF6093C50181E090E00E9438
:10096000F107EFCF81E090E00E94E9078F3F11F09F
:100970008093C5010895CF93DF93C82FD92FC2303C
:10098000D105F1F16CF0C330D10509F457C0C43082
:10099000D10509F060C00E9490048C2F9D2F5BC090
:1009A000209709F456C0C130D10509F054C0809198
:1009B0000401833011F08C2F4EC00E94B20480914C
:1009C000C501882351F060916001861780F083E0B3
:1009D0008093C50182E090E03EC0682F81E090E006
:1009E0000E94F10782E08093C50190E034C06093DB
:1009F000C50181E090E00E94F10782E090E02BC009
:100A00000E94B2040E94900462E571E081E00E94BD
:100A1000D9008091C501805D0E94AE0081E10E94F5
:100A20008F0066E571E081E10E94D900809160014C
:100A3000805D0E94AE0083E090E00DC00E94B20491
:100A40000E9490048091D101813041F082E090E0D9
:100A500002C081E090E0DF91CF91089584E090E0C2
:100A6000FACF00D000D000D0CDB7DEB711B88FEFED
:100A700082B98AB91BB887B918B80E9488070E9442
:100A8000990068EC70E080E090E00E9455030E94BD
:100A9000660386E0E8E4F1E0DE01119601900D9234
:100AA0008A95E1F781E090E00E94E9078F3F11F01D
:100AB0008093C501E2EDF1E0108288EC90E0A0E0C7
:100AC000B0E081839283A383B48385839683A783D5
:100AD000B08727EE32E032872187EAE9F1E0108221
:100AE00081839283A383B48385839683A783B0870E
:100AF0002DE334E032872187E6E8F1E0108281833C
:100B00009283A383B48385839683A783B0878BEB7B
:100B100094E09287818746C0F80185819681A781FC
:100B2000B08588539F4FAF4FBF4F85839683A78370
:100B3000B087F394F2E0FF1578F1EF2DF0E0EE0FBF
:100B4000FF1F81E090E08C0F9D1FE80FF91F0081CF
:100B50001181D80115964D915D916D917C911897F9
:100B600011968D919D910D90BC91A02D481759071C
:100B70006A077B0788F2D8011996ED91FC911A97C4
:100B80008C91082E000C990B0995F8018083158231
:100B9000168217821086C0CF809165018823E1F309
:100BA00010926501F12CC6CF98E007C02BB12B7FC6
:100BB0002BB92BB128602BB991509923E9F0292F3B
:100BC0002150330BB90141E050E002C0440F551FE2
:100BD0002A95E2F7282F30E02423352302C03595EB
:100BE00027956A95E2F73BB1377F3BB92223F1F2B3
:100BF0002BB124602BB9DDCF08950F931F93CF93B2
:100C0000DF93D82F062F142F823028F0DF91CF9159
:100C10001F910F9108958BB18F7E8BB9CD2F07C097
:100C200080E00E94D40580E00E94D405CF5FCC23F1
:100C3000B9F3802F0E94D405812F0E94D405C0E013
:100C4000CD1720F08BB180618BB9E0CF80E00E949E
:100C5000D40580E00E94D405CF5FF2CF623008F067
:100C60000895462F6CE00E94FD05FACF603108F030
:100C70000895462F6AE00E94FD05FACF623008F021
:100C80000895462F6FE00E94FD05FACF683008F006
:100C90000895462F6BE00E94FD05FACF462F69E0CC
:100CA0000E94FD050895462FE82FF0E0EE0FFF1F8C
:100CB000EE0FFF1FEE0FFF1FE859FE4F608361E04C
:100CC0000E94FD050895462FE82FF0E0EE0FFF1F6C
:100CD000EE0FFF1FEE0FFF1FE859FE4F618362E02A
:100CE0000E94FD050895462FE82FF0E0EE0FFF1F4C
:100CF000EE0FFF1FEE0FFF1FE859FE4F628363E008
:100D00000E94FD050895462FE82FF0E0EE0FFF1F2B
:100D1000EE0FFF1FEE0FFF1FE859FE4F638364E0E5
:100D20000E94FD050895462FE82FF0E0EE0FFF1F0B
:100D3000EE0FFF1FEE0FFF1FE859FE4F648365E0C3
:100D40000E94FD050895462FE82FF0E0EE0FFF1FEB
:100D5000EE0FFF1FEE0FFF1FE859FE4F658366E0A1
:100D60000E94FD050895462FE82FF0E0EE0FFF1FCB
:100D7000EE0FFF1FEE0FFF1FE859FE4F668367E07F
:100D80000E94FD050895462FE82FF0E0EE0FFF1FAB
:100D9000EE0FFF1FEE0FFF1FE859FE4F678368E05D
:100DA0000E94FD050895E62F642FE830E0F4F0E09E
:100DB000E45FF74F0C94E0070E94530608950E94E9
:100DC000630608950E94730608950E94830608959D
:100DD0000E94930608950E94A30608950E94B306F8
:100DE00008950E94C3060895E82FF0E0EE0FFF1F5C
:100DF000EE0FFF1FEE0FFF1FE859FE4F8081089591
:100E0000E82FF0E0EE0FFF1FEE0FFF1FEE0FFF1FAA
:100E1000E859FE4F81810895E82FF0E0EE0FFF1FA3
:100E2000EE0FFF1FEE0FFF1FE859FE4F828108955E
:100E3000E82FF0E0EE0FFF1FEE0FFF1FEE0FFF1F7A
:100E4000E859FE4F83810895E82FF0E0EE0FFF1F71
:100E5000EE0FFF1FEE0FFF1FE859FE4F848108952C
:100E6000E82FF0E0EE0FFF1FEE0FFF1FEE0FFF1F4A
:100E7000E859FE4F85810895E82FF0E0EE0FFF1F3F
:100E8000EE0FFF1FEE0FFF1FE859FE4F86810895FA
:100E9000E82FF0E0EE0FFF1FEE0FFF1FEE0FFF1F1A
:100EA000E859FE4F878108956830F0F4E62FF0E0AE
:100EB000EC5EF74F0C94E0070E94F40608950E9440
:100EC000000708950E940C0708950E9418070895CE
:100ED0000E94240708950E94300708950E943C074D
:100EE00008950E944807089580E00895CF93DF9306
:100EF000D82F823050F4C0E006C040E06C2F8D2F18
:100F00000E94D306CF5FC830C0F3DF91CF91089520
:100F1000CF938AB184608AB98AB188608AB98AB16C
:100F200080618AB98BB18B7F8BB98BB1877F8BB98D
:100F30008BB18F7E8BB9C0E004C08C2F0E947607E6
:100F4000CF5FC230D0F3C0E015C061E08C2F0E94AB
:100F50002E0660E08C2F0E943E0660E08C2F0E94DF
:100F60004E0662E08C2F0E94360667E08C2F0E94AE
:100F70004606CF5FC23048F3CF910895A1E21A2E02
:100F8000AA1BBB1BFD010DC0AA1FBB1FEE1FFF1F2D
:100F9000A217B307E407F50720F0A21BB30BE40B7D
:100FA000F50B661F771F881F991F1A9469F76095C4
:100FB0007095809590959B01AC01BD01CF0108957E
:100FC000EE0FFF1F0024001C0BBE0790F691E02DD2
:100FD0000994F999FECF92BD81BDF89A992780B501
:100FE0000895262FF999FECF92BD81BDF89A0197F9
:100FF00000B4021639F01FBA20BD0FB6F894FA9A61
:10100000F99A0FBE0895F894FFCF3B022002020226
:10101000E401C601A8019701DC06DF06E206E50649
:10102000E806EB06EE06F1065C075F076207650758
:0810300068076B076E077107EA
:1010380001000000063C42A58199A5423C00181811
:10104800381818187E003C66060C30607E003C6636
:10105800061C0C663C000C1C2C4C7E0C0C007C60A6
:101068007E0606663C18781E00400000000200005C
:101078000000EE0000000000D2019A018601181E4F
:1010880078183E2048692053636F72653A20000043
:00000001FF
