:100000000C9446000C9465000C9465000C946500FB
:100010000C9465000C9465000C9465000C946500CC
:100020000C9465000C9465000C9465000C946500BC
:100030000C9465000C9450020C9465000C946500BF
:100040000C9465000C9465000C9465000C9465009C
:100050000C9465000C9465000C9465000C9465008C
:100060000C9465000C9465000C9465000C9465007C
:100070000C9465000C9465000C9465000C9465006C
:100080000C9465000C9465000C94650011241FBE4F
:10009000CFEFD0E4DEBFCDBF11E0A0E0B1E0E6EBF2
:1000A000F7E000E00BBF02C007900D92A430B1074B
:1000B000D9F721E0A4E0B1E001C01D92A432B2075B
:1000C000E1F70E94D4020C9494030C940000482F92
:1000D000592F30E020E002C02F5F3F4F2417350733
:1000E0004CF490E080E0873063E09607ACF70000C6
:1000F0000196F9CF08959BB19F7B9BB988B98BB1CD
:1001000080688BB900008BB18F778BB982E090E06B
:100110000E946700089581E00E947B00089581316C
:1001200020F481580E947B00089581550E947B0035
:10013000089584E690E00E94670088E30E947B00B7
:1001400086E00E947B008FE00E947B0081E00E949D
:100150007B008AE090E00E94670008959BB1906464
:100160009BB988B98BB180688BB900008BB18F7750
:100170008BB981E090E00E94670008950F931F9370
:10018000CF93DF93182FC62FD72F0E948B00888123
:10019000882351F001E0010F812F0E948F00899187
:1001A0000E94AE00102FF3CFDF91CF911F910F91DE
:1001B0000895CF93DF93C82FD92F209721F0CE0138
:1001C000DF91CF91089581E00E948F00809104011A
:1001D000805D0E94AE00F3CF442349F021E030E07F
:1001E00002C0220F331F6A95E2F7822B089521E0A7
:1001F00030E002C0220F331F6A95E2F72095822378
:10020000089521E030E002C0220F331F6A95E2F723
:100210008223089540E064E08FEF0E94EC0082B9F1
:10022000000080B160E080950E94010181117FC0D3
:1002300080B161E080950E94010181117AC080B196
:1002400062E080950E940101811175C080B163E078
:1002500080950E940101811170C040E065E08FEF40
:100260000E94EC0082B9000080B160E080950E949D
:100270000101811164C080B161E080950E9401019B
:1002800081115FC080B162E080950E9401018111FF
:100290005AC080B163E080950E940101811155C070
:1002A00040E066E08FEF0E94EC0082B9000080B170
:1002B00060E080950E940101811149C080B161E038
:1002C00080950E940101811144C080B162E0809557
:1002D0000E94010181113FC080B163E080950E94BE
:1002E000010181113AC040E067E08FEF0E94EC000D
:1002F00082B9000080B160E080950E940101811107
:100300002EC080B161E080950E940101811129C059
:1003100080B162E080950E940101811124C080B10A
:1003200063E080950E94010181111FC0089581E35F
:10033000089584E3089587E308958AE2089582E3A7
:10034000089585E3089588E3089580E3089583E39D
:10035000089586E3089589E3089583E2089581E48A
:10036000089582E4089583E4089584E4DFCFCF9371
:10037000DF93C82FD92F0E940A01E82FCD2B51F40B
:10038000853408F04DC0F0E0EA56FC4F0C948B0326
:1003900081E085B990E080E0DF91CF91089581E020
:1003A0008093040183E085B9F5CF82E08093040156
:1003B000F1CF83E080930401EDCF8AE080930401C4
:1003C000E9CF84E080930401E5CF85E080930401C8
:1003D000E1CF86E080930401DDCF8BE080930401C0
:1003E000D9CF87E080930401D5CF88E080930401C2
:1003F000D1CF89E080930401CDCF8CE080930401BC
:10040000C9CF8EE080930401C5CF10920401C2CF02
:100410008FE080930401BECF8DE080930401BACFBA
:100420008BE180930401B6CF6093000170930101CA
:10043000809302019093030160930501709306017C
:10044000809307019093080108958BE080938100C9
:100450008DE790E0909389008093880082E08093FC
:100460006F0010928500109284008091000190919D
:100470000101A0910201B0910301809305019093C5
:100480000601A0930701B09308018FB780688FBF62
:10049000089510928100089581E0809309010895E4
:1004A0001F920F920FB60F9211240BB60F922F933B
:1004B0003F934F935F936F937F938F939F93AF93EC
:1004C000BF93EF93FF938091050190910601A09156
:1004D0000701B09108010197A109B10980930501B5
:1004E00090930601A0930701B0930801892B8A2BF2
:1004F0008B2B99F0FF91EF91BF91AF919F918F91CD
:100500007F916F915F914F913F912F910F900BBE13
:100510000F900FBE0F901F9018950E944C02809173
:10052000000190910101A0910201B091030180931B
:10053000050190930601A0930701B0930801DACF5B
:100540000F931F93CF93DF9300D000D000D0CDB78F
:10055000DEB729833A834B835C8309811A812B811F
:100560002E833C813D8329813A814B815C810E94AD
:10057000690369837A838B839C83602F712F8E81BB
:100580009D8129813A814B815C81232B242B252B52
:1005900021F726960FB6F894DEBF0FBECDBFDF91D0
:1005A000CF911F910F91089500D000D0CDB7DEB745
:1005B00080EF81B98FE082B98FEF84B915B887B920
:1005C00018B88AB91BB8AAE0B1E0BA83A983E5E1FB
:1005D000F1E0FC83EB831C9242E350E060E070E0CA
:1005E00011964D935D936D937C93149715964D934F
:1005F0005D936D937C93189787EB91E01A969C938B
:100600008E93199710824183528363837483458349
:1006100056836783708789ED90E09287818762E3D4
:1006200070E080E090E00E9414020E9425020E9487
:1006300099004CC0F80141815281638174818581A8
:100640009681A781B085840F951FA61FB71F85834C
:100650009683A783B087FFEFEF1AFF0A82E0E816C0
:10066000F10470F5F701EE0FFF1F81E090E08C0FB1
:100670009D1FE80FF91F00811181D80115964D913A
:100680005D916D917C91189711968D919D910D9032
:10069000BC91A02D481759076A077B0759F6D80166
:1006A0001996ED91FC911A978C91082E000C990BDC
:1006B0000995F80180831582168217821086BACFB9
:1006C000809109018823E1F310920901F12CE12CBA
:1006D000C5CFA1E21A2EAA1BBB1BFD010DC0AA1F8C
:1006E000BB1FEE1FFF1FA217B307E407F50720F09B
:1006F000A21BB30BE40BF50B661F771F881F991F16
:100700001A9469F760957095809590959B01AC015E
:10071000BD01CF010895EE0FFF1F0024001C0BBE8A
:100720000790F691E02D0994F894FFCFC8011002CC
:100730001002100210021002100210021002100229
:100740001002100210021002100210021002100219
:100750001002100210021002100210021002100209
:1007600010021002100210021002100210021002F9
:1007700010020802100210021002100210021002F1
:100780000102100210021002100210020502CF0135
:10079000D501D901E101E501E901F101F501F90115
:1007A0001002100210021002100210021002DD01ED
:0607B000ED01FD010C0249
:0407B600010000003E
:00000001FF
