:100000000C9446000C9465000C9465000C946500FB
:100010000C9465000C9465000C9465000C946500CC
:100020000C9465000C9465000C9465000C946500BC
:100030000C9465000C9418020C9465000C946500F7
:100040000C9465000C9465000C9465000C9465009C
:100050000C9465000C9465000C9465000C9465008C
:100060000C9465000C9465000C9465000C9465007C
:100070000C9465000C9465000C9465000C9465006C
:100080000C9465000C9465000C94650011241FBE4F
:10009000CFEFD0E4DEBFCDBF11E0A0E0B1E0E0EFF4
:1000A000F7E000E00BBF02C007900D92AC32B10741
:1000B000D9F721E0ACE2B1E001C01D92A235B20750
:1000C000E1F70E94E4020C94B1030C940000482F65
:1000D000592F30E020E002C02F5F3F4F2417350733
:1000E0004CF490E080E0873063E09607ACF70000C6
:1000F0000196F9CF08959BB19F7B9BB988B98BB1CD
:1001000080688BB900008BB18F778BB982E090E06B
:100110000E946700089581E00E947B00089581316C
:1001200020F481580E947B00089581550E947B0035
:10013000089584E690E00E94670088E30E947B00B7
:1001400086E00E947B008FE00E947B0081E00E949D
:100150007B008AE090E00E94670008959BB1906464
:100160009BB988B98BB180688BB900008BB18F7750
:100170008BB981E090E00E94670008950F931F9370
:10018000CF93DF93182FC62FD72F0E948B00888123
:10019000882351F001E0010F812F0E948F00899187
:1001A0000E94AE00102FF3CFDF91CF911F910F91DE
:1001B0000895CF93DF93C82FD92F209779F1C130BD
:1001C000D10521F0CE01DF91CF91089530E020E0FC
:1001D00020313105C4F480912C01820F932F911DA1
:1001E00066E270E00E945E034091000150910101BF
:1001F000480F591FFA018081F901EE5CFE4F8083A0
:100200002F5F3F4FE5CF80912C018F5F80932C01B2
:1002100062E371E081E00E94BE00D4CFC1E0D0E093
:10022000D1CF442349F021E030E002C0220F331F38
:100230006A95E2F7822B089521E030E002C0220F98
:10024000331F6A95E2F720958223089521E030E07C
:1002500002C0220F331F6A95E2F78223089540E01F
:1002600064E08FEF0E94110182B9000080B160E06C
:1002700080950E94260181117FC080B161E0809548
:100280000E94260181117AC080B162E080950E94AF
:100290002601811175C080B163E080950E9426011E
:1002A000811170C040E065E08FEF0E94110182B9BA
:1002B000000080B160E080950E942601811164C039
:1002C00080B161E080950E94260181115FC080B1FC
:1002D00062E080950E94260181115AC080B163E0DE
:1002E00080950E942601811155C040E066E08FEFA5
:1002F0000E94110182B9000080B160E080950E94E7
:100300002601811149C080B161E080950E942601DB
:10031000811144C080B162E080950E942601811164
:100320003FC080B163E080950E94260181113AC0F0
:1003300040E067E08FEF0E94110182B9000080B1B8
:1003400060E080950E94260181112EC080B161E09D
:1003500080950E942601811129C080B162E08095BC
:100360000E942601811124C080B163E080950E9423
:10037000260181111FC0089581E3089584E3089543
:1003800087E308958AE2089582E3089585E3089556
:1003900088E3089580E3089583E3089586E308954C
:1003A00089E3089583E2089581E4089582E408953D
:1003B00083E4089584E4DFCF609302017093030126
:1003C000809304019093050160932D0170932E0199
:1003D00080932F019093300108958BE080938100EA
:1003E0008DE790E0909389008093880082E080936D
:1003F0006F0010928500109284008091020190910C
:100400000301A0910401B091050180932D01909307
:100410002E01A0932F01B09330018FB780688FBF5A
:10042000089510928100089581E08093310108952C
:100430001F920F920FB60F9211240BB60F922F93AB
:100440003F934F935F936F937F938F939F93AF935C
:10045000BF93EF93FF9380912D0190912E01A09176
:100460002F01B09130010197A109B10980932D01AD
:1004700090932E01A0932F01B0933001892B8A2BEA
:100480008B2B99F0FF91EF91BF91AF919F918F913D
:100490007F916F915F914F913F912F910F900BBE84
:1004A0000F900FBE0F901F9018950E94140280911C
:1004B000020190910301A0910401B0910501809384
:1004C0002D0190932E01A0932F01B0933001DACF2C
:1004D0000F931F93CF93DF9300D000D000D0CDB700
:1004E000DEB729833A834B835C8309811A812B8190
:1004F0002E833C813D8329813A814B815C810E941E
:10050000720369837A838B839C83602F712F8E8122
:100510009D8129813A814B815C81232B242B252BC2
:1005200021F726960FB6F894DEBF0FBECDBFDF9140
:10053000CF911F910F910895CF93DF93C82FD92F9B
:100540000E942F01E82FCD2B41F48534D0F5F0E047
:10055000ED54FC4F0C94940315B890E080E0DF91CB
:10056000CF91089581E085B9F8CF82E085B9F5CFC4
:1005700083E085B9F2CF8AE085B9EFCF84E085B911
:10058000ECCF85E085B9E9CF86E085B9E6CF8BE091
:1005900085B9E3CF87E085B9E0CF88E085B9DDCFC5
:1005A00089E085B9DACF8CE085B9D7CF8EE085B9FF
:1005B000D4CF15B8D2CF8FE085B9CFCF8DE085B934
:1005C000CCCF8BE185B9C9CF00D0CDB7DEB78FEFE7
:1005D00084B915B887B918B88AB91BB8E3E4F1E053
:1005E000FA83E983108288EE93E0A0E0B0E0818393
:1005F0009283A383B48385839683A783B08789ED91
:1006000090E09287818768EE73E080E090E00E943E
:10061000DC010E94ED010E94990045C0F701EE0F38
:10062000FF1F81E090E08C0F9D1FE80FF91F0081F4
:100630001181D80115964D915D916D917C9118971E
:1006400011968D919D910D90BC91A02D4817590741
:100650006A077B07A9F0F8014181528163817481A7
:1006600085819681A781B085840F951FA61FB71F2E
:1006700085839683A783B087FFEFEF1AFF0A15C023
:10068000D8011996ED91FC911A978C91082E000CC7
:10069000990B0995F80180831582168217821086BE
:1006A000DACF10923101F12CE12CE114F10409F4BC
:1006B000B5CF809131018823E1F3F3CF97FB072E6B
:1006C00016F4009407D077FD09D00E949D0307FC23
:1006D00005D03EF4909581959F4F08957095619552
:1006E0007F4F0895A1E21A2EAA1BBB1BFD010DC06E
:1006F000AA1FBB1FEE1FFF1FA217B307E407F507D2
:1007000020F0A21BB30BE40BF50B661F771F881FAD
:10071000991F1A9469F760957095809590959B0143
:10072000AC01BD01CF010895EE0FFF1F0024001C96
:100730000BBE0790F691E02D0994AA1BBB1B51E15B
:1007400007C0AA1FBB1FA617B70710F0A61BB70B41
:10075000881F991F5A95A9F780959095BC01CD01E6
:100760000895F894FFCFAC02E102E102E102E10258
:10077000E102E102E102E102E102E102E102E10261
:10078000E102E102E102E102E102E102E102E10251
:10079000E102E102E102E102E102E102E102E10241
:1007A000E102E102E102E102E102E102DB02E10237
:1007B000E102E102E102E102E102D602E102E1022C
:1007C000E102E102E102D902B202B502B802BE02C0
:1007D000C102C402CA02CD02D002E102E102E1027A
:1007E000E102E102E102E102BB02C702D302DE0242
:1007F000060101000000435331323042206973206A
:100800004C6567656E642E2E2E20776169742066B4
:0C0810006F72206974204441525921008D
:00000001FF
