:100000000C9446000C9465000C9465000C946500FB
:100010000C9465000C9465000C9465000C946500CC
:100020000C9465000C9465000C9465000C946500BC
:100030000C9465000C94A4000C9465000C9465006D
:100040000C9465000C9465000C9465000C9465009C
:100050000C9465000C9465000C9465000C9465008C
:100060000C9465000C9465000C9465000C9465007C
:100070000C9465000C9465000C9465000C9465006C
:100080000C9465000C9465000C94650011241FBE4F
:10009000CFEFD0E4DEBFCDBF11E0A0E0B1E0E0E6FD
:1000A000F2E000E00BBF02C007900D92A231B10751
:1000B000D9F721E0A2E1B1E001C01D92A731B2075A
:1000C000E1F70E9405010C942E010C940000CF93DF
:1000D000C82F8A3051F09091C00095FFFCCFC0939B
:1000E000C60090E080E0CF9108958DE00E94670007
:1000F000F2CF8BE0809381008DE790E090938900B0
:100100008093880082E080936F00109285001092A7
:1001100084008091000190910101A0910201B091B1
:1001200003018093120190931301A0931401B093E3
:1001300015018FB780688FBF0895109281000895D0
:1001400081E08093160108951F920F920FB60F92CF
:1001500011240BB60F922F933F934F935F936F939E
:100160007F938F939F93AF93BF93EF93FF93809170
:10017000120190911301A0911401B0911501019702
:10018000A109B1098093120190931301A093140166
:10019000B0931501892B8A2B8B2B99F0FF91EF914E
:1001A000BF91AF919F918F917F916F915F914F918F
:1001B0003F912F910F900BBE0F900FBE0F901F908D
:1001C00018950E94A0008091000190910101A091DA
:1001D0000201B09103018093120190931301A09347
:1001E0001401B0931501DACF6093000170930101FF
:1001F00080930201909303016093120170931301A5
:10020000809314019093150108958FEF87B918B862
:1002100081B912B864EF71E080E090E00E94F400D0
:100220000E94790090E020E00CC02F5F90E080E118
:1002300082B980E888B9809116018823E1F3109291
:100240001601273020F4973080F79F5FF0CF97306A
:1002500010F49F5FECCF90E020E0E9CFF894FFCF5F
:100260000100000000000002000000006700000024
:0202700000008C
:00000001FF
