:100000000C9446000C945D000C945D000C945D0013
:100010000C945D000C945D000C945D000C945D00EC
:100020000C945D000C945D000C945D000C945D00DC
:100030000C945D000C945D000C945D000C945D00CC
:100040000C945D000C945D000C945D000C945D00BC
:100050000C945D000C945D000C945D000C945D00AC
:100060000C945D000C945D000C945D000C945D009C
:100070000C945D000C945D000C945D000C945D008C
:100080000C945D000C945D000C945D0011241FBE67
:10009000CFEFD0E4DEBFCDBF11E0A0E0B1E0EEE1F4
:1000A000F1E000E00BBF02C007900D92AE30B10747
:1000B000D9F70E9477000C948D000C940000CF9328
:1000C000C82F8A3051F09091C00095FFFCCFC093AB
:1000D000C60090E080E0CF9108958DE00E945F001F
:1000E000F2CFEAE7F0E08081806E8083089511B856
:1000F00012B88FEF84B915B884B915B887B918B894
:100100000E94710002C081E085B9809178009091D1
:0E01100079008132C0F715B8F8CFF894FFCF10
:0E011E0000000002000000005F000000000072
:00000001FF
