:100000000C9446000C945D000C945D000C945D0013
:100010000C945D000C945D000C945D000C945D00EC
:100020000C945D000C945D000C945D000C945D00DC
:100030000C945D000C945D000C945D000C945D00CC
:100040000C945D000C945D000C945D000C945D00BC
:100050000C945D000C945D000C945D000C945D00AC
:100060000C945D000C945D000C945D000C945D009C
:100070000C945D000C945D000C945D000C945D008C
:100080000C945D000C945D000C945D0011241FBE67
:10009000CFEFD0E4DEBFCDBF11E0A0E0B1E0EAE5F4
:1000A000F1E000E00BBF02C007900D92AE30B10747
:1000B000D9F70E9477000C94AB000C940000CF930A
:1000C000C82F8A3051F09091C00095FFFCCFC093AB
:1000D000C60090E080E0CF9108958DE00E945F001F
:1000E000F2CFEAE7F0E08081806E8083089511B856
:1000F00012B88FEF84B915B884B915B887B918B894
:100100000E94710004C08C3458F08FE185B9809151
:100110007800909179008639B0F38FE385B9F7CFF5
:10012000833318F08FE085B9F2CF863218F087E07C
:1001300085B9EDCF8F3118F083E085B9E8CF8A31EA
:1001400018F082E085B9E3CF863118F081E085B9F7
:0A015000DECF15B8DCCFF894FFCF26
:0E015A0000000002000000005F000000000036
:00000001FF
