:100000000C9446000C9465000C9465000C946500FB
:100010000C9465000C9465000C9465000C946500CC
:100020000C9465000C9465000C9465000C946500BC
:100030000C9465000C9465000C9465000C946500AC
:100040000C9465000C9465000C9465000C9465009C
:100050000C9465000C9465000C9465000C9465008C
:100060000C9465000C9465000C9465000C9465007C
:100070000C9465000C9465000C9465000C9465006C
:100080000C9465000C9465000C94650011241FBE4F
:10009000CFEFD0E4DEBFCDBF11E0A0E0B1E0E8E5F6
:1000A000F7E000E00BBF02C007900D92AE32B1073F
:1000B000D9F721E0AEE2B1E001C01D92A633B2074C
:1000C000E1F70E9408020C94AA030C940000CF935D
:1000D000C82F8A3051F09091C00095FFFCCFC0939B
:1000E000C60090E080E0CF9108958DE00E94670007
:1000F000F2CF0F931F93CF93DF9300D000D000D0A7
:10010000CDB7DEB7062F172F8E839D8380912E01EA
:1001100090912F01A0913001B091310189839A8390
:10012000AB83BC83262F372F4E815D81BC01CD016F
:100130000E9416028823F1F120E030E0A901098332
:100140001A839E819B83AD81AC8369817A818B8187
:100150009C810E941602811138C0E1E9F0E08081A3
:100160008870808328E539E344E75FE309831A83D5
:10017000BE81BB838D818C8369817A818B819C81D7
:100180000E94160288233CF58FEF9FEF9093990011
:10019000809398001092950010929400402F512F58
:1001A0006E817D8140932E0150932F016093300129
:1001B0007093310126960FB6F894DEBF0FBECDBF07
:1001C000DF91CF911F910F910895E1E9F0E08081D7
:1001D00083608083C7CF20E034E244EF56E4098394
:1001E0001A839E819B83AD81AC8369817A818B81E7
:1001F0009C810E94380318162CF4109299001092DA
:100200009800C8CF20E030E040E053E409831A832F
:10021000BE81BB838D818C8369817A818B819C8136
:100220000E943D03262F372F482F592F60E074E29C
:1002300084EF9AE40E941B0269837A838B839C83F8
:1002400069817A818B819C810E948D02462F572F74
:100250004150510950939900409398009BCF80E4FE
:10026000809390008BE08093910060E070E0CB0180
:100270000E947900089510929000109291000895C4
:10028000CF93DF9300D000D0CDB7DEB720B120955B
:100290002770209332018091340190913501823092
:1002A000910509F44FC0B0F08330910509F47FC087
:1002B000049771F521119CC082E090E09093350184
:1002C0008093340180913301882311F18150809310
:1002D00033011EC00097B1F00197D1F410923301A1
:1002E00060E070E0CB010E947900809132018823A8
:1002F000B1F0813001F181E090E09093350180937D
:10030000340106C081E090E0909335018093340180
:100310000F900F900F900F90DF91CF91089581E093
:1003200090E0909335018093340160E070E0CB0160
:100330000E947900EDCF82E090E0909335018093A8
:100340003401E6CFE0913301F0E0EE0FFF1FEE0F36
:10035000FF1FE050FF4F80819181A281B381BC01DA
:10036000CD010E94790080913201813059F08230B4
:1003700081F08430A9F082E090E090933501809381
:100380003401C6CF81E090E0909335018093340131
:10039000BFCF83E090E09093350180933401B8CFD4
:1003A00084E090E09093350180933401B1CF211126
:1003B0000FC082E090E090933501809334018091EA
:1003C0003301873008F0A4CF8F5F80933301A0CF33
:1003D000213039F083E090E090933501809334012F
:1003E00097CF81E090E0909335018093340190CFD6
:1003F000213039F084E090E090933501809334010E
:1004000087CF81E090E0909335018093340180CFD5
:1004100011B88FEF82B984B915B80E942F011092DC
:100420003501109234010E944001FDCF0E94C302A9
:1004300008F481E008950E942F020C94FE020E94AD
:10044000F70258F00E94F00240F029F45F3F29F0D3
:100450000C94E70251110C9432030C94ED020E94AB
:100460000F0368F39923B1F3552391F3951B550BB3
:10047000BB27AA2762177307840738F09F5F5F4F77
:10048000220F331F441FAA1FA9F335D00E2E3AF0B6
:10049000E0E832D091505040E695001CCAF72BD0CE
:1004A000FE2F29D0660F771F881FBB1F261737071F
:1004B0004807AB07B0E809F0BB0B802DBF01FF2751
:1004C00093585F4F3AF09E3F510578F00C94E70245
:1004D0000C9432035F3FE4F3983ED4F3869577950E
:1004E0006795B795F7959F5FC9F7880F911D96950A
:1004F000879597F90895E1E0660F771F881FBB1F66
:10050000621773078407BA0720F0621B730B840B12
:10051000BA0BEE1F88F7E09508950E949402689444
:10052000B1110C94320308950E94170388F09F576D
:1005300098F0B92F9927B751B0F0E1F0660F771F07
:10054000881F991F1AF0BA95C9F714C0B13091F0FD
:100550000E943103B1E008950C943103672F782F86
:100560008827B85F39F0B93FCCF3869577956795C2
:10057000B395D9F73EF490958095709561957F4F2E
:100580008F4F9F4F0895990F0008550FAA0BE0E871
:10059000FEEF16161706E807F907C0F01216130645
:1005A000E407F50798F0621B730B840B950B39F485
:1005B0000A2661F0232B242B252B21F408950A26EB
:1005C00009F4A140A6958FEF811D811D089597F92B
:1005D0009F6780E870E060E008959FEF80EC0895E9
:1005E00000240A9416161706180609060895002412
:1005F0000A9412161306140605060895092E03948C
:10060000000C11F4882352F0BB0F40F4BF2B11F4FF
:1006100060FF04C06F5F7F4F8F4F9F4F089557FD5E
:100620009058440F551F59F05F3F71F04795880F60
:1006300097FB991F61F09F3F79F0879508951216F7
:1006400013061406551FF2CF4695F1DF08C01616A3
:1006500017061806991FF1CF869571056105089454
:100660000895E894BB2766277727CB0197F908956B
:100670000E94C30208F48FEF08950E9450030C9467
:10068000FE020E94F00238F00E94F70220F095234B
:1006900011F00C94E7020C94ED0211240C94320337
:1006A0000E940F0370F3959FC1F3950F50E0551F03
:1006B000629FF001729FBB27F00DB11D639FAA27B7
:1006C000F00DB11DAA1F649F6627B00DA11D661F06
:1006D000829F2227B00DA11D621F739FB00DA11D27
:1006E000621F839FA00D611D221F749F3327A00DE1
:1006F000611D231F849F600D211D822F762F6A2F7D
:1007000011249F5750409AF0F1F088234AF0EE0FE1
:10071000FF1FBB1F661F771F881F91505040A9F70E
:100720009E3F510580F00C94E7020C9432035F3F2A
:10073000E4F3983ED4F3869577956795B795F7954A
:10074000E7959F5FC1F7FE2B880F911D96958795C2
:0807500097F90895F894FFCF1A
:10075800A4D08243F6A86F43A4D0A443719DAE43AE
:100768000000C4430000DC43A4F0F64300D0024478
:0E07780000000002000000006700000000000A
:00000001FF
