:100000000C9446000C9465000C9465000C946500FB
:100010000C9465000C9465000C9465000C946500CC
:100020000C9465000C9465000C9465000C946500BC
:100030000C9465000C944B010C9465000C946500C5
:100040000C9465000C9465000C9465000C9465009C
:100050000C9465000C9465000C9465000C9465008C
:100060000C9465000C9465000C9465000C9465007C
:100070000C9465000C9465000C9465000C9465006C
:100080000C9465000C9465000C94650011241FBE4F
:10009000CFEFD0E4DEBFCDBF11E0A0E0B1E0E4EAF5
:1000A000F4E000E00BBF02C007900D92A630B1074C
:1000B000D9F721E0A6E0B1E001C01D92A634B20755
:1000C000E1F70E94AC010C9450020C940000809166
:1000D0004401909145018230910511F170F400972F
:1000E000C1F0019739F582E090E09093450180934B
:1000F000440181E08093080108950397D9F481E0D9
:1001000090E0909345018093440184E0809308013E
:10011000089581E090E09093450180934401089513
:1001200083E090E0909345018093440182E08093C6
:10013000080108951092450110924401089580919C
:100140004001909141018130910589F08230910503
:10015000C1F0892B29F010924501109244010895B5
:1001600081E090E09093410180934001089582E006
:1001700090E0909341018093400188E080930701D3
:10018000089581E090E090934101809340011092A6
:100190000701089520B1217080914201909143019F
:1001A00081309105B1F082309105E1F0892B51F059
:1001B000809142019091430181309105D1F00297E5
:1001C000D9F0089581E090E090934301809342013B
:1001D000EFCF211102C082E090E090934301809321
:1001E0004201E6CF81E090E0909343018093420189
:1001F000DFCF10920601089580E1809306010895F3
:1002000080913E0190913F01009741F0019779F074
:1002100010923F0110923E0180E007C081E090E023
:1002200090933F0180933E0180E085B908958091CD
:10023000080190910701892B90910601892BF5CF38
:100240008BE0809381008DE790E09093890080930C
:10025000880082E080936F001092850010928400E5
:100260008091000190910101A0910201B0910301E0
:100270008093090190930A01A0930B01B0930C01A4
:100280008FB780688FBF089510928100089581E034
:1002900080930D0108951F920F920FB60F921124B3
:1002A0000BB60F922F933F934F935F936F937F9370
:1002B0008F939F93AF93BF93EF93FF938091090127
:1002C00090910A01A0910B01B0910C010197A10935
:1002D000B1098093090190930A01A0930B01B09397
:1002E0000C01892B8A2B8B2B99F0FF91EF91BF91F9
:1002F000AF919F918F917F916F915F914F913F91BE
:100300002F910F900BBE0F900FBE0F901F9018955E
:100310000E9447018091000190910101A09102018A
:10032000B09103018093090190930A01A0930B01FE
:10033000B0930C01DACF60930001709301018093B8
:100340000201909303016093090170930A01809365
:100350000B0190930C01089511B88FEF82B984B905
:1003600015B862E070E080E090E00E949B010E947E
:100370002001EEE0F1E0118210828CE291E0A0E039
:10038000B0E082839383A483B58386839783A08719
:10039000B18787E690E0938782871586148688EE7A
:1003A00093E0A0E0B0E086879787A08BB18B828B2B
:1003B000938BA48BB58B8FE990E0978B868B118EF6
:1003C000108E82E090E0A0E0B0E0828F938FA48F47
:1003D000B58F868F978FA0A3B1A32AEC30E033A30B
:1003E00022A315A214A286A397A3A0A7B1A782A7B0
:1003F00093A7A4A7B5A780E091E097A786A74EC0D2
:10040000FE01EE0FFF1FDF01AC0FBD1FAA0FBB1FC8
:10041000AA0FBB1FA25FBE4FFD01468157816085B9
:1004200071854E5F5F4F6F4F7F4F16964D935D9373
:100430006D937C9319971F5F143050F5C12FD0E056
:10044000FE01EE0FFF1FEC0FFD1FEE0FFF1FEE0F63
:10045000FF1FE25FFE4F4681578160857185828173
:100460009381A481B581481759076A077B0740F239
:100470007F01DF010284F385E02D8D919C91099528
:10048000F701918380831682178210861186B8CF78
:1004900080910D018823E1F310920D0110E0CCCF83
:0404A000F894FFCFFE
:0604A4000100000004004D
:00000001FF
