:100000000C9446000C9465000C9465000C946500FB
:100010000C9465000C9465000C9465000C946500CC
:100020000C9465000C9465000C9465000C946500BC
:100030000C9465000C9465000C9465000C946500AC
:100040000C9465000C9465000C9465000C9465009C
:100050000C9465000C9465000C9465000C9465008C
:100060000C9465000C9465000C9465000C9465007C
:100070000C9465000C9465000C9465000C9465006C
:100080000C9465000C9465000C94650011241FBE4F
:10009000CFEFD0E4DEBFCDBF11E0A0E0B1E0E0E201
:1000A000F5E000E00BBF02C007900D92AE30B10743
:1000B000D9F721E0AEE0B1E001C01D92AE31B20748
:1000C000E1F70E9479000C947E020C940000CF931B
:1000D000C82F8A3051F09091C00095FFFCCFC0939B
:1000E000C60090E080E0CF9108958DE00E94670007
:1000F000F2CF8FEF8AB91BB80E946202C0E015C030
:1001000061E08C2F0E941A0160E08C2F0E942A016E
:1001100060E08C2F0E943A016CE08C2F0E9422013B
:1001200067E08C2F0E943201CF5FC23048F310E0AD
:1001300023C041E050E00C2E02C0440F551F0A942A
:10014000E2F76D2F812F0E94BF012FE788E391E036
:10015000215080409040E1F700C00000CF5FC830E0
:1001600040F340E06D2F812F0E94BF01DF5FD83048
:1001700010F4C0E0F4CF1F5F1230C8F6D0E0F7CF24
:1001800098E007C02BB12B7F2BB92BB128602BB97E
:1001900091509923E9F0292F2150330BB90141E007
:1001A00050E002C0440F551F2A95E2F7282F30E097
:1001B0002423352302C0359527956A95E2F73BB194
:1001C000377F3BB92223F1F22BB124602BB9DDCF6D
:1001D00008950F931F93CF93DF93D82F062F142FDB
:1001E000823028F0DF91CF911F910F9108958BB14C
:1001F0008F7E8BB9CD2F07C080E00E94C00080E0C9
:100200000E94C000CF5FCC23B9F3802F0E94C000B2
:10021000812F0E94C000C0E0CD1720F08BB180611B
:100220008BB9E0CF80E00E94C00080E00E94C00057
:10023000CF5FF2CF623008F00895462F6CE00E9445
:10024000E900FACF603108F00895462F6AE00E9475
:10025000E900FACF623008F00895462F6FE00E945F
:10026000E900FACF683008F00895462F6BE00E944D
:10027000E900FACF462F69E00E94E9000895462F71
:10028000E82FF0E0EE0FFF1FEE0FFF1FEE0FFF1F36
:10029000E25FFE4F608361E00E94E9000895462F0F
:1002A000E82FF0E0EE0FFF1FEE0FFF1FEE0FFF1F16
:1002B000E25FFE4F618362E00E94E9000895462FED
:1002C000E82FF0E0EE0FFF1FEE0FFF1FEE0FFF1FF6
:1002D000E25FFE4F628363E00E94E9000895462FCB
:1002E000E82FF0E0EE0FFF1FEE0FFF1FEE0FFF1FD6
:1002F000E25FFE4F638364E00E94E9000895462FA9
:10030000E82FF0E0EE0FFF1FEE0FFF1FEE0FFF1FB5
:10031000E25FFE4F648365E00E94E9000895462F86
:10032000E82FF0E0EE0FFF1FEE0FFF1FEE0FFF1F95
:10033000E25FFE4F658366E00E94E9000895462F64
:10034000E82FF0E0EE0FFF1FEE0FFF1FEE0FFF1F75
:10035000E25FFE4F668367E00E94E9000895462F42
:10036000E82FF0E0EE0FFF1FEE0FFF1FEE0FFF1F55
:10037000E25FFE4F678368E00E94E9000895E62F80
:10038000642FE830E0F4F0E0E058FD4F0C94750283
:100390000E943F0108950E944F0108950E945F014D
:1003A00008950E946F0108950E947F0108950E94A0
:1003B0008F0108950E949F0108950E94AF01089542
:1003C000E82FF0E0EE0FFF1FEE0FFF1FEE0FFF1FF5
:1003D000E25FFE4F80810895E82FF0E0EE0FFF1FEF
:1003E000EE0FFF1FEE0FFF1FE25FFE4F81810895AA
:1003F000E82FF0E0EE0FFF1FEE0FFF1FEE0FFF1FC5
:10040000E25FFE4F82810895E82FF0E0EE0FFF1FBC
:10041000EE0FFF1FEE0FFF1FE25FFE4F8381089577
:10042000E82FF0E0EE0FFF1FEE0FFF1FEE0FFF1F94
:10043000E25FFE4F84810895E82FF0E0EE0FFF1F8A
:10044000EE0FFF1FEE0FFF1FE25FFE4F8581089545
:10045000E82FF0E0EE0FFF1FEE0FFF1FEE0FFF1F64
:10046000E25FFE4F86810895E82FF0E0EE0FFF1F58
:10047000EE0FFF1FEE0FFF1FE25FFE4F8781089513
:100480006830F0F4E62FF0E0E857FD4F0C94750269
:100490000E94E00108950E94EC0108950E94F80175
:1004A00008950E94040208950E94100208950E9477
:1004B0001C0208950E94280208950E9434020895A3
:1004C00080E008958AB184608AB98AB188608AB967
:1004D0008AB180618AB98BB18B7F8BB98BB1877FF1
:1004E0008BB98BB18F7E8BB90895EE0FFF1F00245F
:1004F000001C0BBE0790F691E02D0994F894FFCFF5
:10050000C801CB01CE01D101D401D701DA01DD014F
:1005100048024B024E025102540257025A025D0237
:0E052000000000020000000067000000000064
:00000001FF
